:020000040800F2
:1000000000000220ED0B0008E90B0008259C000809
:10001000E90B0008E90B0008E90B000800000000EC
:10002000000000000000000000000000E90B0008D4
:10003000E90B000800000000E90B0008A99B00087C
:10004000E90B0008E90B0008E90B0008E90B0008C0
:10005000E90B0008E90B0008E90B0008E90B0008B0
:10006000E90B0008E90B0008E90B000879790008A2
:1000700085790008DD660008917900089D790008FF
:1000800071960008A96E0008E90B0008E90B00084A
:10009000E90B0008E90B0008E90B0008E90B000870
:1000A000E90B0008E90B0008E90B0008E90B000860
:1000B00095510108A1510108AD510108DD6E0008FC
:1000C000E90B0008E96E0008E90B000869850008E3
:1000D00075850008A5940008D194000805950008CE
:1000E000E90B0008E90B000800000000E90B00081C
:1000F000E90B0008E90B0008E90B0008E90B000810
:10010000E90B0008E90B0008B951010881850008D6
:10011000399500086D950008E90B0008E90B000807
:10012000E90B0008E90B0008A5850008D98500083F
:10013000A5960008E90B0008E90B0008E90B000888
:1001400000000000000000000000000000000000AF
:10015000E90B0008E90B0008E90B0008A19500086D
:10016000F56E0008E90B0008B99B0008DD9B00084C
:10017000E90B0008019C0008E90B0008E90B0008E6
:10018000E90B0008E90B0008D5950008099600085E
:100190008D85000899850008E90B0008E90B000827
:1001A000E90B0008E90B0008E90B0008E90B00085F
:1001B00099760008E90B0008E90B0008E90B000834
:1001C000E90B0008E90B0008E90B0008E90B00083F
:1001D000E90B0008E90B0008E90B0008E90B00082F
:1001E000E90B0008E90B0008E90B0008E90B00081F
:1001F000E90B0008E90B0008E90B0008E90B00080F
:10020000E90B0008E90B0008E90B0008E90B0008FE
:10021000E90B0008E90B0008E90B0008E90B0008EE
:10022000E90B0008E90B0008E90B000800000000DA
:10023000E90B0008E90B000800000000E90B0008CA
:10024000E90B0008E90B0008E90B0008E90B0008BE
:10025000E90B0008E90B0008E90B0008E90B0008AE
:10026000E90B0008E90B0008E90B0008E90B00089E
:10027000E90B0008E90B00083D96000800000000AB
:10028000E90B0008E90B0008E90B0008000000007A
:0802900000000000E90B00086A
:1002980010B5054C237833B9044B13B10448AFF3B8
:1002A80000800123237010BD180400240000000002
:1002B800A0B2010808B5034B1BB103490348AFF3CB
:1002C800008008BD000000001C040024A0B2010842
:1002D80081F0004102E000BF83F0004330B54FEAEF
:1002E80041044FEA430594EA050F08BF90EA020F5C
:1002F8001FBF54EA000C55EA020C7FEA645C7FEAEF
:10030800655C00F0E2804FEA5454D4EB5555B8BF11
:100318006D420CDD2C4480EA020281EA030382EA82
:10032800000083EA010180EA020281EA0303362D14
:1003380088BF30BD11F0004F4FEA01314FF4801CE7
:100348004CEA113102D0404261EB410113F0004FF9
:100358004FEA03334CEA133302D0524263EB4303B0
:1003680094EA050F00F0A780A4F10104D5F1200E4E
:100378000DDB02FA0EFC22FA05F2801841F10001A9
:1003880003FA0EF2801843FA05F359410EE0A5F17D
:1003980020050EF1200E012A03FA0EFC28BF4CF0AE
:1003A800020C43FA05F3C01851EBE37101F0004564
:1003B80007D54FF0000EDCF1000C7EEB00006EEB71
:1003C8000101B1F5801F1BD3B1F5001F0CD34908FB
:1003D8005FEA30004FEA3C0C04F101044FEA445252
:1003E80012F5800F80F09A80BCF1004F08BF5FEAD9
:1003F800500C50F1000041EB045141EA050130BDB9
:100408005FEA4C0C404141EB0101013C28BFB1F5CA
:10041800801FE9D291F0000F04BF01460020B1FA15
:1004280081F308BF2033A3F10B03B3F120020CDAE8
:100438000C3208DD02F1140CC2F10C0201FA0CF0C6
:1004480021FA02F10CE002F11402D8BFC2F1200C2B
:1004580001FA02F120FA0CFCDCBF41EA0C019040E1
:10046800E41AA2BF01EB0451294330BD6FEA04042A
:100478001F3C1CDA0C340EDC04F11404C4F1200215
:1004880020FA04F001FA02F340EA030021FA04F327
:1004980045EA030130BDC4F10C04C4F1200220FA7E
:1004A80002F001FA04F340EA0300294630BD21FABC
:1004B80004F0294630BD94F0000F83F4801306BF82
:1004C80081F480110134013D4EE77FEA645C18BF76
:1004D8007FEA655C29D094EA050F08BF90EA020F0D
:1004E80005D054EA000C04BF1946104630BD91EA05
:1004F800030F1EBF0021002030BD5FEA545C05D108
:100508004000494128BF41F0004130BD14F5800446
:100518003CBF01F5801130BD01F0004545F0FE41BA
:1005280041F470014FF0000030BD7FEA645C1ABFEF
:10053800194610467FEA655C1CBF0B46024650EA26
:10054800013406BF52EA033591EA030F41F4002152
:1005580030BD00BF90F0000F04BF0021704730B5D8
:100568004FF4806404F132044FF000054FF00001AD
:1005780050E700BF90F0000F04BF0021704730B56E
:100588004FF4806404F1320410F0004548BF404243
:100598004FF000013EE700BF42004FEAE2014FEA98
:1005A80031014FEA02701FBF12F07F4393F07F4F73
:1005B80081F06051704732F07F4208BF704793F076
:1005C8007F4F04BF41F40021704730B54FF4607489
:1005D80001F0004521F000411CE700BF50EA01028C
:1005E80008BF704730B54FF000050AE050EA010235
:1005F80008BF704730B511F0004502D5404261EBA5
:1006080041014FF4806404F132045FEA915C3FF4E5
:10061800D8AE4FF003025FEADC0C18BF03325FEA82
:10062800DC0C18BF033202EBDC02C2F1200300FA33
:1006380003FC20FA02F001FA03FE40EA0E0021FA58
:1006480002F11444BDE600BF53B94AB9002908BFF6
:1006580000281CBF4FF0FF314FF0FF3000F0BEBA4A
:10066800ADF1080C6DE904CE00F050F9DDF804E0B6
:10067800DDE9022304B0704760EE016A20EEA16A4A
:1006880020EE215A76EEC67A61EE205AF4EE677AA9
:10069800F1EE10FA35EE257A04D6B0EE670AF0EEE0
:1006A800470A7047B4EE477AF1EE10FAF5D7DFED56
:1006B800934AB0EEC04AB4EE644AF1EE10FACCBFE9
:1006C80001230023B0EEE04A00F39D80B4EE644AB3
:1006D800F1EE10FA00F397800023DFED884AB0EEC0
:1006E800C14AB4EE644AF1EE10FAF0EEE13A48DCA1
:1006F800F4EE643AF1EE10FA43DC9BBBF0EEE66AE6
:10070800F4EE646AF1EE10FA14DCB0EEC66AB4EEE8
:10071800646AF1EE10FA0DDCB0EEC55AB4EE645A14
:10072800F1EE10FA06DCF0EEE55AF4EE645AF1EE5A
:1007380010FAB2DDB4EE400AF1EE10FA80F1D3807F
:10074800F4EE600AF1EE10FA80F1C380B4EE411ABB
:10075800F1EE10FA80F1B380F4EE611AF1EE10FABE
:1007680080F1A38061EEE07A60EE810AE0EE017A22
:10077800E0EE210A9FED627A67EE877A20EE877AAB
:100788008BE7DFED5E7A9FED5D7AB4EE674AF1EEB6
:1007980010FACCBF0123002307EE903A11EE103A6D
:1007A800F8EEE77A002BF0EEE77AF4EE473AB8BFB6
:1007B800F1EE677AF1EE10FACCBF01230023B0EE18
:1007C800671A07EE903A11EE903AF8EEE77A002BA6
:1007D800F0EEE77AB4EE400AB8BFF1EE677AF1EED0
:1007E80010FAF0EE671A4CD6F4EE600AF1EE10FA41
:1007F800B8D710EE903A9FED437ADFED437A002B9D
:1008080067FE270AAEE704EE903ADFED3C3A10EEB9
:10081800103AF8EEE44A002BF0EEE44AB4EE634AEC
:10082800B8BFF1EE644AF1EE10FACCBF0123002301
:10083800B0EE640A04EE903A10EE903AF8EEE44A0C
:10084800002BF0EEE44AB4EE411AB8BFF1EE644A68
:10085800F1EE10FAF0EE640A1DD6F4EE611AF1EE2C
:1008680010FA78BF0123FFF538AF11EE903A9FEDEB
:10087800254ADFED254A002B4FF0010364FE241AB8
:100888002BE710EE103A9FED1F7ADFED1F7A002B51
:1008980027FE270AA8E711EE103A9FED1A4ADFED66
:1008A8001A4A002B24FE241AD7E711EE903A9FED3E
:1008B800157ADFED157A002B67FE271A52E711EE3D
:1008C800103A9FED107ADFED107A002B27FE271AD9
:1008D80042E710EE903A9FED0B7ADFED0B7A002B92
:1008E80067FE270A32E710EE103A9FED067ADFED31
:1008F800067A002B27FE270A22E700BFFFFF7F7F2B
:100908000000807F00000000000000802DE9F04713
:10091800089D04468E46002B4DD18A42944669D9DB
:10092800B2FA82F252B101FA02F3C2F1200120FABE
:1009380001F10CFA02FC41EA030E94404FEA1C480C
:10094800210CBEFBF8F61FFA8CF708FB16E341EA08
:10095800034306FB07F199420AD91CEB030306F18E
:10096800FF3080F01F81994240F21C81023E6344AF
:100978005B1AA4B2B3FBF8F008FB103344EA034453
:1009880000FB07F7A7420AD91CEB040400F1FF3368
:1009980080F00A81A74240F207816444023840EAA5
:1009A8000640E41B00261DB1D4400023C5E90043DE
:1009B8003146BDE8F0878B4209D9002D00F0EF8061
:1009C8000026C5E9000130463146BDE8F087B3FA94
:1009D80083F6002E4AD18B4202D3824200F2F9807C
:1009E800841A61EB030301209E46002DE0D0C5E97F
:1009F800004EDDE702B9FFDEB2FA82F2002A40F0CB
:100A08009280A1EB0C014FEA1C471FFA8CFE0126CD
:100A1800200CB1FBF7F307FB131140EA01410EFB71
:100A280003F0884208D91CEB010103F1FF3802D218
:100A3800884200F2CB804346091AA4B2B1FBF7F012
:100A480007FB101144EA01440EFB00FEA64508D935
:100A58001CEB040400F1FF3102D2A64500F2BB8072
:100A68000846A4EB0E0440EA03409CE7C6F12007C1
:100A7800B34022FA07FC4CEA030C20FA07F401FA07
:100A880006F31C43F9404FEA1C4900FA06F3B1FB90
:100A9800F9F8200C1FFA8CFE09FB181140EA0141F5
:100AA80008FB0EF0884202FA06F20BD91CEB010192
:100AB80008F1FF3A80F08880884240F28580A8F1EA
:100AC80002086144091AA4B2B1FBF9F009FB10113C
:100AD80044EA014100FB0EFE8E4508D91CEB0101DA
:100AE80000F1FF346CD28E456AD90238614440EA7D
:100AF8000840A0FB0294A1EB0E01A142C846A646FD
:100B080056D353D05DB1B3EB080261EB0E0101FA85
:100B180007F722FA06F3F1401F43C5E900710026E2
:100B28003146BDE8F087C2F12003D8400CFA02FC38
:100B380021FA03F3914001434FEA1C471FFA8CFE48
:100B4800B3FBF7F007FB10360B0C43EA064300FB38
:100B58000EF69E4204FA02F408D91CEB030300F1D6
:100B6800FF382FD29E422DD9023863449B1B89B28D
:100B7800B3FBF7F607FB163341EA034106FB0EF316
:100B88008B4208D91CEB010106F1FF3816D28B42C3
:100B980014D9023E6144C91A46EA004638E72E468F
:100BA800284605E70646E3E61846F8E64B45A9D287
:100BB800B9EB020864EB0C0E0138A3E74646EAE7F6
:100BC800204694E74046D1E7D0467BE7023B6144A4
:100BD80032E7304609E76444023842E7704700BF0D
:100BE800FEE700BF0B480C4A904203D0121A0B498B
:100BF80016F0B0FD0A480B4A904203D0121A0021A1
:100C080016F0D0FD09F062FA16F070FD02F074F9E2
:100C1800FEE700BF0000002414040024D0B201083D
:100C280018040024EC9D0724704700BF704700BFDC
:100C380049424FF480621430C9B216F0B3BD00BF08
:100C48008020704740207047012A08BF01600020BB
:100C5800704700BF012A08BF01600020704700BF2D
:100C6800012A08BF01600020704700BF012A08BFA1
:100C780001600020704700BF00F500539B6910B564
:100C880004462BB142F2100103220144084698475A
:100C9800204610BD0000000091ED007A9FED0A0B80
:100CA800B7EEC77A08B527EE000B15F025FBB7EEAF
:100CB800007BB6EE006B37EE400B20EE060BB7EE6E
:100CC800C00B08BDAFF30080182D4454FB21194018
:100CD80091ED007A9FED060BB7EEC77A08B527EEBF
:100CE800000B15F049FBB7EEC00B08BDAFF3008051
:100CF800182D4454FB21194091ED007A9FED060B05
:100D0800B7EEC77A08B527EE000B15F035FBB7EE3E
:100D1800C00B08BDAFF30080182D4454FB210940D7
:100D28002DE9F04F0B468946824601F500542DED1A
:100D3800068BDFEDA98A83B00190002243F8042BCB
:100D48009C42F0EC017AE7EEA78AF6D101F58057CC
:100D5800A2490023DFEDA27A0A60A24A1E4668EE85
:100D6800A78AA14D13603446019BDFF8988203F5EA
:100D7800805B9E4A9E4B3BE095F801C0BCF1000F9A
:100D88000BD0DFF88CC29CED007A67EE877AF4EE20
:100D9800C87AF1EE10FA00F18E80F7EE007A92ED43
:100DA800007A4FF0000C37EEC77A27EE099A89EDE2
:100DB800009AD2ED006A1AED017A77EEE67A67EECC
:100DC800C77AC7ED007AD1ED007A05F801CFF4EEC5
:100DD800C87AF1EE10FA03D5824881ED008A0660E0
:100DE8008448013609F104090437A84200F0B980A3
:100DF800BBEC019AB7EE006ABAEC017A29EE098ACF
:100E0800F8EC016A37EE075A08F6FC7C79EE094AD5
:100E1800A7EE078A9CED007A76EEA65A03EB840CBF
:100E28000134DCED009A04F007049CED08AA78EE82
:100E3800067AC4EEA70A85EE270A67EE077A37EE28
:100E4800077AE6EEA67A77EE867AC7EE276A85EE07
:100E5800A71A66EEA07AF1EE661A21EE207AE1EE84
:100E6800007AA6EEC07AB4EE677AF1EE10FA80F155
:100E78008A8029EE870A67EE4A0AAAEE270AE9EE6F
:100E8800A70AB4EE600AF1EE10FA80F186805A489B
:100E98009FED5A7AD0ED007A594867EEA77AD0EDDF
:100EA800006A67EEA87AE6EE877AF4EEC87AF1EE81
:100EB80010FA7FF561AF15F085FCDFF858C1B7EE81
:100EC800C00A07EE106ADCF800C0BAEEEA7A484BAE
:100ED8009CED066A95F801C0B8EE466B434AB7EE3A
:100EE800C77A3E499FED384B9FED395B26EE046B80
:100EF80080EE064B37EE447B27EE057BB7EEC77BCB
:100F0800BCF1000F13D0DFF810C1F7EE007ADCED6A
:100F1800006ADFF8F8C077EEE67A0CEB860C9CEDF9
:100F2800006A67EE867AE6EE877AB0EE677A4FEA6D
:100F3800860EDFF8D4C0D2ED006AF4448CED007A56
:100F48004FF0010C5AED017A67EEA67AC9ED007AE6
:100F58005BED017A92ED007A67EE877AC7ED007A49
:100F680031E701994FF40052264816F0F3FB4FF48D
:100F780080522549254816F0EDFB002003B0BDEC52
:100F8800068BBDE8F08FFFF777FB1449F0EE407A47
:100F9800164AB0EE607A164B6BE7B0EE670AF0EED1
:100FA8004A1AB0EE691AF0EE470AFFF765FBF0EE51
:100FB800607A0A49F0EE400A0C4AB0EE670A0C4B18
:100FC80065E700BFAFF30080182D4454FB2119409A
:100FD800000000000070E74000000000BC8400240E
:100FE8000000003A6C70072437950024B884002468
:100FF800F89400243799002494700724F3043542A8
:10100800683005246C500524F48400246C400524C1
:1010180074700724907007241C00002410B504463F
:1010280040F2144114F00DFC204610BD00000000F1
:1010380091ED000A08B515F0DFF9B7EEC00A9FED8B
:10104800047B20EE070BB7EEC00B08BDAFF30080A2
:1010580083C8C96D305FE43F2DE9F041B02482B008
:1010680000F1080600F1100500F1140800272846D1
:101078008DF807400134394605F0BEFD642301228E
:101088000DF107013046E4B207F0D0FC3946284696
:101098008DF8067005F0B0FD012264230DF10601FC
:1010A800304607F0C3FC1023394628468DF8053032
:1010B80005F0A2FD642301220DF10501304607F079
:1010C800B5FC0121284605F097FD8022414664239E
:1010D8003046904407F0AAFCB82CC7D102B0BDE84E
:1010E800F08100BF2DE9F04F8BB00F789DF850408C
:1010F800019107940AAC04E90C00002F00F0BA80B3
:101108009DF8213082469DF820600493099B069340
:10111800A7F12004E3B25E2B00F2AD80DAF80030CC
:10112800794ADB68934240F0CE808020BAF80430D8
:101138003344834200F3C380DAF80030734A9B6873
:10114800934240F0C3804020BAF80630049A0393D3
:101158001344834200F3B380002A00F0C28002FBEC
:1011680004F46FF0004E069BA6441444BAF80480B9
:1011780003EB4E0E023BDDF80CC003EB4403DDF835
:101188001C90059702933EF8020F002E3BD00CF0FE
:10119800070301254FEADC0208F114019D40BCF168
:1011A8003F0F4FEAC21243466DB298BF0024114464
:1011B80088BF0124EF435144B9F1000F5FD14A467B
:1011C8000DE07F2B06D82CB991F800B045EA0B0B3F
:1011D80081F800B0013201310133B24213D000FA74
:1011E80002FB1BF4004FECD07F2BF3D8002CF1D17D
:1011F80091F800B001320131013307EA0B0BB2421A
:1012080001F801BCEBD1029B0CF1010C7345BAD17A
:10121800059FDAF8002008EB06043B49D368A4B21E
:101228008B4259D18020844204D3D36836498B42FB
:1012380060D17F249368354AAAF80440934248D184
:101248004020039B834207D3DAF800302F4A9B687B
:10125800934249D13F230393039BAAF80630019B8D
:101268001B789F424DD1019B13F8017F0193002FFA
:101278007FF44EAF002738460BB0BDE8F08F002250
:101288000DE07F2B06D82CB991F800B045EA0B0B7E
:1012980081F800B0013201310133B242B3D000FA13
:1012A80002FB1BF4004FECD17F2BF3D8002CF1D1BB
:1012B80091F800B007EA0B0B81F800B0EAE7019B50
:1012C80000271B78CDE7504698472FE750469847A8
:1012D8003AE750469847B4E750469847DAF800206E
:1012E800A1E7BAF8048094E750469847013883B2DA
:1012F8000393B1E7504698470138DAF8002084B2E2
:1013080098E71F46B7E700BF490C00084D0C0008D6
:101318007F291ED83F2A1CD86BB1D3084FF0010C87
:1013280002F0070201EBC3130CFA02F2C1180B7D9D
:101338001A430A757047D3084FF0010C02F00702F0
:1013480001EBC3130CFA02FCC1180A7D22EA0C0255
:101358000A7570472DE9F04F8BB01D460F469DF872
:10136800583007901046099310F8013BDDF850C03B
:101378001599009233B1002210F8013B0132002B7D
:10138800FAD193B22A78687812FB03F302B21BB23F
:1013980023EAE373082900F2D981DFE811F0070195
:1013A8001A016B018501260136014F01560109001A
:1013B800BCF80410BCF800400C44BCF90610E41A50
:1013C8000029A4B2C0F20381BCF80260079806EBBA
:1013D8006106C280A6EB52028380048096B24680E2
:1013E800AF4A3B6811460392DA688A4240F0C381EB
:1013F8008020A04205D8DA6803998A4240F0C48167
:101408007F24A84A9B68BC809342049240F0AF8135
:101418004020B04206D83B68049A9B68934240F04B
:10142800AE813F26009BFE8093F800A06B782C7855
:1014380005936B680893BAF1000F00F0B380AAF126
:101448002005EBB25E2B00F2AD803B68039ADB68A7
:10145800934240F05F818020BB882344834200F39D
:1014680054813B68049A9B68934240F0568140201F
:10147800FB88059A029313449842C0F24681002AD9
:1014880000F0558102FB05F56FF0004E089BAE4455
:101498001544B7F8048003EB4E0E023BCDF818A0B4
:1014A800BA4603EB4503DDF808C0099F01933EF8EF
:1014B800020F002C3CD00CF0070301264FEADC0297
:1014C80008F114019E40BCF13F0F4FEAC212434697
:1014D80076B298BF0025114488BF01256FEA060936
:1014E8005144002F40F0F0803A460DE07F2B06D89B
:1014F8002DB991F800B046EA0B0B81F800B0013223
:1015080001310133944213D000FA02FB1BF4004F5F
:10151800ECD07F2BF3D8002DF1D191F800B0013237
:101528000131013309EA0B0B944201F801BCEBD1FC
:10153800019B0CF1010C9E45B9D15746DDF818A066
:101548003A6808EB04050399D368ADB28B4240F0C2
:10155800EA808020854205D3D36803998B4240F006
:10156800E9807F259368049ABD80934240F0D88033
:101578004020029B834207D33B68049A9B689342AE
:1015880040F0DE803F230293029BFB80009B1B7888
:101598009A4507D1009B13F801AF0093BAF1000FE9
:1015A8007FF44DAF07980BB0BDE8F08FBCF904107D
:1015B800BCF800400029B8BF013104EB6104BCF954
:1015C8000610A4EB63040029A4B2BFF6FDAE0131F6
:1015D800FAE6BCF90040BCF9026007990C80A4B295
:1015E8004E80B6B28B80CA80FAE6BCF80610BCF80A
:1015F8000260BCF900400E440799301A0C808B80B9
:10160800A4B286B2CA804E80EAE6BCF90410BCF8DF
:1016180000400029B8BF013104EB6104A4EB630466
:10162800BCF80260A4B2BCF806C0079966448B8077
:10163800301ACA800C8086B24E80D1E6BCF80040D1
:10164800BCF804100C44E41AEAE7BCF90610BCF82C
:10165800026000290798BCF90040B8BF0131C28078
:101668000480A4B206EB61068380A6EB520296B210
:101678004680B5E6BCF90410BCF800400029BCF966
:101688000260B8BF013104EB610407998B80A4EBB9
:1016980063034E80B6B29CB2CA800C80A0E600BF3D
:1016A800490C00084D0C0008BCF80410BCF80040B8
:1016B800BCF902600C4407998B80E31A4E80B6B2DD
:1016C8009CB2CA800C808BE600220EE07F2B06D8E5
:1016D8002DB991F800B046EA0B0B81F800B0013241
:1016E8000131013394423FF423AF00FA02FB1BF4AB
:1016F800004FEBD17F2BF2D8002DF0D191F800B03C
:1017080009EA0B0B81F800B0E9E7009B4FF0000AEB
:101718001B783DE7384698479EE638469847A7E63F
:101728003846984725E7384698473A6812E7B7F8A1
:10173800048005E73846984701383A6885B211E7CA
:1017480038469847013883B202931DE73B68002664
:10175800079A104916605660DA6803918A4209D1DF
:101768009B680D4ABE80934204923FF45BAE3846B4
:1017780098474EE63446384690473B6839E638463F
:101788009847013886B24DE63846904701383B689D
:1017980084B236E6490C00084D0C00082DE9F04FDC
:1017A80087B0A1F1200506AC9DF84080029104E9BC
:1017B8000C00EBB25E2B00F29A80036807466E4A73
:1017C800DB689DF8104093429DF8116040F0B980A5
:1017D8008020BB882344834200F389803B68674AA2
:1017E8009B68934240F0AF804020FA889319039297
:1017F80083427CDC002E00F0B08006FB05F56FF01C
:101808000040059B28442E44B7F8049003EB4000A1
:10181800023B03EB46038646164601934346B84609
:101828001F463EF8025F002C3CD006F007034FF03D
:10183800010CF20809F114010CFA03FC3F2E4FEADF
:10184800C2124B464FFA8CFC98BF0020114488BF47
:1018580001206FEA0C0A4144002F4CD13A460DE0B2
:101868007F2B06D828B991F800B04CEA0B0B81F809
:1018780000B0013201310133A24213D005FA02FB54
:101888001BF4004FECD07F2BF3D80028F1D191F84E
:1018980000B00132013101330AEA0B0BA24201F810
:1018A80001BCEBD1019B01369E45BAD147463B6846
:1018B8004C443149DA68A4B28A424AD18020844231
:1018C80039D29B682D4ABC8093423FD14020039B6C
:1018D800834206D33B68294A9B68934246D13F23FB
:1018E8000393DDE90203FB8007B0BDE8F08F002019
:1018F80007B0BDE8F08F00220DE07F2B06D828B98D
:1019080091F800B04CEA0B0B81F800B001320131BC
:101918000133A242C6D005FA02FB1BF4004FECD1FA
:101928007F2BF3D80028F1D191F800B00AEA0B0B0D
:1019380081F800B0EAE7DA680F498A4210D17F24BB
:10194800BFE7984745E7384698474EE738469847EF
:10195800BDE7384690473B68B1E7B7F80490A6E77B
:101968003846904701383B6884B2AAE7384698471A
:10197800013883B20393B4E7490C00084D0C000802
:101988002DE9F04F83B05C1A0C9D002C9DF834E0D3
:10199800A5EB0207B8BF6442002FB8BF7F428B4255
:1019A8008CBF4FF001094FF0FF399542A4EB070CAB
:1019B8004BD87F2B00F292803F2D00F28F804FF0A2
:1019C800FF3605F007080096EE0803EBC616064436
:1019D800BEF1000F48D14FF0010E8B420EFA08F805
:1019E80096F814E02EEA080E86F814E001D1954224
:1019F80028D07E4201974FEAD20E7F2902F0070ACB
:101A08004FEA4C0801EBCE1E0CD83F2A864409D871
:101A18004FF0010B0BFA0AFB9EF814A02AEA0B0AF6
:101A28008EF814A0B6EB4C0F03DA019F4944ACEBD7
:101A3800070C444502DD009FA4443A448B42DAD1A6
:101A48009542D8D103B0BDE8F08F01267F2B0096D0
:101A58004BD83F2D49D8EE0805F0070803EBC6160A
:101A68000644BEF1000FB6D04FF0010E8B420EFABD
:101A780008FE96F814804EEA080E86F814E001D1A4
:101A88009542DFD07E4201974FEAD20E7F2902F0BD
:101A9800070A4FEA4C0801EBCE1E0CD83F2A8644B1
:101AA80009D84FF0010B0BFA0AFA9EF814B04AEA6B
:101AB8000B0A8EF814A0B6EB4C0F03DA019F4944C9
:101AC800ACEB070C444502DD009FA4443A4499421C
:101AD800DAD19542D8D103B0BDE8F08F954201D153
:101AE8008B42AFD04FF0FF3600967E420197BEF191
:101AF800000FC9D17FE700BF2DE9F04F2DED068B10
:101B080083B01F46164680469DF850300D46019317
:101B1800DDE91223002B1344C0F21F8206EE103AAF
:101B2800DDED127AB8EEC66B9FEDCD4BB8EEE77BD4
:101B38009FEDCD5B27EE047B26EE046B87EE050B4D
:101B480086EE05ABF7EEC08BB0EE680A13F09CFE8C
:101B580007EE907AB7EECAABF8EE679AB0EE408A15
:101B6800B0EE680A14F028FD60EE698AB0EE4A0A01
:101B780013F08AFEB0EE409AB0EE4A0A14F01CFD4B
:101B880020EE690A29EE888A29EE899A70EE687A29
:101B9800F0EE006A39EE487A67EEA77AE7EE077A40
:101BA800F4EEE67AF1EE10FA06D5139BB42B40F367
:101BB80096804FF0010901E04FF0000901247842B6
:101BC8004FF0000C0095E31B214627462246A34010
:101BD800B9F1000F6AD1424206EE90CACCF1000179
:101BE80007EE102AB8EEE66A07EE901A06EE900A9B
:101BF800B8EEC77A139A66EE084AF8EEE77AB42A7E
:101C080027EE284AF8EEE66A67EE885A74EEC43A78
:101C180026EEA85A26EE096A66EE806A67EE897A89
:101C280027EE007AF5EEC03A40F3F280F1EE10FAB2
:101C380000F17F8176EE473A74EEC54AF5EEC03A78
:101C4800F1EE10FAF5EEC04ACCBF01220022F1EE07
:101C580010FA00F1778136EE666A35EEC55AB5EEB0
:101C6800C06AF1EE10FAB5EEC05ACCBF01210021CE
:101C7800F1EE10FA00F16F8177EEE66AF5EEC06AD0
:101C8800F1EE10FACCBF0127002775EEC45AF5EE25
:101C9800C05AF1EE10FA00F1478177EEC77AF5EEF7
:101CA800C07AF1EE10FACCBF01240024002A40F0DB
:101CB8008A80002964D1BFB9C4BB9C4558DB0CF1AC
:101CC800010C03EB4C0E1CEB000F0EF1010E00F0A3
:101CD800C08098424FDB734600287FF779AF03B086
:101CE800BDEC068BBDE8F08F009DA6EB0C0E00EB5B
:101CF800050ABAF17F0FDFD8BEF13F0FDCD84FEAF3
:101D0800DE0B019D0AEBCB1A002D00F0B1800EF01E
:101D1800070BC2444FF0010E0EFA0BFE9AF814B0EE
:101D28004EEA0B0E8AF814E0002CC6D0009DA6EBF4
:101D38000C0EA5EB000ABAF17F0FBED8BEF13F0F1B
:101D4800BBD84FEADE0B019D0AEBCB1A002D00F041
:101D5800AE800EF0070BC2444FF0010E9C450EFA00
:101D68000BFE9AF814B04EEA0B0E8AF814E0A6DAC5
:101D780098429E46AFDA01300EEB40030133ABE7E1
:101D8800009D0CEB060E00EB050ABAF17F0F92D806
:101D9800BEF13F0F8FD84FEADE0B019D0AEBCB1A3D
:101DA800002D73D00EF0070BC2444FF0010E0EFA4F
:101DB8000BFE9AF814B04EEA0B0E8AF814E0002FC6
:101DC8003FF47AAF90E7009D0CEB060EA5EB000AF6
:101DD800BAF17F0F3FF66DAFBEF13F0F3FF669AF27
:101DE8004FEADE0B019D0AEBCB1A002D6DD00EF0E9
:101DF800070BC2444FF0010E0EFA0BFE9AF814B00E
:101E08004EEA0B0E8AF814E000293FF454AFB7E706
:101E1800F1EE10FA7ED44A4674EEC54AF5EEC04A91
:101E2800F1EE10FA6CD4002135EEC55AB5EEC05A61
:101E3800F1EE10FA5AD4002775EEC45AF5EEC05ADE
:101E4800F1EE10FA3FF529AF0024002A3FF431AF34
:101E5800B9E798428FDB00233BE700BFAFF3008070
:101E68007A008BFCFA2109400000000000806640DF
:101E7800C2444FF0010B0EF0070E0BFA0EFE9AF853
:101E880014B02BEA0E0E8AF814E015E7C2444FF09E
:101E9800010B0EF0070E0BFA0EFE9AF814B02BEA9F
:101EA8000E0E8AF814E0002F3FF406AF1CE7C24478
:101EB8004FF0010B0EF0070E0BFA0EFE9AF814B055
:101EC8002BEA0E0E8AF814E0F7E6C2444FF0010B35
:101ED8000EF0070E0BFA0EFE9AF814B02BEA0E0E4F
:101EE8008AF814E000293FF4E6AE49E777EEE66A9F
:101EF800F5EEC06AF1EE10FACCBF012700279BE788
:101F080036EE666AB5EEC06AF1EE10FACCBF012172
:101F1800002189E776EE473AF5EEC03AF1EE10FA7D
:101F2800CCBF0122002277E70124002A3FF4C1AE8A
:101F380049E774EEC54A0122F5EEC04AF1EE10FAFF
:101F48007FF589AE35EEC55A0121B5EEC05AF1EEDE
:101F580010FA7FF591AE012797E6129306EE102A44
:101F6800139B5B421393DBE52DE9F04F89B09DF895
:101F78005050129C9DF84C700595002D40D0994208
:101F880021D89C46A2421BD87F29154694BF00231E
:101F98000123DFB9EE0805F007084FF0010E3F2DC9
:101FA80001EBC61675440EFA08FE07D806442BB98D
:101FB80096F8148028EA0E0E86F814E0AC42E9D2AE
:101FC80001318C45DED209B0BDE8F08FEE0805F08E
:101FD80007084FF0010E3F2D01EBC61675440EFAA7
:101FE80008FE07D806442BB996F814804EEA080E66
:101FF80086F814E0AC42E9D201318C45C2D2E2E75E
:10200800A3EB010EBEF1000FB8BFCEF1000E99424E
:10201800C0F09C817F2B94BF002501253F2A0195A4
:1020280094BF0026012635430796039540F0C483E4
:102038004FF0FF3BD50803EBC5150544002F00F012
:10204800978302F0070C0126994206FA0CF695F8D8
:1020580014C046EA0C062E754FF0000500F0C68342
:1020680001950795F04616468C46F508BCF17F0F9A
:102078000CEBC5150ED83F2E05440BD806F0070A01
:102088004FF0010909FA0AF995F814A049EA0A0972
:1020980085F814905FEA480518BFDC44AE4540F364
:1020A8008D81013EF044B242DFD16345DDD1002588
:1020B8000395A51AA24285EAE576A6EBE5763546AC
:1020C8000496C0F01C823F2CC5F1000A019D94BF04
:1020D800002601263543069640F07483E6084FF043
:1020E800FF3503EBC61601950644002F00F01E824B
:1020F8004FF0010E04F0070CA2420EFA0CFC96F801
:1021080014E04CEA0E0C86F814C000F06B8300252E
:10211800D146069594461E46554602924FEADC0E75
:102128007F2E4FEA450806EBCE1E0FD8BCF13F0FB5
:1021380086440BD84FF0010B0CF0070A0BFA0AFA89
:102148009EF814B04AEA0B0A8EF814A0B9EB450FB2
:1021580002DA049A013EAD1AB8F1000F01D0019AD3
:102168009444A3EB060A644508BFB342BAFA8AFA54
:102178004FEA5A1A00F0C181C845CFDC029A9B4643
:102188004FEADC0E7F2E0CF0070806EBCE1E0DD8AA
:10219800BCF13F0F864409D84FF0010909FA08F845
:1021A8009EF8149048EA09088EF814800DB1019B36
:1021B8009C446445E4D1BAF1000FE1D000255B46A8
:1021C8000595A1EB030CBCF1000FB8BFCCF1000CD6
:1021D8007F2994BF4FF0000B4FF0010B99428CBF41
:1021E8004FF0010E4FF0FF3EBBF1000F40F055825B
:1021F800069D002D40F05182E50801EBC515054408
:10220800002F00F0A8824FF0010804F0070608FA32
:1022180006F695F8148046EA08062E75039D15BB48
:10222800E0462646F5087F2B03EBC5150ED83F2E52
:1022380005440BD806F0070A4FF0010909FA0AF914
:1022480095F814A049EA0A0985F814905FEA480548
:1022580018BF7344AC4540F3E780013EE044B44204
:10226800E0D19942DED1A2EB040EBEF1000FB8BF57
:10227800CEF1000EA2428CBF01254FF0FF35CEF102
:10228800000CBBF1000F40F0B681079B002B40F01B
:10229800B281D30801EBC3130344002F00F0778207
:1022A80002F007070126BE401F7D3E431E75059BB1
:1022B800002B7FF488AE67460E468946E3087F2EDA
:1022C8004FEA470106EBC3130ED83F2C03440BD843
:1022D80004F0070A4FF0010808FA0AF893F814A066
:1022E80048EA0A0883F81480BCEB470F02DA013E7B
:1022F800A7EB0E0701B12C44A9EB0603A242B3FADF
:1023080083F34FEA531302D1002B7FF45CAE8C4564
:10231800D4DB9846E3083F2C04F0070C06EBC31304
:102328000AD87F2E034407D8012101FA0CF193F84B
:1023380014C041EA0C01197507B12C44A242E9D135
:10234800B8F1000FE6D009B0BDE8F08F3F2A4FF092
:10235800010B94BF002501257F2B079594BF00260C
:102368000126019615B9002E3FF464AE002F7FF4C4
:1023780079AEF04616468C46F508BCF17F0F0CEB9B
:10238800C5150ED83F2E05440BD84FF0010906F0AD
:10239800070A09FA0AFA95F8149029EA0A0985F849
:1023A80014905FEA480518BFDC44AE456EDD013E77
:1023B800F044B242E0D16345DED178E6951BB5FA28
:1023C80085F56D090295634514BF002505F00105E3
:1023D8000395002D7FF46BAE06F007094FF0010E50
:1023E8000EFA09FE4FFA8EFA4FEAD60E4FEACE15CC
:1023F8000495029D0292049ABCF17F0F0CEB020E29
:10240800864407D83F2E05D89EF814904AEA090951
:102418008EF81490B8F1000F00D0DC446345EAD17F
:10242800002DE8D0029A44E6A51B9942B5FA85F535
:102438004FEA5515019502D1002D7FF414AF06F02F
:1024480007094FF0010C0CFA09FC4FFA8CFA4FEA15
:10245800D60C4FEACC150295019D0192029A7F2B6A
:1024680002EB030C844407D83F2E05D89CF814903F
:102478004AEA09098CF81490B8F1000F00D07344A7
:102488009942EBD1002DE9D0019AECE6951BB5FAFB
:1024980085F56D090295634514BF002505F0010512
:1024A8000395002D7FF403AE06F007094FF0010EE7
:1024B8000EFA09FE6FEA0E0E4FFA8EFA4FEAD60EA2
:1024C8004FEACE150495029D0292049ABCF17F0F43
:1024D8000CEB020E864407D83F2E05D89EF81490C0
:1024E8000AEA09098EF81490B8F1000F00D0DC440C
:1024F8006345EAD1002DE8D094E7029A61E63F2CC3
:10250800C6F1000A94BF002501250695002D40F06C
:102518004C81019D002D40F04881E608012503EB20
:10252800C61601950644002F7FF4E2AD04F0070EAD
:102538004FF0010896F814C0A24208FA0EFE2CEAE1
:102548000E0C86F814C000F04581D14606979446D3
:102558001E46554602924FEADC0E7F2E4FEA45088A
:1025680006EBCE1E0FD8BCF13F0F86440BD84FF0B8
:10257800010A0CF0070B0AFA0BFB9EF814A02AEAD2
:102588000B0A8EF814A0B9EB450F02DA049A013E43
:10259800AD1AB8F1000F01D0019A9444A3EB060AD2
:1025A800644508BFB342BAFA8AFA4FEA5A1AA4D065
:1025B800C845D0DC029A9B464FEADC0E7F2E0CF011
:1025C800070806EBCE1E0DD8BCF13F0F864409D88C
:1025D8004FF0010909FA08F99EF8148028EA090859
:1025E8008EF814800DB1019B9C446445E4D1BAF186
:1025F800000FE1D0E2E5059B002B7FF4E4AC002F4F
:102608007FF459AE67460E468946E3083F2C4FEAE9
:10261800470106EBC3130ED87F2E03440BD84FF0A7
:10262800010804F0070A08FA0AFA93F8148028EA5D
:102638000A0883F81480BCEB470F02DA013EA7EBC7
:102648000E0701B12C44A9EB0603A242B3FA83F3A7
:102658004FEA531302D1002B7FF4B5AC8C45D4DB81
:102668009846E3087F2E04F0070106EBC3130AD847
:102678003F2C034407D84FF0010C0CFA01FC197DDC
:1026880021EA0C01197507B12C44A242E9D1B8F12D
:10269800000FE6D009B0BDE8F08F039D002D7FF450
:1026A800E2AD002F7FF4BCADE0462646F5083F2E8C
:1026B80003EBC5150ED87F2B05440BD84FF0010945
:1026C80006F0070A09FA0AFA95F8149029EA0A099D
:1026D80085F814905FEA480518BF7344AC4507DDD8
:1026E800994206F1FF36E044E0D1B442DED1BAE5C2
:1026F800A51B9942B5FA85F54FEA5515019502D102
:10270800002D7FF4B0AD4FF0010C06F007090CFA6C
:1027180009FA4FEAD60C6FEA0A0A4FEACC154FFAC3
:102728008AFA0295019D0192029A7F2B03EB020C13
:10273800844407D83F2E05D89CF814900AEA090962
:102748008CF81490B8F1000F00D073449942EBD183
:10275800002DE9D098E6012604F0070806FA08F8E3
:102768002E7D26EA08062E75039D002D9CD07AE55D
:1027780002F007064FF00108994208FA06FC2E7D80
:1027880026EA0C062E7528D001970797F1E5012651
:1027980002F0070706FA07F71E7D26EA07061E75E8
:1027A800059B002B3FF42EAF0DE401250195D14682
:1027B800002F7FF4AFACCAE699423FF47AAC4FF0F1
:1027C800FF3BD3E5A24203D04FF0FF350195EEE77A
:1027D8000595F6E4CDE90587F3E4CDF80C80079775
:1027E800019766E40025CDE90575EAE407950397A6
:1027F80001955EE4F8B5234B234C93F840252678E1
:102808001AB193F846257F2A33D033461F4F204DFF
:1028180039781C48237001F017FD2978194801F010
:1028280021FD2378B3420ED007EE903A19490123CF
:102838001948F8EE677A194A2B700360C1ED007ADF
:1028480000211160F8BD2A78002AFBD012491348EC
:102858000A68013A0A60002A016801F1FF31016043
:1028680001DA00222A700029ECDA83F001033B70B8
:10287800F8BD93F82625FF2A0CBF334686F00103DE
:10288800C4E700BF38990024E88400241400002419
:1028980064300524C08400249C70072498700724A1
:1028A8002DE9F04F4FF4806200219BB0C44814F02A
:1028B80079FFC44BD3E900211C7C0878497802EBE6
:1028C80000105D7C02EB011190F8462591F8461541
:1028D800A2F1FF02A1F1FF01B2FA82F2B1FA81F18D
:1028E8005209490984EA02001A745974987481EAF1
:1028F8000500D8745869461C00F08E82944240F056
:102908003A81A94240F04481DFF8F8A2DFF8F8B232
:10291800DAED007A0023AC4AB8EEE77B099392ED32
:10292800000A0AAA8DF82830B5EE400A089210AAC3
:102938008DF840301593F1EE10FA8DF858309FED70
:102948009C6BCDE90E2316AB27EE067B1493FDEEA8
:10295800C77B17EE908A00F1A782B1EEC07ADFED4F
:102968009B6A9B4B9B499C4EB4EE667A91ED006A3C
:10297800F7EE007A994D9A4F06F58059F1EE10FA64
:1029880048BFB0EE667AD3ED006A964B77EEE67AEA
:102998001B6867EE867ADB6A05EB4335E6EE877AD5
:1029A800C1ED007A65E016EE103A621CA8EB03034D
:1029B8003F2B94BF002001207F2A11D880B94FEA0D
:1029C800D30C03F0070E02EBCC124FF0010C5A4463
:1029D8000CFA0EFC92F854E04CEA0E0C82F854C043
:1029E800621E7F2A0FD870B9D80803F0070C02EBD3
:1029F800C01201205A4400FA0CF092F854C040EA80
:102A08000C0082F854007F2C03F1010094BF4FF0B2
:102A1800000C4FF0010C3F2811D8BCF1000F0ED16B
:102A2800C20800F0070E012004EBC21200FA0EF0F3
:102A38005A4492F854E040EA0E0082F85400013BF0
:102A48003F2B10D8BCF1000F0DD1DA0803F00703B3
:102A580004EBC21401225C4402FA03F394F85420F4
:102A6800134384F85430B14507F1010705F1040513
:102A780043D0F6EC017AFDEEE77A17EE904A002C87
:102A8800F1DB594B1B68A34237DD05F58053D5EDC3
:102A9800007A93ED000A20EE000AA7EEA70AB5EE29
:102AA800400AF1EE10FA00F1F981B1EEC06ADAEDF0
:102AB800007A91ED005A3B78B8EEE77BB7EEC66A2C
:102AC800B7EEC55A9FED3C4B27EE047B27EE067BFD
:102AD80087EE056BBDEEC66B002B7FF464AF16EE78
:102AE800103A7F2CA8EB0303BDD83F2BADD9B145D5
:102AF80007F1010705F10405BBD13C4A3C491346DF
:102B0800D2ED287A9FED3B7A53F8404BD2F88020DB
:102B180067EE877A1B6838480B60384B04601A6088
:102B2800374BC3ED007A9BF82635FF2B00F0628106
:102B38009BF8183523B1DBF83835002B40F07F813E
:102B4800149816AB984203D01699013112F079FE09
:102B58000E9810AB984203D01099013112F071FE13
:102B680008980AAB984203D00A99013112F069FE1D
:102B78001BB0BDE8F08FDA68125C0AB9A9420BD025
:102B88004FF0FF32DFF87CA0DFF87CB05A61BFE677
:102B9800DA68125C012AF3D1072800F1010235D066
:102BA800DFF860A0DFF860B05A61B1E6AFF30080EB
:102BB800CDCCCCCCCCCCEC3F9A9999999999E93F5A
:102BC8008C99002478700724BC840024F3043542CF
:102BD800280000242C0000246C30052464300324D1
:102BE8003895002490700724A4700724989D002429
:102BF800747007240000484268300524B884002413
:102C080094700724F4940024389900244FF0FF347A
:102C18004FF480620021AA485C6114F0C3FDA94802
:102C280001F086FEDFF8CCA2A74B0022BAF900100B
:102C3800B3F9000021EAE171A44B20EAE07013F82F
:102C4800014B0132002CFAD1A14D4423A14C6F78DD
:102C580002942C786D68DFF86CB20795A5B20697D8
:102C680012FB05F67A08049536B2CDF814A0C2EB2B
:102C7800610226EAE67692B27610C6EB6006B6B234
:102C88007F2E28BF7F263F2AB64628BF3F22ABF8B3
:102C980044600392ABF846200EEB0402802A6DDCF8
:102CA800039A06990A44402A68DC00294FD0203B41
:102CB80001FB03F3002C4AD0079A6FF00048DDF8B7
:102CC8000CC09844A2F1020A0B4402EB48080AEB34
:102CD800430A0EF1540301930CF0070301264FEA4F
:102CE800DC02BCF13F0F06FA03F6BDF8043038F8F1
:102CF800025F714603EBC21298BF002776B288BF05
:102D080001275A4400236FEA06090AE07F2903D8FD
:102D180017B91078304310700133013201319C42E9
:102D280011D005FA03F00004F0D47F29F4D8002F5D
:102D3800F2D1107801330132013109EA00009C42D6
:102D480002F8010CEDD1C2450CF1010CC4D1049B71
:102D5800029A9E4412F8013F1FFA8EFE0292BEF1BB
:102D68007F0F039A28BF4FF07F0EABF84620ABF8D1
:102D780044E01BB1A3F120025E2A8DD9DDF814A02E
:102D8800B0244F4E002554488DF850400134294650
:102D980003F032FF6423012214A95048E4B205F07D
:102DA80045FE29464C488DF8505003F025FF012276
:102DB800642314A9494805F039FE102329464648DA
:102DC8008DF8503003F018FF6423012214A94348FA
:102DD80005F02CFE0121404803F00EFF8022314609
:102DE80064233E48164405F021FEB82CCAD106F0EB
:102DF80095FF8DE59BF818250AB1DBF83825384B87
:102E0800384918680B6800FB0233322B10DC13F1C9
:102E1800320F38DB0B6093E69868067896427FF4A9
:102E280073AD407888427FF46FAD0020586165E546
:102E3800643B2D4A0B6013680133136080E629490F
:102E48000A683AB303FB02F20020002A264A086007
:102E5800D8BF002311680B4407EE903AB2EE081B66
:102E6800B0EE000B1360B8EEE77B9FED136B37EE07
:102E7800067B87EE011B12F073FF1C4BB7EEC00BED
:102E880083ED000A5CE66433174A0B601368013B64
:102E9800136055E6144A11680B44DDE713F094FCFF
:102EA8001349B0EE406A02E613F08EFCB0EE407AA9
:102EB80055E500BFAFF300800000000000000000EF
:102EC8008C99002438990024A4700724C57A010835
:102ED800A0030024C47A010888990024809900245A
:102EE80020000024F0840024A0700724240000247B
:102EF8002C000024F49400242DE9F043BC4E83B048
:102F0800BC4D0121741E06F2FF37C6F10106BA480E
:102F180001F08AFA3319DFEDB96AF6EE007A4FF05C
:102F2800000807EE103ABAEECB7A9FEDAB0B27EE0E
:102F3800267A27EE277AB7EEC77A87EE000B12F0CB
:102F480083FD04F8018FBC42B2EE086B9FEDA47BB1
:102F5800A0EE067BB7EEC77BA5EC017ADAD1A84BC9
:102F68004FF07E520021A7481A609A62A64A196259
:102F7800DA605A615A63DA63A44AA5499A60A54A95
:102F880059601A63A44A5962D962D9611861986371
:102F980054209A6112F057FCA04AA14B026043608A
:102FA800A04AA14B8260C360A04AA14B0261436161
:102FB800A04AA14B8261C361A04AA14B026243624D
:102FC800A04AA14B8262C362A04AA14BA14D0263F1
:102FD8004363A14AA14B28608263C36380F8508091
:102FE800302012F030FC9E499E4B04462A68DFF8D8
:102FF800B492026108224E46C0E900139A499B4BDD
:10300800C0E902134FF4807362614020C4F82C8039
:10301800A36112F029FC03464020E36112F024FC6E
:10302800402241462062E06914F0BCFB4022414640
:10303800206A14F0B7FB1020D4E906325942A3EBFA
:103048008305C2E90081C3EBC371D5604900916073
:10305800C3EB837189001161C91A5161C3EB4371D4
:10306800C9001162C91A5162A3EBC301D1614900B9
:1030780091636FF0090103FB01F191626FF00A019E
:1030880003FB01F1D1626FF00C0103FB01F1A3EB2B
:103098000313D3636B00AD00516393611563B025CF
:1030A80012F0E2FB6062102012F0DEFB636AA0629D
:1030B8004FF00132C3F800804146C3F80480484607
:1030C800C3F80880C3F80C80A36A1A605A609A6033
:1030D800DA604FF48062664B1C6014F063FB0024D6
:1030E80064488DF807500135214603F085FD6423B7
:1030F80001220DF107016048EDB205F097FC214669
:103108005C488DF8074003F077FD012264230DF138
:103118000701594805F08AFC1023214655488DF8C7
:10312800073003F069FD642301220DF107015248BD
:1031380005F07CFC01214F4803F05EFD80223146FA
:1031480064234D48164405F071FCB82DC7D14B4B8C
:1031580080224FF4807128481A604022484B494F1A
:103168001A6001F031F8484B2348197801F07AF8D1
:10317800464B2148197801F067F806F057FF07EE2B
:10318800900A9FED437AF7EE006AF8EE677A414BB2
:10319800414A194867EE877A9A61012286EEA77A32
:1031A8001A703E4ADA601A615A6183ED017A01F0B9
:1031B8002BF83B49104801F005F806F037FF07EEF9
:1031C800900A3B78B8EE677B9FED075B87EE056B4F
:1031D800FCEEC67B68E000BF0000000000807B407A
:1031E80000000000004051400000000000006E4058
:1031F800389500246C3005243899002400803B471A
:10320800F8940024000080BFF30435BF32318D24C8
:10321800F304353F32310D25CAC953A55E836C3F8F
:1032280016EFC33EBE147B3FC2C5473E6DC47E3F0A
:1032380036BDC83D0FB17F3F30FB483D43EC7F3F73
:10324800B00AC93C11FB7F3F900E493CC4FE7F3F4A
:10325800880FC93BEC840024B1FF7F3FC60F493B70
:10326800290D000860300124643003246C700524A3
:10327800907007248899002480990024A47007245A
:10328800F49400247070072464300524140000248A
:103298003EC3AE3BCC840024CFCE043D0000C07FAB
:1032A800513700088C99002417EE908A002B45D0DE
:1032B80063074BD14E46B024002525488DF80740BA
:1032C8000134294603F098FC642301220DF107011B
:1032D8002048E4B205F0AAFB29461D488DF807509E
:1032E80003F08AFC012264230DF10701194805F057
:1032F8009DFB1023294616488DF8073003F07CFC07
:10330800642301220DF10701124805F08FFB01210A
:103318000F4803F071FC8022314664230D4816449F
:1033280005F084FBB82CC7D10B48012400F0B4FF8A
:10333800404606F0EDFC3B78002BB9D1FFF75AFA6E
:10334800FFF7AEFA01233B706307B3D00134EFE710
:103358008899002480990024389900242DE9F04F99
:10336800002300F5005781460D4692462DED028B4D
:1033780087B0BB61F0EE408A0493B0EE608A8B6838
:103388000DF10808002B54D00222404698476E469B
:1033980007F11004D7F818B098E80300D5E902320D
:1033A80086E8030094E8030088E8030096E8030031
:1033B800CDF810B084E80300F969BB61FA610591A2
:1033C800BBF1000F04D0032241464046D847AB6802
:1033D80087F808A00024CA46C7ED008A87ED018A4D
:1033E80006EE904AB7EE007AFAEEEA6A68EE267AB6
:1033F80037EE667AE7EE287ACDED007A33B30134FA
:10340800EB68314628469847B4F5006FAB68AAECDC
:10341800010AE5D18DED028AC3B12846EB68414621
:103428009847484687ED030A07B0BDEC028BBDE814
:10343800F08F98E803006E46059A07F1100486E8B5
:10344800030084E80300C7E90632C1E712F00EFA68
:103458002DE9F04F84680023426891B0D0F810B08D
:1034680004EB413002EB413A1A4600F110010F908B
:10347800184601E07A5D735D43EA02231031043097
:10348800AE4D5B11B0F5006FC7B24FEA83020AEB8D
:10349800830302F5805C02F50064D3ED007A02F53F
:1034A800C052D444544452444FEA10269CED007A4A
:1034B80077EEC77A41ED077A92ED007AD4ED007A7B
:1034C80077EEC77A41ED057AD2ED006AD3ED007A3E
:1034D8009CED006A94ED007A77EE867A37EE267ACC
:1034E80077EE876A77EEC77A41ED086A41ED067A8A
:1034F800C0D10F9952460B4601F5005093ED007A62
:103508002032D3ED046A2033DFED8D7A37EE267A48
:10351800984202ED087A53ED046A13ED087A37EE03
:10352800667A02ED047A53F8181C42F8181C53F80E
:10353800081C42F8081C13ED016A13ED037A53EDD9
:10354800076A37EE467AE7EE276A42ED076A53EDD7
:10355800076AE7EE676A42ED056A13ED037A13ED31
:10356800016A53ED056A37EE067AE7EE276A42EDFF
:10357800036A53ED056AD7EE276A42ED016ABDD1A9
:103588000BF10403CDF818B0CDF838A005930F9BC4
:103598000D9303230D9F0C930C99042201234FF0E4
:1035A800000A02FA01F58B40690007EB050E5A0084
:1035B80008955C08043909922A1DA0000A9107EBB6
:1035C800840602EB84010E9CDB0004EB0108011D5C
:1035D8000438224404EB0109391D0B9020460430BD
:1035E80012ED017A744650ED017AC446CDF8009088
:1035F80077EE877ACDE902E141ED017A50ED017A63
:1036080012ED017A77EEC77AE4EC017A59F8045C96
:1036180004943560089D58F8047C75192F60074696
:10362800059D55ED017A069DCBED127ACBED107A0A
:10363800D5ED016A0A9DCBED136A0D44CBED116AF5
:1036480001950B9D1544079515469CED007AD5ED1F
:10365800005A26EEC77A97ED006A039CA5EEA77A72
:1036680037EE066AA4EC016AB7EC016A039436EEF9
:10367800477A029C24ED017ABCEC017AF5EC015AF8
:1036880067EE877A0294009CE5EEA67A94ED006ACC
:10369800049C37EE867AA4EC017A0494009CB4EC7E
:1036A800017A77EEC77A0094019C64ED017ADBED2C
:1036B800116ADBED125A9BED137A9BED106A67EEE7
:1036C800667A019465EEA66A079CE6EE257AA5421D
:1036D800E6EE076ACBED107ACBED116AB5D1099CFD
:1036E8009E441E441A44A244984418441944BAF506
:1036F800006F9944FFF474AF069A0C9B08320133AB
:103708000692059A0B2B0C9302F10802059205D03C
:10371800DDE90D231F46CDE90D323DE70F9B0D99DD
:103728008B4207D04FF40052184611B0BDE8F04F55
:1037380014F01EB811B0BDE8F08F00BFCC7A0108B4
:10374800F304353F000000002DE9F04F2DED028B0A
:1037580099B0B64D0446CDE9161206F0D1FAB44B2D
:1037680098602B78002B40F0A783179B002B00F064
:10377800AF83013B169A129423F00103119204328D
:103788000233109202221593AA4B13921B7800223F
:10379800109907EE903AB7EE007A41F8042C119987
:1037A800F8EEE76A4A60A44A1299D2ED007AA34A71
:1037B80037EE677A91ED008AD2ED005AA04967EE9C
:1037C800A57A91ED006AE7EE267A28EE068AC2ED20
:1037D800007A9C4AC1ED007A126854690D92620021
:1037E8001492002A00F0628300230A9327E0F5EE82
:1037F800C07AF1EE10FA00F10A83B7EE007AF4EE1F
:10380800C77AF1EE10FA3FDBD2ED037A0D9A68EE33
:10381800277A0A9C526803EBC42402EB8402C2EDA7
:10382800007A0133B3F5006F835100F051810D9B8D
:103838005A6952000A9B01339A420A9360D90D9C37
:103848000A9BA16AC85C19440028F3D0E0699E006D
:1038580050F82330002BE4DB7B4D07EE903ADFED88
:103868007B5A05F50052F8EEE77AD2ED006A92ED40
:10387800017AB0EE666A147A37EE667A97EEA56A30
:10388800C6EE077A002CB2D09FED716AB7EE007AC7
:1038980077EE877AFDEEE76AF8EEE66A77EEE67A83
:1038A80067EE867AFDEEE76A16EE902A5442C2F376
:1038B8000A02C4F30A0458BF624206EE902A541C56
:1038C80005EB8202F8EEE66A674277EEE67AFDEEED
:1038D800E76AF8EEE66A77EEE67AD2ED006AC4F3B4
:1038E8000A02C7F30A0458BF624237EE677A05EB4B
:1038F800820292ED006A67EE867AE6EE877A85E7BD
:10390800504B18684469620000F010834E4D002344
:10391800416A05F500569FED4F6AD5ED003A013929
:10392800D6ED005AD6ED014A96ED034A23E0F5EEAE
:10393800C07AF1EE10FA00F1C880B7EE007AF4EE22
:10394800C77AF1EE10FA30DBF0EE447A426804EB05
:10395800C32E013402EB8E02B4F5006F92ED007AAB
:1039680047F80C40A7EE276A76D044696200013315
:103978009A4240F27F8011F8017F002FF7D0076A42
:1039880034EEE57ADFED317A4FEA830C57F82340BD
:10399800327A06EE904AB8EEE65AF0EE656AD5EE4F
:1039A800276AC6EE877A002AC1D09FED295AB7EE5A
:1039B800007A77EE877AFDEEE76AF8EEE66A77EE48
:1039C800E67A67EE857AFDEEE76A16EE902AD2F17E
:1039D800000EC2F30A02CEF30A0E58BFCEF100025F
:1039E80006EE902A02F1010E05EB8202F8EEE66A75
:1039F800DEF1000877EEE67AFDEEE76AF8EEE66AB1
:103A080077EEE67AD2ED006ACEF30A02C8F30A0E20
:103A180058BFCEF1000237EE677A05EB820292EDCD
:103A2800005A67EE857AE6EE877A8FE7707007248A
:103A3800CC840024E884002408000024100000241A
:103A48000C00002490700724380400240000003A79
:103A58000000004500000000846A01270022E754A6
:103A68000133C4690A7044F80C20446904FA07F267
:103A78009A4280D8BD4BB7EEC66A1B78002B00F07F
:103A8800C981E402119A139907EE104ABBEEEF7B45
:103A980086EE075BB7EEC55B82ED015A109A02ED20
:103AA800015A159A8A4200F0C081119A881C08327E
:103AB8001192129A08321292109A08321092149A9D
:103AC800002A00F03882139061E6F0EE637A3DE751
:103AD8000D9C00230A9D606A226A0B7001214155E2
:103AE800294693512046FFF7B3FCE168A06801EB33
:103AF8004531236800EB45309847E2686B03D4F8FA
:103B080010A0D6186268CDF814A002EB03090A23A6
:103B18000F9649460B93CDF83090CDF838900B9A14
:103B280001240423944003FA02F06300620807901A
:103B38000893031D06EB820B01EB820506EB0308D5
:103B480003EB8202CB18E400D9468A18029343009B
:103B5800049501920A1D099300230392069318ED18
:103B6800017A3346D6ED007A039F77EE877A029A78
:103B78000799049D47ED017A18ED017AF3EC017A73
:103B8800019877EEC77ADDE901EC42ED017A0BEB9B
:103B98000102DBED007A77EEA77AE5EC017AD2ED47
:103BA800007A059A77EEA77A40ED017A8819926B28
:103BB8000599CAF84820CAF84020CA6B0999CAF87A
:103BC8004C20CAF844207118424693ED007A70EDF3
:103BD800017A77EE877AE7EC017A31ED017AD2ED56
:103BE800007A77EEC77AE5EC017AB3EC017AD0ED8A
:103BF800005A91ED006A9945F2EC016A37EE657A50
:103C0800DAED117A76EE866ADAED105A27EE676AEF
:103C180067EEA67AA5EEA66AE5EE877AECEC017A5D
:103C2800AEEC016ADAED117ADAED126ADAED135ABE
:103C380026EEA77A9AED106A65EEE77AA6EE257A5F
:103C4800E6EE267A8AED117ACAED107ABDD1069B86
:103C58002644089AA344A044A1441344049A224445
:103C6800B3F5006F06930492039A22440392029AD2
:103C780022440292019A22440192FFF470AF0E9BF3
:103C88000C9A93420CD00B9A0599013A0839022AEA
:103C98000B92059100F0B1800F9E19460C933EE7F8
:103CA8000B9B059A013B083A022B0B93059204D013
:103CB800DDE90E6319460C9331E7DDE90E934B45B8
:103CC80000F031814B460F9A09F50051D3ED047A83
:103CD800203313ED087A20329FED256A37EE277AD4
:103CE80002ED087A53ED047A13ED087A37EE677A15
:103CF80002ED047A13ED067A37EE077A02ED067ABA
:103D080013ED027A37EE077A02ED027A53ED057A5F
:103D180013ED077A37EE277A02ED077A53ED017A29
:103D280013ED037A37EE677A02ED057A53ED077AD9
:103D380013ED037A53ED056A53ED015A994277EE74
:103D4800E66A77EE257A36EEA77A77EEE67A27EEF8
:103D5800067A67EE867A02ED037A42ED017AB5D1EA
:103D680000230F991C461031184605E0E88400240A
:103D7800F304353FA45C9B5C11ED026AF0EE006A27
:103D880051ED047A43EA042351ED035A043037EE27
:103D9800867A5B1177EEC67A11ED016A9A00B0F562
:103DA800006FB0EE475A09EB8303A5EEE67A02F5F9
:103DB800805502F5006402F5C052A5EEA65A4D449E
:103DC800F0EE675A4C44E6EE667A4A4401F1100177
:103DD800E6EE265A83ED005A4FEA102385ED007A65
:103DE800C4ED005AC4B2C2ED007A754AC2D10D9B27
:103DF8000A9ADA625A6952001CE5994618460F9BDE
:103E080019460C934FF4005213F0B2FC5AE7D5ED63
:103E1800007AFBE4002211994A60109941F8042CB9
:103E2800159A13998A427FF440AE07EE903A002122
:103E38006448B8EE670A00F01FFA634B634A93EDD3
:103E4800006AD2ED057AB4EEE76AF1EE10FA30DCDA
:103E580077EEC67AB7EE005BB7EEC66AB7EEE77ADA
:103E680035EE465B87EE050BB7EEC00B01215548D2
:103E780000F002FA05F044FF54498A6891ED017A8E
:103E8800821A0B7807EE902AF8EE677A67EE877A3F
:103E98000BB30023C1ED057AC1ED037AC1ED047AB5
:103EA8000B7019B0BDEC028BBDE8F08F9FED426B33
:103EB800E4E59FED470AD9E7424800F0A9F94148EF
:103EC80000F0B2F900232B70179B002B7FF451AC44
:103ED800404B1B78A9E73D4B93ED047AF4EEC77A83
:103EE800F1EE10FAC8BFC3ED047A384B93ED037AAC
:103EF800F4EEC77AB7EE007AF1EE10FA48BFC3EDD8
:103F0800037A324BD3ED066A93ED056A37EE667A8B
:103F180027EE067AA7EEA67A83ED057A19B0BDECEE
:103F2800028BBDE8F08F18460C996BE7294B9FED83
:103F3800226B1B78A2E5284A07EE903A169C126875
:103F4800F8EEE76A04EB810155690A460431ED028F
:103F58000024224EB7EE007A214F41F8044C5460F9
:103F6800D6ED007A1F4E37EE677A96ED006A67EE57
:103F7800867A9FED114BE6EE877AC7ED007AC6ED9B
:103F8800007A9BB105EE105ABBEEEF5B84EE057B21
:103F9800B7EEC77B82ED017A01ED017A179C0832F2
:103FA8000831844200F10200D2D83EE7546041F85B
:103FB800044CF3E7AFF300800000000000000000AD
:103FC800CC7A01083899002418000024CC840024F5
:103FD80000000000E88400249070072408000024F2
:103FE8000C000024100000245B4BF7EE000A5B482D
:103FF80001229FED5B0A30B585B0CDE902306946F4
:104008005848FFF7ABF9029B1BB103226946684683
:104018009847554A5549534811F00EFC544B55489A
:10402800F7EE000A01229FED4E0A6946CDE90230FB
:104038005148FFF793F9029B1BB103226946684672
:104048009847494A49494C4811F0F6FB4B4B4C48B4
:10405800F7EE000A01229FED420A6946CDE90230D7
:104068004848FFF77BF9029B1BB103226946684663
:1040780098473D4A3D49434811F0DEFB424B4348CF
:104088000022DFED430A69469FED420ACDE902307E
:104098004148FFF763F9029B1BB1694603220846B2
:1040A80098473E4C0025304A30493B4811F0C4FB44
:1040B8003B4B04F29450256065612562A564C4E910
:1040C8000F5302F017F8374904F510434FF60B72F7
:1040D800C4F84D160721A3F8F426204684F8511693
:1040E80004F26461C3F8F856C4F8541640F201119A
:1040F800C3F8FC56C3F80057A3F80C27C4F85816A1
:10410800C3F81057C3F81457C3F81857164A264966
:10411800C4F8A455C4F85C56C4F8605611F08CFB7A
:104128002249234A234B12780978234819705A7078
:104138009970D97099711A715A71DA710170427057
:104148001E491F4AC2E902134FF0FF331460506042
:104158005582536105B030BD510C0008D90C0008D8
:10416800000000005824002400000024810C0008EE
:104178005D0C0008A10C000838040024690C000834
:10418800010D000898640024750C00083910000817
:104198000000C8420000C8C27844002438990024AE
:1041A800D47B010880707F0F310C00083404002490
:1041B80004000024C48400245C30012460300324FB
:1041C8007870072400F0B0BB70B5054600F0D0FB4E
:1041D80005F2544405F21456284600F0E5FB204643
:1041E800203401F093FEA642F6D1284600F0DCFB0D
:1041F80005F26C53284605F5B16583ED000A00F019
:10420800D3FB85ED000A70BD183002F0F7B900BF86
:1042180038B500F2544400F214552046203401F019
:1042280051FEAC42F9D138BD10B5044600F23C50FD
:1042380001F094FF04F24C5001F090FF04F2145086
:10424800BDE8104001F0BEBE02460B4649F2F460DC
:1042580081F0010102F5104C10448CF8083702F087
:10426800D7BB00BF034649F20C7003F5104218444F
:1042780082F8201702F0CCBB012904D940F25C5126
:10428800084401F001BFC1EBC101890001F25C5192
:10429800084401F0F9BE00BF10B5044600F25C50B6
:1042A80001F004FF04F5AF60BDE8104001F0FEBE68
:1042B800F0B5A5B006460F20002400F01FFBADF8AE
:1042C8000C000222039909A806F1180701F074FFEF
:1042D800102000F013FBADF81000022204990DF134
:1042E800360006F2544501F067FF112000F006FB86
:1042F800ADF814000222059912A801F05DFF122002
:1043080000F0FCFAADF81800022206990DF15A00E7
:1043180001F052FF132000F0F1FAADF81C00022260
:1043280007991BA801F048FF142000F0E7FAADF840
:104338002000022208990DF17E0001F03DFF0423C0
:10434800062209A9384601F04BFFE1B2384602F0CF
:104358006BF9014630460134019100F025FB00233A
:104368002846DFED050A203501991A4601F078FD47
:10437800062CEAD125B0F0BD6F12033B2DE9F043BE
:1043880095B004464FF0020901AD04F2A45828463E
:1043980001F0B0FE1E2000F0B1FA03461D20ADF872
:1043A800083000F0ABFA0DF1140E04F2945CADF88D
:1043B8000A00CDF8449095E80F008CE80F008EE8CD
:1043C8000F00012309ADD4F89C754FF0000E0F9330
:1043D800129347F61223D4F8A0651393CDF840E062
:1043E8009CE80F0085E80F00BDF828300E90C4F84F
:1043F800A875C4F8AC65ADF83630BDF82A30ADF80C
:10440800343026B132467146384613F0CBF90DA93F
:10441800404605F0F9F904F5B76001F07FFE15B0E4
:10442800BDE8F083000000002DE9F04F0446ADB070
:1044380000F07AFB204604F21457FFF739FF0320F7
:1044480000F05CFA0346022004F25445ADF81C3033
:1044580000F054FA034604202E46ADF8203000F050
:104468004DFAADF8240038469FEDF30A099BDDE9C3
:10447800071201F077FD062000F040FA03469FED91
:10448800EE0A04F23C50ADF81430059901F04CFEE8
:10449800052000F033FA03469FEDE70A04F24C507A
:1044A800ADF81830069901F03FFE162000F026FA04
:1044B800ADF80C009FEDE10A0022039904F25C506C
:1044C80001F0BEFD172000F019FAADF810009FEDBD
:1044D800DB0A0022049904F5AF6001F0B1FD204623
:1044E800FFF74CFF0321204600F026FA204600F093
:1044F8005BFA3046203601F009FDBE42F6D104F2DF
:104508006C56204604F5B16900F04EFA204686ED57
:10451800000A00F049FA1021204689ED000A00F04F
:1045280027FA204600F040FA2846203501F0EEFC34
:10453800BD42F6D1204649F2F46800F035FA20462B
:1045480086ED000A002500F02FFAA044BC4B01229A
:1045580089ED000A404619682B460095012602F0AD
:1045680065F949F20C77B74B04F51049324638190A
:1045780019682B4600950DF1280A02F057F94046B4
:10458800294689F8086702F043FA2946381989F854
:10459800205702F03DFA092000F0B0F903460B203D
:1045A8002746ADF8503000F0A9F90E960DF1580CD9
:1045B800ADF852000DF1840EE346A14604F1480817
:1045C8009BA3D3E90023CDE91055CDE90A230022A6
:1045D8000023CDE90C2302230822CDE912330F92E0
:1045E800BAE80F00ACE80F00BAE80F00ACE80F001B
:1045F8009AE807008CE80700BBE80F00AEE80F0058
:10460800BBE80F00AEE80F009CE807008EE8070043
:10461800BDF8AC3084F8526027F8503F384602F0B5
:1046280001FABDF8AE3084F84E6029F84C3F484690
:1046380002F0F8F921A9404604F070F929464846E5
:1046480002F0DAFA0A2005F061FB3146484602F02A
:10465800D3FA0A2005F05AFBAE23294638468DF8CE
:104668000B3002F0C9FA32460DF10B0164234046C3
:1046780004F0DCF9D523294638468DF80B3002F0D2
:10468800BBFA32460DF10B016423404604F0CEF923
:104698008023294638468DF80B3002F0ADFA3246B1
:1046A8000DF10B016423404604F0C0F9A823294604
:1046B80038468DF80B3002F09FFA32460DF10B01A7
:1046C8006423404604F0B2F93F23294638468DF862
:1046D8000B3002F091FA32460DF10B01642340468B
:1046E80004F0A4F9DA23294638468DF80B3002F095
:1046F80083FA32460DF10B016423404604F096F923
:104708001223294638468DF80B3002F075FA3246E6
:104718000DF10B016423404604F088F9D3232946A0
:1047280038468DF80B3002F067FA324664230DF1F3
:104738000B01404604F07AF9294638468DF80B50AB
:1047480002F05AFA32460DF10B016423404604F098
:104758006DF94023294638468DF80B3002F04CFAA3
:1047680032460DF10B016423404604F05FF9A6239D
:10477800294638468DF80B3002F03EFA32460DF1E4
:104788000B016423404604F051F9A4232946384616
:104798008DF80B3002F030FA32460DF10B0164232C
:1047A800404604F043F98D23294638468DF80B30EE
:1047B80002F022FA32460DF10B016423404604F060
:1047C80035F91423294638468DF80B3002F014FACF
:1047D80032460DF10B016423404604F027F9A1236A
:1047E800294638468DF80B3002F006FA32460DF1AC
:1047F8000B016423404604F019F9C82329463846BA
:104808008DF80B3002F0F8F932460DF10B016423F4
:10481800404604F00BF98123294638468DF80B30C1
:1048280002F0EAF932460DF10B01642340460BE031
:10483800060B0B000105060A0000000000007A4480
:10484800087C01080C7C010804F0F0F88F23294645
:1048580038468DF80B3002F0CFF932460DF10B01D6
:104868006423404604F0E2F8D923294638468DF8F7
:104878000B3002F0C1F932460DF10B0164234046BA
:1048880004F0D4F82523294638468DF80B3002F079
:10489800B3F932460DF10B016423404604F0C6F823
:1048A800DB23294638468DF80B3002F0A5F932464D
:1048B8000DF10B016423404604F0B8F8342329466F
:1048C80038468DF80B3002F097F932460DF10B019E
:1048D8006423404604F0AAF8AF23294638468DF8E9
:1048E8000B3002F089F9642332460DF10B01404682
:1048F80004F09CF82DB0BDE8F08F00BF202882B0EE
:1049080009D8084B03EB400213F81030507843EAFB
:10491800002002B0704701230C2043EA002002B0B7
:10492800704700BF107C0108143001F061BA00BF65
:10493800143001F073BA00BF38B500F1140504460D
:104948002DED028B284601F00FFA284601F008FAEF
:104958002846B0EE408A01F0F1F9D0ED007AF8EE81
:10496800677A88EE277ABDEC028B84ED0E7A38BD23
:1049780038B500F1140504462DED028B284601F0E8
:10498800E1F9284601F0ECF92846B0EE408A01F03A
:10499800D5F9D0ED007AF8EE677A88EE277ABDEC83
:1049A800028B84ED0E7A38BD90ED0E0A704700BF79
:1049B80010B540F203338EB000244FF60B7240F26C
:1049C8000341ADF8083009A80123ADF81020ADF86F
:1049D80024202246ADF80C100094029907940C94F8
:1049E800CDE90544CDE90A4401F020FF04A80123DC
:1049F80022460399009401F019FF09A801F0FCFF71
:104A080010B901200EB010BD04A801F0F5FFA042B6
:104A18000CBF022020460EB010BD00BF2DE9F041AA
:104A280003239AB0012700240646CDE914373B4BEF
:104A3800CDE9104340F20453CDE91647ADF84830AC
:104A4800FFF7B6FFB842054625D0022845D040F604
:104A58000132334B0DF12C081894ADF82C200B982B
:104A68001997CDF84A3000F0D7F810A906F13C00A4
:104A780003F00AF8302003224FF07E5341460D938D
:104A88000E93CDE90B02F26B06F1140001F01EF94A
:104A98001AB0BDE8F0811023214A06A906908DF8C6
:104AA80028300DF12C081F4BCDF84A2007930294AB
:104AB800CDE91804CDE9080402A802F01DFA08237C
:104AC800029A03A94046ADF80C508DF80E400495A3
:104AD80005930B9400F0E0F8C7E700200121104B84
:104AE8000DF12C083A460094CDF84A304FF60B7376
:104AF8000C94ADF82C302346CDE9180140F601316D
:104B08004046ADF818100699CDE90D4401F08EFE27
:104B18002146404601F07CFFA7E700BF04020404D9
:104B2800040604030704010B2DE9F04304462DEDA8
:104B3800028B83B0002948D0012140F201120023E2
:104B48000091ADF804208DF80630304A0126304B2C
:104B5800271D304904F12908626040F20272A360FF
:104B680040F60663E16004F125092682A4F82520B1
:104B780084F82760A4F8293084F82B6005F05CFAE3
:104B88006946054648B304F130008DF8066005F023
:104B9800ABF9072D34D104F114052046FFF73EFF89
:104BA800284601F0DDF82846B0EE408A01F0C6F844
:104BB800D0ED007AF8EE677A88EE277A84ED0E7ADF
:104BC80003B0BDEC028BBDE8F08340F20113009105
:104BD8008DF80610ADF80430B7E704F1300005F0A1
:104BE80083F93946204602F0CFFB484601F01AFF08
:104BF800404601F017FF04F1120000F077F9CAE708
:104C08003946204602F0C0FBC5E700BF0508050984
:104C180005070506050A060610B584B003460124F3
:104C2800ADF8040003A8ADF80C30ADF80E4001F063
:104C3800F9FE214603A801F0DFFF204605F066F8DB
:104C4800002103A801F0D8FF204605F05FF82146AF
:104C580003A801F0D1FF04B010BD00BF10B5C2F326
:104C6800002384B00C46017C8DF80D2043EA4402F1
:104C7800FA2402238DF80C2003AA009402F0D2F93A
:104C880018B10124204604B010BD04460A2005F0DE
:104C98003DF8204604B010BD034670B543F8042B18
:104CA800044684B007C983E80700A37983B91A21A9
:104CB8000B461E22FA2523742046ADF80C20022349
:104CC80003AA009502F0AEF928B1012004B070BD26
:104CD8001B210B46EDE70A2005F018F84FF4B852EF
:104CE80000950223ADF80C20204603AA217C02F08F
:104CF80099F90028E9D10A2005F008F841F2027272
:104D080000950223ADF80C20204603AA217C02F06E
:104D180089F90028D9D10A2004F0F8FF0422009567
:104D28000223ADF80C20204603AA217C02F07AF970
:104D38000028CAD10A2004F0E9FF062200950223C0
:104D4800ADF80C20204603AA217C02F06BF900285C
:104D5800BBD10A2004F0DAFF41F2082200950223B1
:104D6800ADF80C20204603AA217C02F05BF900284C
:104D7800ABD10A20064604F0C9FF0095022303AA16
:104D8800217C2046ADF80C6002F04CF900289CD13B
:104D9800304604F0BBFF009522790C232046002AF8
:104DA8008DF80C3003AA4FF0020314BF6221422190
:104DB8008DF80D10217C02F035F9002885D1304698
:104DC80004F0A4FF2279D4E902310B43DBB20AB91B
:104DD80043F0400362790AB143F020030E22FA251A
:104DE8008DF80D302046009502238DF80C2003AA7B
:104DF800217C02F017F900287FF467AF0A2004F03D
:104E080085FF102200950223ADF80C20204603AA46
:104E1800217C02F007F900287FF457AF0A2004F03C
:104E280075FF122100950223ADF80C1003AA217C0E
:104E3800204602F0F7F800287FF447AF0A2004F074
:104E480065FF012209212046FFF708FF003818BF37
:104E580001203BE7F0B5102387B0234C0122002541
:104E68000126002702A920460195CDE902234FF427
:104E78008052CDE904670CF023F8642005F082FB2A
:104E880002A94FF480522046CDE904670226102774
:104E9800CDE902670CF014F80322102302A920467A
:104EA800CDE9022300230422CDE904234FF48052E4
:104EB8000CF006F840F23223042202A901931023D1
:104EC8002046CDE90223019A012305924FF480522E
:104ED80004930BF0F5FF40F6060120460CF010F89D
:104EE800284607B0F0BD00BFB07007241C4B002255
:104EF8001C494FF0400C30B5054689B00220596076
:104F080007219A601A620124DA620A224FF4006EBD
:104F1800DC6006922022CDE9000104200821CDE9B9
:104F2800020103201021CDE9040108206946C3E9E4
:104F380004024FF4C072181DC3E906C24FF4805230
:104F4800C3E909E20BF092FF38B92846FFF782FF60
:104F5800003818BF012009B030BD204609B030BD67
:104F6800AC70072440410052614A0021D0B5136853
:104F78008EB00A91002B40F0B9805E4B01214FF6AC
:104F880083700C2411600221D3F8D4200026032753
:104F980042F48052C3F8D420D3F8D42002F48052CB
:104FA8000092009AD3F8E02042F01002C3F8E02003
:104FB800D3F8E02002F010020192019AD3F8E02021
:104FC80042F04002C3F8E020D3F8E02002F04002AB
:104FD8000292029AD3F8E02042F00802C3F8E020D7
:104FE800D3F8E02002F008020392039AD3F8E020F5
:104FF80042F48072C3F8E020D3F8E02002F4807213
:105008000492049AD3F8E02042F08002C3F8E0202A
:10501800D3F8E02002F080020592059AD3F8E02048
:1050280042F02002C3F8E020D3F8E02002F020028A
:105038000692069AD3F8E02042F00402C3F8E02072
:10504800D3F8E0300C9403F0040307930323079A82
:105058000B93CDE9080108A9274807F039FA48F267
:105068003712022308A925480C94CDE90823CDE975
:105078000A6707F02DFA4CF20372022308A92048A8
:105088000C94CDE90823CDE90A6707F021FA40F22C
:10509800FF62022308A91B480C94CDE90823CDE937
:1050A8000A6707F015FA4FF60C72022308A916488A
:1050B8000C94CDE90823CDE90A6707F009FA4FF601
:1050C8003F02022308A911480C94CDE90823CDE931
:1050D8000A6707F0FDF92022022308A90A480C9460
:1050E800CDE90A67CDE9082307F0F2F90EB0D0BD83
:1050F800A8700724004402580010025800180258EB
:10510800000C025800200258001C025800140258D3
:105118002DE9F04FDFF8108406460D46144608F1D5
:1051280018002DED028B89B000AF02F0A5FDD8F86C
:10513800183073B3D8F81C30D8F80490002B4369A2
:105148000BBF4FF0080A4FF0100A4FF0020B4FF058
:10515800040BB9F1000F2AD0A200EA46012B02F194
:10516800070222F00702ADEB020D6846ADEB020D17
:10517800694600F03F81022B00F0D680002B6FD0EB
:105188002246C847D5462437BD46BDEC028BBDE84C
:10519800F08FD8F81C30002BF5D0D8F804904FF0D9
:1051A800080A4FF0020B4369B9F1000FD4D1FB6133
:1051B800D8F80030BB61002BE5D0D54802F0DAFD05
:1051C8006B46BBF1020F786108EE103AFB6900F0FC
:1051D80083816A465146A2EBC40295466200EA46BC
:1051E800B2FBFBF2AAEBC40085460AEB8200EE464E
:1051F800F861ADEB010DF8690EEB820CC7F810C031
:10520800EC46ADEB010D00EB8201CCF80400CCF8C4
:10521800081001EB82013869E946CCF80C1000EB64
:105228008201CCF800A001EB8202C9E900E0C9E9DB
:105238000212012B00F06483022B00F06C82002B19
:1052480000F08081620849466046BB69984718EEBD
:10525800103A24379D46BD46BDEC028BBDE8F08F61
:10526800002C8DD01A46D8ED0C6A9FEDB27A844690
:10527800331D36F922E00CF1080C07EE90EA33F9F9
:1052880022E00232F8EEE77A944267EE877A67EE18
:10529800A67A4CED027A07EE90EAF8EEE77A67EE26
:1052A800877A67EEA67A4CED017AE2D8F961224650
:1052B800C847984ED8ED0D6A0020F9692B1D9FED5F
:1052C8009E7A9FED9E6ADFED9E5A22E0F4EEC67A42
:1052D800F1EE10FAC0F2C88447F6FE72D1ED017AF9
:1052E80045F8202066EEA77AF4EEC77AF1EE10FAB8
:1052F80040F2F080F4EEC67AF1EE10FAC0F2D584EE
:1053080047F6FE7243F820200230083184427FF6C7
:1053180039AFD1ED007A66EEA77AF4EEC77AF1EEEE
:1053280010FAD3D83246D9E7002C3FF429AFD8ED8C
:105338000C6A84469FED787A0022331D8E4656F813
:1053480022100CF1080C07EE901A53F822100232C2
:10535800F8EEE77A944267EE877A67EEA67A4CED24
:10536800027A07EE901AF8EEE77A67EE877A67EE28
:10537800A67A4CED017AE2D871462246C7F81CE0BD
:10538800C847664ED8ED0D6A0020F9692B1D9FEDC0
:105398006A7A9FED6A6ADFF894C120E0F4EEC67A73
:1053A800F1EE10FAC0F279843246D1ED017A45F86F
:1053B800202066EEA77AF4EEC77AF1EE10FA40F2F2
:1053C8008780F4EEC67AF1EE10FAC0F25E843246B7
:1053D80043F820200230083184427FF6D3AED1ED65
:1053E800007A66EEA77AF4EEC77AF1EE10FAD5D80D
:1053F8006246DAE7002C3FF4C3AED8ED0C6A864665
:105408009FED477A4FF0000C331D56F82C200EF113
:10541800080E82F40002A2F5000207EE902A53F863
:105428002C200CF1020CF8EEE77A82F400026445B5
:10543800A2F5000267EE877A67EEA67A4EED027A49
:1054480007EE902AF8EEE77A67EE877A67EEA67A93
:105458004EED017AD9D8F9612246C847314ED8EDC8
:105468000D6A0020F9692B1D9FED337A9FED336A91
:10547800DFF8BCC01FE0F4EEC67AF1EE10FAC0F215
:10548800FC833246D1ED017A45F8202066EEA77AF2
:10549800F4EEC77AF1EE10FA18D9F4EEC67AF1EE06
:1054A80010FAC0F2DA83324643F82020023008317D
:1054B80084427FF667AED1ED007A66EEA77AF4EE05
:1054C800C77AF1EE10FAD6D86246DBE76246EBE718
:1054D80062467DE7324615E7A100D64662080731E5
:1054E80021F00701ADEB010DEA46ADEB010D694670
:1054F800ADEB0E0D0AEB8200EC46ADEB0E0D01EBA9
:105508008202F861E946CCE900A0C9E9001290E6F8
:10551800007107240280FFFF000000300082FF7F37
:105528000000003482FF7F00E4700724007E0080C2
:105538007E0080FF0000003804FF7FBF04FF7F3F2C
:1055480000FEFF46002C00F0C982BBF1020FD8F81C
:10555800242000F0FA827969C7F8049002EB810EE2
:105568005FED0C5A8A00DCF808100EF104007A612D
:105578001A46DCF80C303B61331DD7F810903D61BA
:10558800FD69C7E902CB8C46834636F92210D8ED6F
:105598000C7A06EE101A33F9221006EE901A3EF92C
:1055A8002210B8EEC66A07EE101AF8EEE66A3BF962
:1055B8002210B8EEC77A26EE256A66EEA56A27EEAF
:1055C800257A26EE276A66EEA76A27EE277A07EE7F
:1055D800901A51080232F8EEE77A0AEB81009442F9
:1055E80080ED006A05EB810067EEA57AC0ED006AE0
:1055F8000CEB810009EB810180ED007A98ED0C7AC3
:1056080067EE877AC1ED007ABFD8D7F804903D6974
:10561800D7E902CB60466208BB6949469847D8F883
:105628002C307A69D8ED0D6A1A441FED3D7A1FEDCA
:105638003D6A2B1D904602F1040A5FED3F5A002295
:10564800A84ED9E900EC51E0F4EEC67AF1EE10FA72
:10565800C0F2C78247F6FE7045F822000CEB010045
:10566800D0ED007A66EEA77AF4EEC77AF1EE10FA7A
:105678004BD9F4EEC67AF1EE10FAC0F2BA8247F6C8
:10568800FE70BBF1020F43F822002BD0D9F80800B6
:105698000844D0ED007A66EEA77AF4EEC77AF1EE08
:1056A80010FA36D9F4EEC67AF1EE10FAC0F2CD82CD
:1056B80047F6FE7048F82200D9F80C000144D1EDF5
:1056C800007A66EEA77AF4EEC77AF1EE10FA1ED9E0
:1056D800F4EEC67AF1EE10FAC0F2AF8247F6FE7128
:1056E8004AF82210023294427FF6B1AD51080EEB0F
:1056F80081008900D0ED007A66EEA77AF4EEC77AC9
:10570800F1EE10FAA0D83046A6E73046B9E73146A0
:10571800E6E73046CEE7002C00F0E081BBF1020F4F
:10572800D8F8243000F0E1817A69DCF8081003EB3E
:10573800820EC7F804909300DFED6B5A0EF1040057
:1057480000227B61DCF80C303B61331DD7F81090E8
:105758003D61FD69C7E902CB8C46834656F82210A5
:10576800D8ED0C7A07EE101A53F82210B8EEC76A73
:1057780007EE101A5EF82210F8EEC76A07EE101A44
:1057880026EE256A5BF82210B8EEC77A66EEA56A9F
:1057980026EE276A27EE257A66EEA76A27EE277A8D
:1057A80007EE901A51080232F8EEE77A0AEB810008
:1057B800944280ED006A05EB810067EEA57AC0EDA2
:1057C800006A0CEB810009EB810180ED007A98ED0D
:1057D8000C7A67EE877AC1ED007ABFD8D7F80490C3
:1057E8003D69D7E902CB60466208BB6949469847DC
:1057F800D8F82C307A69D8ED0D6A1A449FED3E7AB4
:105808009FED3E6A131D9246DFF8E4C00022FB615B
:105818002B1D364ED9E9008E4EE0F4EEC67AF1EE35
:1058280010FAC0F2FC81304645F822000EEB010068
:10583800D0ED007A66EEA77AF4EEC77AF1EE10FAA8
:1058480049D9F4EEC67AF1EE10FAC0F2EF8130468B
:10585800BBF1020F43F822002AD0D9F80800084407
:10586800D0ED007A66EEA77AF4EEC77AF1EE10FA78
:1058780035D9F4EEC67AF1EE10FAC0F2C981304695
:105888004AF82200D9F80C000144D1ED007A66EEFE
:10589800A77AF4EEC77AF1EE10FA1ED9F4EEC67ABA
:1058A800F1EE10FAC0F2AD813146F86940F82210E5
:1058B800023294427FF6CBAC510808EB8100890094
:1058C800D0ED007A66EEA77AF4EEC77AF1EE10FA18
:1058D800A3D86046A8E76046BAE76146E5E76046B0
:1058E800CEE700BF0280FFFF000000300082FF7F8C
:1058F800007E00800000003404FF7FBF04FF7F3F6C
:10590800002C00F0EB807A690021D8F82430C7F821
:10591800109003EB820ED7F81C909300FD610EF1F6
:1059280004021FED0C6A7B61331D154656F82120D1
:105938004808D8ED0C6ABBF1020F82F40002A2F508
:10594800000207EE902A53F8212082F40002B8EEF4
:10595800E77AA2F5000227EE067A07EE902A0AEB0C
:105968008002F8EEE77A27EE267A67EE867A82EDED
:10597800007A09EB80024FEA800067EEA67AC2ED52
:10598800007A27D05EF8212082F40002A2F50002F6
:1059980007EE902A55F8212082F40002B8EEE77A43
:1059A800A2F5000227EE067A07EE902ADCF8082016
:1059B800F8EEE77A024427EE267A67EE867A82EDD9
:1059C800007A98ED0C7ADCF80C2067EE877A0244AE
:1059D800C2ED007A02318C42A8D8D7F81090604600
:1059E8006208BB694946FD699847D8F82C307A693E
:1059F800D8ED0D6A1A441FED407A1FED406A131D59
:105A08009246DFF8C4C20022FB612B1DAB4ED9E9D8
:105A1800008E4EE0F4EEC67AF1EE10FAC0F2C580C0
:105A2800304645F822000EEB0100D0ED007A66EE14
:105A3800A77AF4EEC77AF1EE10FA49D9F4EEC67AED
:105A4800F1EE10FAC0F2BF803046BBF1020F43F806
:105A580022002AD0D9F808000844D0ED007A66EE72
:105A6800A77AF4EEC77AF1EE10FA35D9F4EEC67AD1
:105A7800F1EE10FAC0F2AE8030464AF82200D9F8AA
:105A88000C000144D1ED007A66EEA77AF4EEC77AED
:105A9800F1EE10FA1ED9F4EEC67AF1EE10FAC0F261
:105AA8008B803146F86940F82210023294427FF622
:105AB800CEAB510808EB81008900D0ED007A66EE84
:105AC800A77AF4EEC77AF1EE10FAA3D86046A8E7F1
