:020000040800F2
:1000000000000220E5060008E106000881960008CD
:10001000E1060008E1060008E10600080000000013
:10002000000000000000000000000000E1060008E1
:10003000E106000800000000E1060008059600083F
:10004000E1060008E1060008E1060008E1060008F4
:10005000E1060008E1060008E1060008E1060008E4
:10006000E1060008E1060008E1060008397400080E
:100070004574000829610008517400085D74000887
:10008000C190000815690008E1060008E1060008B3
:10009000E1060008E1060008E1060008E1060008A4
:1000A000E1060008E1060008E1060008E106000894
:1000B0006D3E0108793E0108853E0108456900084A
:1000C000E106000851690008E1060008A57F000864
:1000D000B17F0008D18E0008018F0008398F000819
:1000E000E1060008E106000800000000E106000843
:1000F000E1060008E1060008E1060008E106000844
:10010000E1060008E1060008913E0108BD7F0008F5
:10011000718F0008A98F0008E1060008E1060008B9
:10012000E1060008E1060008E17F000815800008EC
:10013000F5900008E1060008E1060008E106000865
:1001400000000000000000000000000000000000AF
:10015000E1060008E1060008E1060008E18F00085A
:100160005D690008E1060008159600083996000848
:10017000E10600085D960008E1060008E1060008B7
:10018000E1060008E10600081990000851900008F7
:10019000C97F0008D57F0008E1060008E1060008D5
:1001A000E1060008E1060008E1060008E106000893
:1001B000B1700008E1060008E1060008E106000849
:1001C000E1060008E1060008E1060008E106000873
:1001D000E1060008E1060008E1060008E106000863
:1001E000E1060008E1060008E1060008E106000853
:1001F000E1060008E1060008E1060008E106000843
:10020000E1060008E1060008E1060008E106000832
:10021000E1060008E1060008E1060008E106000822
:10022000E1060008E1060008E10600080000000001
:10023000E1060008E106000800000000E1060008F1
:10024000E1060008E1060008E1060008E1060008F2
:10025000E1060008E1060008E1060008E1060008E2
:10026000E1060008E1060008E1060008E1060008D2
:10027000E1060008E106000889900008000000007F
:10028000E1060008E1060008E106000800000000A1
:0802900000000000E106000877
:10029800034613F8012B002AFBD1181A01387047BE
:1002A80081F0004102E000BF83F0004330B54FEA1F
:1002B80041044FEA430594EA050F08BF90EA020F8C
:1002C8001FBF54EA000C55EA020C7FEA645C7FEA1F
:1002D800655C00F0E2804FEA5454D4EB5555B8BF42
:1002E8006D420CDD2C4480EA020281EA030382EAB3
:1002F800000083EA010180EA020281EA0303362D45
:1003080088BF30BD11F0004F4FEA01314FF4801C17
:100318004CEA113102D0404261EB410113F0004F29
:100328004FEA03334CEA133302D0524263EB4303E0
:1003380094EA050F00F0A780A4F10104D5F1200E7E
:100348000DDB02FA0EFC22FA05F2801841F10001D9
:1003580003FA0EF2801843FA05F359410EE0A5F1AD
:1003680020050EF1200E012A03FA0EFC28BF4CF0DE
:10037800020C43FA05F3C01851EBE37101F0004594
:1003880007D54FF0000EDCF1000C7EEB00006EEBA1
:100398000101B1F5801F1BD3B1F5001F0CD349082B
:1003A8005FEA30004FEA3C0C04F101044FEA445282
:1003B80012F5800F80F09A80BCF1004F08BF5FEA09
:1003C800500C50F1000041EB045141EA050130BDE9
:1003D8005FEA4C0C404141EB0101013C28BFB1F5FB
:1003E800801FE9D291F0000F04BF01460020B1FA46
:1003F80081F308BF2033A3F10B03B3F120020CDA19
:100408000C3208DD02F1140CC2F10C0201FA0CF0F6
:1004180021FA02F10CE002F11402D8BFC2F1200C5B
:1004280001FA02F120FA0CFCDCBF41EA0C01904011
:10043800E41AA2BF01EB0451294330BD6FEA04045A
:100448001F3C1CDA0C340EDC04F11404C4F1200245
:1004580020FA04F001FA02F340EA030021FA04F357
:1004680045EA030130BDC4F10C04C4F1200220FAAE
:1004780002F001FA04F340EA0300294630BD21FAEC
:1004880004F0294630BD94F0000F83F4801306BFB2
:1004980081F480110134013D4EE77FEA645C18BFA6
:1004A8007FEA655C29D094EA050F08BF90EA020F3D
:1004B80005D054EA000C04BF1946104630BD91EA35
:1004C800030F1EBF0021002030BD5FEA545C05D138
:1004D8004000494128BF41F0004130BD14F5800477
:1004E8003CBF01F5801130BD01F0004545F0FE41EB
:1004F80041F470014FF0000030BD7FEA645C1ABF20
:10050800194610467FEA655C1CBF0B46024650EA56
:10051800013406BF52EA033591EA030F41F4002182
:1005280030BD00BF90F0000F04BF0021704730B508
:100538004FF4806404F132044FF000054FF00001DD
:1005480050E700BF90F0000F04BF0021704730B59E
:100558004FF4806404F1320410F0004548BF404273
:100568004FF000013EE700BF42004FEAE2014FEAC8
:1005780031014FEA02701FBF12F07F4393F07F4FA3
:1005880081F06051704732F07F4208BF704793F0A6
:100598007F4F04BF41F40021704730B54FF46074B9
:1005A80001F0004521F000411CE700BF50EA0102BC
:1005B80008BF704730B54FF000050AE050EA010265
:1005C80008BF704730B511F0004502D5404261EBD5
:1005D80041014FF4806404F132045FEA915C3FF416
:1005E800D8AE4FF003025FEADC0C18BF03325FEAB3
:1005F800DC0C18BF033202EBDC02C2F1200300FA64
:1006080003FC20FA02F001FA03FE40EA0E0021FA88
:1006180002F11444BDE600BF53B94AB9002908BF26
:1006280000281CBF4FF0FF314FF0FF3000F00CB82E
:10063800ADF1080C6DE904CE14F0ECFDDDF804E032
:10064800DDE9022304B07047704700BF0348044B3C
:10065800834202D0034B03B11847704700040024BB
:1006680000040024000000000548064B1B1AD90F9F
:1006780001EBA301491002D0034B03B1184770479F
:1006880000040024000400240000000010B5064CFB
:10069800237843B9FFF7DAFF044B13B10448AFF3EB
:1006A80000800123237010BD000400240000000016
:1006B8009875010808B5054B1BB105490548AFF306
:1006C8000080BDE80840FFF7CFBF00BF0000000072
:1006D8000404002498750108FEE700BF0B480C4A83
:1006E800904203D0121A0B4914F03CFD0A480B4AF9
:1006F800904203D0121A002114F09EFC09F060FA0F
:1007080014F0FCFC02F064FFFEE700BF00000024C8
:1007180000040024C875010800040024B82201243C
:10072800704700BF704700BF704700BF49424FF491
:1007380080621430C9B214F07FBC00BF40207047FB
:100748008020704710B50446006808B113F069FFAF
:10075800204610BD10B5044640F2144113F05FFF67
:10076800204610BD38B5094CA4F59075183C2346B1
:1007780053F8080B984206D0A168013113F04FFFD7
:10078800AC42F3D138BDAC42F0D138BDEC5C0024AA
:10079800F0B500F1080783B0076029B3044608469E
:1007A8000E46FFF775FD0F28054601900DD8012864
:1007B80008D133782372019B002122686360D154E9
:1007C80003B0F0BD0028F6D008E0002201A92046B9
:1007D80013F03CFF019B07462060A3602A46314680
:1007E800384614F0BFFCE6E7014813F01FFF00BFCE
:1007F8005C5501082DE9F043B02683B000F10805E7
:1008080000F1140800F2144905F10804002700213A
:100818008DF807602046013605F028FF6423012281
:100828000DF107012846F6B207F01EFE20463946AC
:100838008DF8067005F01AFF012264230DF10601F8
:10084800284607F011FE1023394620468DF805305A
:1008580005F00CFF642301220DF10501284607F07D
:1008680003FE0121204605F001FF414608F18008FA
:1008780064238022284607F0F7FDC845C4D103B099
:10088800BDE8F0832DE9F04FBB4F05460C461646F0
:100898003B782DED048B91B0002B40F03985002E6C
:1008A80000F01B850022013E2B462746069272085F
:1008B8000E92B24A0892B24AF7EE007AB14992ED26
:1008C800008A089A91ED007A77EEC87A127828EEB5
:1008D800078AAD4807EE102AB8EEC77AA7EE878ACE
:1008E80080ED008A81ED008A3AB9DFEDA87AB0EE92
:1008F800678AC0ED007AC1ED007AD3ED007AA4488A
:1009080028EE278A0193B0EE480A13F0EBFDA14BBD
:10091800F7EE006AD3ED007A9F4B60EE278A1E68D7
:1009280099689E4B06EB81001D689C689C4B80ED86
:10093800008A05EB84001A789A4BC0ED008A93ED83
:10094800007A994876EEC77A984B90ED006AD3ED15
:10095800005A27EE880A67EEA87A20EE080A67EEA2
:10096800A87AA7EE250AE7EE067A83ED000AC0ED1D
:10097800007A019B002A00F0D3838D4A8D481278B3
:1009880000780190002A00F048829FED8B4A4FF0D2
:1009980000098A4AF0EEC83A28EE044ADFF834A281
:1009A800DFF834C2CE4692ED005AD046B7EEC44ABC
:1009B8000922DFF828B2E246CDE90941CDE90B3733
:1009C800BAEC017A58F8043BF0EE477ACDF808E023
:1009D8000EF1010EFEEEEC7A17EE904A9C4200F002
:1009E8008180019B002B00F0B781DFED757AB4EEB2
:1009F800E78AF1EE10FACCBF4FF0010C4FF0000C73
:100A0800A2EB0906002EB8BF76424A4594BF4FF0C4
:100A1800FF3701277F2CC6F1000500F2A481D30817
:100A2800012102F0070004EBC31301FA00F05B4454
:100A380093F85410BCF1000F00F0EA81014383F8E9
:100A48005410CDF81480AC464B462046B046CDE94C
:100A580003E94FF00109D90803F0070E7F280CFAC3
:100A680009F600EBC11109FA0EF908D83F2B5944D1
:100A780005D891F854E049EA0E0981F85490B5EB8D
:100A88004C0F02DA0138ACEB080C002E00DA3B44BC
:100A9800211A18BF01219A4202D1002900F05E8173
:100AA800B542D6DBDDF814800794DDE903E9DC08FC
:100AB80003F0070501263F2B00EBC41406FA05F5E1
:100AC80007D87F285C4404D894F85460354384F8E8
:100AD8005450BCF1000FB8BFDB199A42E7D1002986
:100AE800E5D1079C019B3BB9DFED357AF4EEE73A97
:100AF800F1EE10FA00F3EA8207EE90EA9FED316A10
:100B0800F7EE006A0A32F8EEE77A48F8044C09F181
:100B18000A09C5EE275AC5EE867A77EE877AF4EE8B
:100B2800E67AF1EE10FAC8BF77EEE67A452A4AED82
:100B3800017A7FF445AF244A24481268244E02EB18
:100B4800420296F800A050F8320000227578CBF8DF
:100B5800442002787668DDE90941DDE90B37002A8F
:100B680000F0D980984603468C4610461A460F96E0
:100B78000495039434E000BF2CF40024651000248D
:100B8800080000240C0000241000002400000000CD
:100B9800B85B002418000024A41000249810002436
:100BA800140000241C000024200000242400002439
:100BB800EC5C0024150000240000F042C45B002413
:100BC8006F12833A00803B47C85B0024CC5B00244B
:100BD800A00300246810002480100024085D00246D
:100BE800A0F12003DCB25E2C00F29280BBF84440F6
:100BF80004EB0A05802D00F38B80BBF8466004994E
:100C080006EB010EBEF1400F00F3828000296CD084
:100C180001FB03F3BAF1000F67D06FF000495434B9
:100C2800CDF814C099440B440F99CDF81C80A1F15C
:100C3800020E01EB49090B920EEB4303B6460294F0
:100C48000193CDE90970CDE90C650EF007024FF06C
:100C5800010C4FEADE05029B0CFA02FCBEF13F0FC5
:100C680003EBC51239F8027F6FEA0C084FEAC51585
:100C780094BF002601265FFA88F85A445FFA8CFC74
:100C880000214346A84608E01DB910784CEA000048
:100C9800107001310132514519D06FF0530007FA35
:100CA80001F4A0EB0B00A0EB080010447F2894BFD0
:100CB800354646F001052004E6D4002DE9D1107828
:100CC800013101321840514502F8010CE5D1019B70
:100CD8000EF1010E4B45B8D1DDF814C0DDF81C80CB
:100CE8000D9DDDE90970DDE90B26ABB27F2B28BF2E
:100CF8007F23402E08BF3F26ABF84430ABF8466050
:100D08001378834204D112F8010F00287FF468AFEA
:100D1800039C61464346B54AB5485268406801316C
:100D2800013487ED008A083387ED018A0837B1FB63
:100D3800F0F500FB1511AE4881600E98B4FBF2F196
:100D480002FB11440699A94A8842946001F1010204
:100D580000F0C5820692AEE59C4651E6DDE903E95E
:100D6800DDF81480BEE6BCF1000F7FF46AAECDF862
:100D78001480AC464B462046B046CDE903E901262F
:100D8800D90803F007097F280CFA06FE00EBC11109
:100D980006FA09F608D83F2B594405D891F854901B
:100DA80029EA060981F85490B5EB4C0F02DA0138AC
:100DB800ACEB080CBEF1000FB8BFDB19211A18BF45
:100DC80001219A4201D10029C8D07545D7DBDDF849
:100DD80014800794DDE903E9DC0803F00705012620
:100DE8003F2B00EBC41406FA05F508D87F285C44AD
:100DF80005D894F8546026EA050684F85460BCF1D6
:100E0800000FB8BFDB199A42E6D10029E4D168E6A1
:100E180021EA000183F85410A9E79446754ADFF8DF
:100E2800F4B1D2ED004AE046734A76EEE46A734DB7
:100E380002920922059426EE885A0791CDE90937CE
:100E4800FBEC016ADFED6E7A6E4C66EEA77A55F818
:100E5800040BFCEEE77A17EE901AF0EE457A01EBF8
:100E6800C813814204EB830393ED007AE4EE877A9A
:100E7800C3ED007A00F08380019B002B00F0B08066
:100E88009FED617AF4EEC77AF1EE10FACCBF4FF01D
:100E980001094FF00009A2EB0C07002FB8BF7F42F1
:100EA800624594BF4FF0FF3E4FF0010E7F29C7F116
:100EB800000600F2B180D008544B02F0070401EBA1
:100EC800C0100344012000FA04F493F85400B9F167
:100ED800000F00F0F680204383F854003446634640
:100EE8000846CDE903C53D46DF0803F0070ADFF8E9
:100EF8001C914FF0010C00EBC7177F280CFA0AFC75
:100F08004FEA440A4F4407D83F2B05D897F8549026
:100F18004CEA090C87F854C0B6EB440F01DA0138E3
:100F2800641BBAF1000F00DA73440F1A18BF0127C7
:100F38009A4201D1002F55D05645D5DB8A46DDF8B7
:100F48000CC0B946D908314F03F00706012500EB5C
:100F5800C1113F2B05FA06F6394406D87F2804D874
:100F680091F854703E4381F85460002CB8BF734424
:100F78009A42E7D1B9F1000FE4D15146049D019B93
:100F88004BB9B0EEE77A9FED206AB4EEC67AF1EE7F
:100F980010FA00F37381029BB7EE007A9FED1C6A8A
:100FA80008F10108F3EC015A0CF10A0C45F8041C8D
:100FB8000A32C5EE867A029377EEA67AF4EEC77AFD
:100FC800F1EE10FAC8BF77EEC77AB8F1060F4BED0D
:100FD800017A7FF435AF059C0799DDE909379AE670
:100FE800994658E7DDE903C5C9E700BF9810002412
:100FF800A410002454040024F05C00246810002489
:1010080000000043580400246F12833A085D00244E
:1010180000803B4780100024B9F1000F7FF45EAFD9
:10102800344663460846CDE903C53D46DF0803F06C
:10103800070ADFF820934FF0010C00EBC7173F2B8E
:101048000CFA0AFC4FEA440A4F4407D87F2805D80F
:1010580097F8549029EA0C0987F85490B6EB440F96
:1010680001DA0138641BBAF1000FB8BF73440F1AD4
:1010780018BF01279A4201D1002FB3D05645D5DBBE
:101088008A46DDF80CC0B946D908B24F03F0070606
:10109800012500EBC1113F2B05FA06F6394407D8A4
:1010A8007F2805D891F8547027EA060681F854601D
:1010B800002CB8BF73449A42E6D1B9F1000FE3D1CE
:1010C8005BE720EA040083F85400A9E77F2C3FF689
:1010D80013ADDDED027AB6EE002BB2EE041B01254E
:1010E800B8EEE76B36EE026BB0EE442BA6EE012BA2
:1010F800BDEEC22B12EE103A4B45B8BF4B46934299
:10110800A8BF1346D80803F0070305FA03F104EB58
:10111800C0135B4493F85400014383F85410EBE484
:10112800B5EE400AF1EE10FA00F1FC80B1EEC07A9B
:10113800F4EE006AB4EEE67AF1EE10FA00F3E3801A
:101148009FED859AF5EE407AF1EE10FA00F1F780FE
:10115800B1EEE77AF4EE007AB4EEE77AF1EE10FA3F
:1011680000F3CC809FED7C6A7C4A6FF4166EDFED4D
:101178007C5A50689FED7B7A0A18DFED7B7AA8EEDF
:10118800097A02EB0E0CA2F51662BCFBF0FE00FB1E
:101198001ECCBCEEC77A06EB8C0C9CED005AB2FB59
:1011A800F0FC00FB1C2206EB8206D6ED006A17EE67
:1011B800106AE5EE256A7F2EE6EE897AFCEEE77A7C
:1011C80017EE902A14D83F2A12D84FEAD20CDFF82B
:1011D80084B102F0070206EBCC164FF0010C5E4416
:1011E8000CFA02F296F854C042EA0C0286F854202F
:1011F8005E4A6FF4166CDFED5C7A5268DFED585A80
:10120800B0EE677AA618B444A6F51666A8EE867AF4
:10121800BCFBF2FE02FB1ECCBCEEC77A05EB8C0CC5
:101228009CED005AB6FBF2FC02FB1C6605EB86053A
:1012380017EE106AD5ED006A7F2EE5EE256AE6EE18
:10124800867AFCEEE77A17EE905A14D83F2D12D81A
:101258004FEAD50CDFF8FCB005F0070506EBCC1615
:101268004FF0010C5E440CFA05F596F854C045EAB7
:101278000C0586F85450B0EE688A50E57F293FF691
:101288008AAE9FED3B7A06EE108AB6EE001B314B14
:10129800B8EEC63B012627EE877AB2EE042B33EE72
:1012A800013BB7EEC77AA3EE027BBDEEC77B17EE14
:1012B800100A6045B8BF60469042A8BF1046C408EF
:1012C80000F0070001EBC41406FA00F0234493F879
:1012D8005440204383F854005DE6264B0893089B4E
:1012E80000211C481B7800EE103AB8EE400A11B0F5
:1012F800BDEC048BBDE8F04F02F040BCF3EE0C7A75
:1013080087EE876A30E7F3EE0C6A86EE879A19E76C
:10131800104802F0FFFB0F4802F008FC00233B7066
:10132800FFF7BDBACDE90213CDED017A13F098FDB0
:10133800DDED017AB0EE407ADDE90213F8E6B0EEB1
:10134800670ACDE9011313F08BFDB0EE407ADDE9B1
:101358000113FFE6085D002400006043A410002488
:10136800000000000000C042000000429810002465
:101378000000F042651000242DE9F04F8DB00CAD4F
:101388009DF8584005E90C000B78002B00F0C2804E
:101398000A469DF829109DF828B003910B990491ED
:1013A800002C40F0BC801C4680461546A4F120095C
:1013B8005FFA89F35E2B00F27081D8F80030C44FD1
:1013C800DB68BB4240F074818020B8F804305B448D
:1013D800834200F36781D8F800309A68BD4B9A427F
:1013E80040F071814020B8F8066003997218824273
:1013F80000F35881B8F804C000296AD001FB09F944
:10140800BBF1000F65D06FF0004A049A0993CA44F3
:10141800894402EB4A0A023A02EB49000CF1140231
:10142800B14602901046CDE907453C46CDE9056C2A
:1014380009F007034FEAD9024FF0010C6FF01305CA
:101448003AF8027FB9F13F0F0CFA03FC00EBC21324
:1014580008EBC21298BF00266FEA0C0E4344A5EBB6
:1014680002055FFA8CFC5FFA8EFE88BF0126002217
:10147800CDE9009AAA4608E01DB919780EEA0101DB
:101488001970013201335A4516D00AEB030907FADD
:1014980002F1B9F17F0F94BF354646F00105090402
:1014A800EAD4002DEDD11978013201334CEA01015B
:1014B8005A4503F8011CE8D1029BDDE9009A9A45D8
:1014C80009F10109B4D12746079CDDE9056CDDE97E
:1014D8000853D8F80000DC44C2681FFA8CF9BA42F5
:1014E80040F02481B9F1800F28BF4FF07F0982684E
:1014F800A8F804909A4240F034813F2E00D93F2644
:10150800A8F806602B789C4205D115F8014F002CED
:101518007FF44CAF002318460DB0BDE8F08F1C4691
:1015280016468046A4F120095FFA89F25E2A00F285
:10153800B480D8F80020664DD268AA4240F0BB803B
:101548008020B8F804205A44824200F3AE80D8F8CC
:101558000020604992688A4240F0B0804020B8F884
:101568000670039BFA18824200F39F80B8F804C003
:10157800002B6AD003FB09F9BBF1000F65D06FF0AF
:10158800004A0991CA449944049B9A1E03EB4A0AEB
:101598000CF1140302EB4900B94602901846CDE954
:1015A80007462C46CDE9057C4FEAD90309F0070226
:1015B8004FF0010C3AF8027FDD01B9F13F0F0CFA48
:1015C80002FC00EBC313C5F1000598BF00266FEAC3
:1015D8000C0E4344A5EB08055FFA8CFC5FFA8EFEFF
:1015E80088BF0126143D0022CDE900A9AA4608E0DB
:1015F8001DB919784CEA01011970013201335A45B5
:1016080016D00AEB030907FA02F1B9F17F0F94BF6C
:10161800354646F001050904EAD4002DEDD11978C4
:10162800013201330EEA01015A4503F8011CE8D1E1
:10163800029BDDE900A99A4509F10109B4D12546C3
:10164800079CDDE9057CDDE90861D8F800000BEBB3
:101658000C09C2681FFA89F9AA423DD1B9F1800F75
:1016680028BF4FF07F098268A8F804908A424DD1BC
:101678003F2F00D93F27A8F8067031788C4240F0F8
:10168800828016F8014F002C3FF444AFA4F12009E2
:101698005FFA89F25E2A7FF64CAF234618460DB0F2
:1016A800BDE8F08F2B7800242DE731780024E5E79A
:1016B8004046984789E64046904742E700914046B1
:1016C800904700994BE7009340469047009B8AE675
:1016D80049070008450700080091404690478145A2
:1016E8000099D8F80000BED3C268AA424DD0009134
:1016F8004046904700F1FF39D8F8000000991FFADA
:1017080089F98268A8F804908A42B1D040460091CD
:1017180090478742AFD3D8F80020009992688A4250
:10172800A8D040469047421E97B2A4E7009340468F
:1017380090474845009BD8F800003FF6D8AEC268ED
:10174800BA4225D04046904700F1FF39D8F800004A
:10175800009B1FFA89F98268A8F804909A423FF41E
:10176800CCAE404600939047B0423FF6C9AED8F899
:101778000020009B92689A423FF4C1AE40469047D1
:10178800431E9EB2BCE60B46C5E64FF07F096AE7EA
:101798004FF07F09ABE600BF7F2914D83F2A12D843
:1017A8004FEAD20C02F0070201EBCC114FF0010C0A
:1017B80008440CFA02F1027D13B10A43027570471E
:1017C80022EA0102027570472DE9F04F8DB01D46DF
:1017D8008B469DF8603005901046029310F8013B47
:1017E800169E179C01921BB1FEF752FD431C9BB23B
:1017F8002878D6F800E010FB03F095F80190B6F9C8
:1018080000204EF30F4800B2B6F902100FFA8EFA14
:10181800B6F9047020EAE0700FFA89FCB6F90630D0
:10182800082C00F2B182DFE814F0F6000D0118016F
:10183800290136014401580166010900002B02EB19
:101848000704059AB8BF0133241A908001EB63039B
:10185800A2F806C0A4B2A3EB5C0314809EB2568023
:10186800DBF80020B14BD168994240F0B682802C59
:1018780028BF7F24AE499268ABF804408A4204919D
:1018880040F095823F2E00D93F26019AABF80660BA
:101898006968177895F800A06E780691002F00F017
:1018A800B6800299002940F045811946154633460D
:1018B800A7F12004E2B25E2A00F2A980DBF800203A
:1018C800D2688A4240F02B818020BBF80420524421
:1018D800824200F32181DBF800200498926882425A
:1018E80040F0EE814020BBF80660F218824200F317
:1018F8001381BBF804E0002B69D003FB04F4BAF1B0
:10190800000F64D06FF00049069AB0460B95A144C9
:101918001C4402EB4909023A02EB44000EF114049C
:1019280003940C46CDE9073ECDE9096708F00703A3
:101938004FF0010C4FEAD8026FF013050CFA03FCC4
:10194800039B39F8027FB8F13F0F03EBC2136FEA2C
:101958000C0E0BEBC21298BF00265FFA8CFC5B449E
:10196800A5EB02055FFA8EFE88BF01260022CDE9AD
:101978000198A94608E01DB919780EEA0101197005
:1019880001320133524516D009EB030807FA02F178
:10199800B8F17F0F94BF354646F001050904EAD433
:1019A800002DEDD11978013201334CEA010152457D
:1019B80003F8011CE8D1DDE90198814508F1010827
:1019C800B4D10B9D2146DDE9073EDDE90967DBF867
:1019D80000000AEB0E04C268A4B28A4240F0BD813E
:1019E800802C28BF7F2482680498ABF80440824288
:1019F80040F09C813F2E00D93F26ABF806602A783C
:101A0800974204D115F8017F002F7FF451AF059854
:101A18000DB0BDE8F08F002FB8BF0137002BB8BF5D
:101A2800013302EB670401EB6306059BA4EB60043A
:101A3800A6EB5C069880A4B2A3F806C0B6B21C80D8
:101A48005E800DE7059B1FFA8AF41FFA88F6C3F833
:101A580000E09880A3F806C002E73B1E1FFA88F64C
:101A6800B8BF01330AEB6304059BA4EB60045980FB
:101A7800A3F806C0A4B298801C80F1E60AEB07041C
:101A8800059B1FFA88F6241A5980A3F806C0A4B249
:101A980098801C80E4E603EB0806059B1FFA8AF48D
:101AA800A6EB09061A809880B6B2A3F806C05E8035
:101AB800D6E6002F01EB0306B8BF0137A6EB0906EF
:101AC80002EB6707059AB6B2A7EB6003A2F806C057
:101AD80090809CB256801480C2E6CE18D419059B1B
:101AE800A6EB0906241AA3F806C0A4B29880B6B2D9
:101AF8001C805E80B4E6002B05991FFA8AF4B8BFF3
:101B080001330A80888008EB6303A1F806C0A3EBC1
:101B18005C039EB24E80A3E62A78002770E7CDE9E1
:101B2800013158469047DDE90131CEE64907000802
:101B3800450700083146019EA7F12004E2B25E2A5B
:101B48003FF665AFDBF80020D2689A4240F0AA80E1
:101B58008020BBF8042052449042C0F2A080DBF8F9
:101B6800002004989268824240F0A3804020BBF88D
:101B780006506A189042C0F29280BBF804C000294F
:101B88006AD001FB04F4BAF1000F65D06FF0004988
:101B9800069AA8460B96A1440C4402EB4909023A5E
:101BA80002EB44000CF1140403941C46CDE907151C
:101BB800CDE9097C4FEAD80308F007024FF0010C81
:101BC80039F8027FDD01B8F13F0F0CFA02FC039AE5
:101BD800C5F1000598BF002602EBC3136FEA0C0E8F
:101BE800A5EB0B055FFA8CFC5B445FFA8EFEA5F152
:101BF800140588BF01260022CDE90198A94608E00E
:101C08001DB919784CEA0101197001320133924566
:101C180016D009EB030807FA02F1B8F17F0F94BF59
:101C2800354646F001050904EAD4002DEDD11978AE
:101C3800013201330EEA0101924503F8011CE8D193
:101C4800DDE90198814508F10108B3D10B9E2346CF
:101C5800DDE90715DDE9097CDBF800000AEB0C0477
:101C6800C268A4B29A4249D1802C28BF7F248268D6
:101C78000498ABF80440824229D13F2D00D93F2572
:101C8800ABF80650327897427FF4C1AE16F8017F60
:101C9800002F7FF451AF05980DB0BDE8F08F327872
:101CA8000027F0E7CDE9011358469047DDE9011315
:101CB8004FE7CDE9011358469047DDE9011356E790
:101CC800CDE9013158469047DDE901310BE6CDE910
:101CD8000113584690478542DDE90113D0D3DBF85C
:101CE8000020049892688242C9D05846CDE9011371
:101CF8009047421EDDE9011395B2C1E7CDE9011312
:101D0800584690478442DBF80000DDE90113AED362
:101D1800C2689A4276D05846CDE901139047441ECE
:101D2800DBF80000A4B2DDE90113A0E7CDE9013139
:101D3800584690478642DDE90131FFF45EAEDBF894
:101D480000200498926882423FF456AE5846904765
:101D5800421EDDE9013196B24FE6CDE90131584620
:101D680090478442DBF80000DDE90131FFF43BAE27
:101D7800C2688A424AD058469047441EDBF80000A1
:101D8800A4B2DDE901312EE6DBF800200024059B32
:101D9800D1681C605C601E4B99421DD19268264632
:101DA8001C49ABF804408A4204913FF46EAD03939A
:101DB80058469047B042039B3FF667ADDBF80020DA
:101DC800049992688A423FF45FAD0393584690475E
:101DD800461E039BB6B258E52646039358468847E5
:101DE800A042DBF80020039B3FF644ADD16899423E
:101DF8000AD0039358468847441EDBF80020A4B253
:101E0800039B37E57F2432E77F2433E57F24EAE527
:101E180049070008450700082DE9F04F89B0A1F1EE
:101E2800200808AC9DF848A004E90C005FFA88F384
:101E38009DF818409DF819905E2B00F2A280036867
:101E48000E46934A0546DB68934240F0FC808020AA
:101E5800AB882344834200F394802B688D4A9B68A7
:101E6800934240F0F2804020EF8807EB0903834259
:101E780000F38780A988B9F1000F6AD009FB08F838
:101E8800079B002C65D06FF0004BC144C34403EBA3
:101E98004B0B023BBAF1000F77D101F1140003EBB1
:101EA8004903BA460393CDE90471294635460646E7
:101EB8000AF007034FEADA024FF001086FF0130740
:101EC8003BF802EFBAF13F0F08FA03F806EBC2132A
:101ED80001EBC21298BF4FF0000C6FEA08090B44DF
:101EE800A7EB02075FFA88F85FFA89F988BF4FF015
:101EF800010C0022CDE901BABB4608E01FB91878E9
:101F080009EA0000187001320133A24216D00BEB27
:101F1800030A0EFA02F0BAF17F0F94BF67464CF03D
:101F280001070004EAD4002FEDD1187801320133FB
:101F380048EA0000A24203F8010CE8D1039BDDE95E
:101F480001BA5B450AF1010AB2D12E46049F0D463B
:101F580005992B680C444E49DA68A4B28A4240F0CD
:101F68008580802C28BF7F249B684A4AAC80934296
:101F78006ED13F2F00D93F273046EF8009B0BDE82A
:101F8800F08F002009B0BDE8F08F01F1140003EBD9
:101F9800490CBA46CDF80CC0CDE90471294635463E
:101FA80006464FEADA030AF007024FF001083BF849
:101FB80002EFDF01BAF13F0F08FA02F806EBC3138C
:101FC800C7F1000798BF4FF0000C6FEA08090B44EF
:101FD800A7EB01075FFA88F85FFA89F988BF4FF025
:101FE800010C143F0022CDE901BABB4608E01FB935
:101FF800187848EA0000187001320133A24216D05E
:102008000BEB030A0EFA02F0BAF17F0F94BF674692
:102018004CF001070004EAD4002FEDD11878013202
:10202800013309EA0000A24203F8010CE8D1039B3E
:10203800DDE901BA9B450AF1010AB2D12E46049F97
:102048000D46059985E7984702E7284698470BE724
:102058002846984787428FD32B680E4A9B6893423D
:1020680089D028469847431E9FB285E7284690475F
:1020780084422B68FFF478AFDA6805498A4205D0B4
:1020880028469047441E2B68A4B26DE77F246BE76F
:1020980049070008450700082DE9F04F83B05D1A8D
:1020A8000C9E002D9DF834E0A6EB0208B8BF6D42E7
:1020B800B8F1000FB8BFC8F100088B4294BF4FF0C9
:1020C800FF394FF001099642A5EB080C07D87F2B82
:1020D8004AD83F2E48D84FF0FF34019405E0012438
:1020E8007F2B019447D83F2E45D8F40806F0070700
:1020F8004FF0010A03EBC4140AFA07FA0444277DD7
:10210800BEF1000F64D047EA0A078B42277501D158
:10211800964226D0C8F10007D4087F2902F0070AA2
:102128004FEA4C0E01EBC4140CD83F2A044409D8DA
:102138004FF0010B0BFA0AFA94F814B04AEA0B0AAA
:1021480084F814A0B7EB4C0F02DAACEB080C494446
:10215800754502DD019CAC4422449942DCD196428B
:10216800DAD103B0BDE8F08F8B4201D19642F8D0A6
:102178004FF0FF340194C8F10007BEF1000FCBD136
:10218800D4083F2A02F0070A4FEA4C0E01EBC414A8
:102198000CD87F29044409D84FF0010B0BFA0AFB2D
:1021A80094F814A02AEA0B0A84F814A0B7EB4C0F91
:1021B80002DAACEB080C4944754502DD019CAC44DD
:1021C80022448B42DCD19642DAD103B0BDE8F08FCD
:1021D80027EA0A079642277501D18B42C1D0C8F178
:1021E8000007CDE7000000002DE9F04F2DED068B2C
:1021F80083B01F4614468B46139E129B002E9DF8F3
:10220800505006EB0302009002DA129276421A4608
:1022180007EE902AB8EEE76BDDED127A9FEDC05B12
:10222800B8EEE77B9FEDC04B27EE057B26EE056BEE
:1022380087EE040B86EE04ABF7EEC08BB0EE680AAF
:1022480012F0D2FCB7EECAAB07EE907AB0EE408A35
:10225800B0EE680AF8EE679A12F0D6FBF0EE408A04
:10226800B0EE4A0A12F0C0FCB0EE409AB0EE4A0A4C
:1022780012F0CAFB68EEE98A20EE690A29EE888A1C
:1022880029EE899A70EE687AF0EE006A39EE487A9B
:1022980067EEA77AE7EE077AF4EEE67AF1EE10FA3F
:1022A80040F18480B42E7CDDC7F101017B424900F6
:1022B800002D40F03A82AC464FEA430EA8460194FE
:1022C800ABEB0300019A7F28624494BF00260126E5
:1022D8003F2A94BF4FF000094FF0010986B9B9F1C0
:1022E800000F0DD1D508009C012702F0070A00EB6A
:1022F800C51507FA0AFA25442F7D27EA0A072F751C
:102308000EEB00057F2D94BF00270127B9F1000FC0
:1023180012D18FB94FEAD209009C02F0070A05EBE7
:10232800C9194C444FF0010909FA0AFA94F81490B3
:1023380029EA0A0984F81490A2EB08023F2A94BFFC
:102348004FF000094FF0010987B9B9F1000F0DD11D
:10235800D708009C02F0070A05EBC715012725449A
:1023680007FA0AFA2F7D27EA0A072F757EB9B9F10D
:10237800000F0CD1D508009C02F0070200EBC51035
:10238800012520449540027D22EA050202758C450C
:1023980080F27E810A468B42C0F288811146002B6A
:1023A8008EDD03B0BDEC068BBDE8F08FC7F10101EF
:1023B8007B420020019549005F4207EE100A424225
:1023C80006EE903A07EE907AB8EEC77AF8EEE66A2B
:1023D800B42EB8EEE76A07EE902A68EE075AF8EED0
:1023E800E77A28EE864A68EEA64A28EE275A75EE5E
:1023F800C43A29EE077A60EE266A69EE277A20EE5B
:10240800066AF5EEC03A00F3DB80F1EE10FA00F14F
:102418005C8175EEE45A0022F5EEC05AF1EE10FA2E
:1024280000F1648175EE644A4FF00009F5EEC04A88
:10243800F1EE10FA00F16D814FF0000835EE445AC4
:10244800B5EEC05AF1EE10FA00F1F1804FF0000E2F
:10245800002A40F09180B9F1000F69D1B8F1000F5E
:102468000BD1BEF1000F29D1814247DD0A468B42CC
:1024780050DB1146002B9FDD93E703EB0B0C221A70
:10248800BCF17F0FEDD83F2AEBD84FEAD208009D68
:1024980002F007020CEBC81C4FF00108AC44019D88
:1024A80008FA02F89CF81420002D00F0E68042EAB1
:1024B80008028CF81420BEF1000FD5D0ABEB030C4A
:1024C800221ABCF17F0FCFD83F2ACDD84FEAD20EBF
:1024D800009D02F007020CEBCE1C4FF0010EAC443D
:1024E800019D0EFA02FE9CF81420002D00F0AE802B
:1024F80042EA0E0281428CF81420B7DC013001EB6D
:102508004002874202F10102B1D1994202DC002166
:102518008B42AEDA013302EB4302511CAAE700BF3B
:102528007A008BFCFA210940000000000080664018
:1025380003EB0B0200EB040C7F2A8FD8BCF13F0F92
:102548008CD84FEADC09009D0CF0070C02EBC9128D
:102558004FF001092A44019D09FA0CF992F814C0B8
:10256800002D00F081804CEA090C82F814C0B8F103
:10257800000F3FF476AF80E7ABEB030C0219BCF118
:102588007F0F3FF668AF3F2A3FF665AF4FEAD20AA2
:10259800009D02F007020CEBCA1C4FF0010AAC4484
:1025A800019D0AFA02FA9CF81420002D53D042EA41
:1025B8000A028CF81420B9F1000F3FF44FAFB7E7C7
:1025C800F1EE10FA7FD477EE463AF5EEC03AF1EE26
:1025D80010FACCBF0122002275EEE45AF5EEC05A7B
:1025E800F1EE10FA6CD437EE667AB5EEC07AF1EEF9
:1025F80010FACCBF4FF001094FF0000975EE644A9C
:10260800F5EEC04AF1EE10FA57D477EEE66AF5EE29
:10261800C06AF1EE10FACCBF4FF001084FF0000885
:1026280035EE445AB5EEC05AF1EE10FA2AD477EED8
:10263800C67AF5EEC07AF1EE10FACCBF4FF0010E73
:102648004FF0000E002A3FF406AF95E722EA0E028B
:102658008CF8142008E722EA0A0A8CF814A0B9F1C9
:10266800000F3FF4FBAE63E72CEA090C82F814C0B4
:10267800B8F1000F3FF4F5AEFFE622EA08028CF845
:102688001420EEE64FF0010E002A3FF4E4AE73E7A3
:102698000CF1010C4FEA4C081CEB030F08F1010286
:1026A8000A447FF478AE8B4280F2D48001334FEA3B
:1026B800430E0EF10101114471E64FF00108AFE736
:1026C8004FF001099AE7012286E777EE463A75EE60
:1026D800E45AF5EEC03AF1EE10FAF5EEC05ACCBF66
:1026E80001220022F1EE10FA7FF59CAE37EE667AF1
:1026F80075EE644AB5EEC07AF1EE10FAF5EEC04A0E
:10270800CCBF4FF001094FF00009F1EE10FA7FF548
:1027180093AE77EEE66AF5EEC06AF1EE10FACCBF3A
:102728004FF001084FF0000888E64FF0000C4FEA20
:10273800430E0194E046ABEB0300019A7F28624404
:1027480094BF002601263F2A94BF4FF000094FF09E
:10275800010996B9B9F1000F0FD1D508009C4FF0C7
:10276800010A02F0070700EBC5150AFA07F7254426
:1027780095F814A047EA0A072F750EEB00057F2D80
:1027880094BF00270127B9F1000F12D18FB94FEA82
:10279800D209009C4FF0010A05EBC9194C4402F01C
:1027A80007090AFA09F994F814A049EA0A0984F809
:1027B8001490A2EB08023F2A94BF4FF000094FF093
:1027C800010997B9B9F1000F0FD1D708009C4FF054
:1027D800010A05EBC71502F0070725440AFA07F7AF
:1027E80095F814A047EA0A072F757EB9B9F1000FCA
:1027F8000CD1D508009C02F0070200EBC51001259A
:10280800204405FA02F2057D2A4302758C4513DB44
:102818000CF1010C4FEA4C081CEB030F08F1010204
:102828000A4413D08B420ADB1146002B83DD03B028
:10283800BDEC068BBDE8F08F8B420A46F4DA013313
:102848004FEA430E0EF101011144EEE78B42F6DB2D
:102858000021E7E700219EE52DE9F04F87B09C466F
:102868009DF84840109B254602949DF84440002D51
:102878003FD061451DD89A421BD804B396467F299C
:10288800744694BF00220122E50804F007070126D8
:102898003F2C01EBC515344406FA07F604D8054465
:1028A80012B92F7D3E432E75A342EDD201318C45DE
:1028B800E5D207B0BDE8F08F01318C45F9D37F2907
:1028C800154694BF00270127EC0805F0070E0126DE
:1028D8003F2D01EBC41406FA0EF606D8044427B9B6
:1028E80094F814E02EEA060626750135AB42EBD2C1
:1028F800E2E7ACEB010EBEF1000FB8BFCEF1000E5F
:10290800614574D3BCF17F0F94BF002501253F2A90
:10291800049594BF002601260396002D40F0BA8343
:10292800002E40F0B7834FF0FF350195D50802F02F
:10293800070601270CEBC515B74005442E7D002C72
:1029480000F0D3823E4361452E7500F0BB8300251D
:10295800CDE90355F04617460D46FE087F2D4FEA90
:10296800480905EBC6160ED83F2F06440BD807F0CA
:10297800070B4FF0010A0AFA0BFA96F814B04AEA64
:102988000B0A86F814A0B9F1000F01DD019E354449
:10299800CE4540DCB2EB070918BF4FF00109AC4542
:1029A80002D1B9F1000F3CD007F0070E01264FEA1B
:1029B800D70A06FA0EF64FEACA1A5FFA86FB05EB43
:1029C8000A067F2D064407D83F2F05D896F814E04D
:1029D8004BEA0E0E86F814E0B8F1000F01D0019E04
:1029E8003544AC45EBD1B9F1000FE8D119E03F2AE5
:1029F80094BF00250125BCF17F0F039594BF0026E5
:102A080001260496002D40F03F83002E40F03C83C1
:102A1800012501958AE7013FF044BA429DD1AC45B2
:102A28009BD19D1A9A4285EAE576A6EBE57635466E
:102A3800019680F08F813F2BC5F100074FF0010808
:102A480094BF4FF0000B4FF0010BBBF1000F40F0AB
:102A58000C83049D002D40F00883DD0803F0070671
:102A68004FF0010E0CEBC5150EFA06FE05442E7D3F
:102A7800002C00F09A8246EA0E069A422E7500F063
:102A880032834FF0000B3E4696466546CDE904B1C9
:102A98004FEADE017F2D4FEA460A05EBC1110FD838
:102AA800BEF13F0F01440BD84FF0010B0EF00709A0
:102AB8000BFA09F991F814B049EA0B0981F8149056
:102AC800B7EB460F02DA0199013D761ABAF1000F09
:102AD800B8BFC644BCEB050118BF0121734502D13C
:102AE800002900F04A81BA45D2DC89460192DDE925
:102AF80004B14FEADE077F2D05EBC7170FD8C719BA
:102B0800BEF13F0F3A460AD84FF0010A0EF0070708
:102B18000AFA07F792F814A047EA0A071775002E71
:102B2800B8BFC6447345E4D1B9F1000FE1D1019AA9
:102B3800A1EB0C06002EB8BF7642614540F2F98041
:102B48007F294FF0010894BF4FF000094FF00109A9
:102B5800B9F1000F40F09282BBF1000F40F08E8275
:102B6800DD0803F007074FF0010E01EBC5150EFA5B
:102B780007FE05442F7D002C00F0028147EA0E076E
:102B880061452F7500F0AC82B6461F46FD08BCF1C2
:102B98007F0F4FEA4E090CEBC5150ED83F2F0544A1
:102BA8000BD807F0070B4FF0010A0AFA0BFA95F851
:102BB80014B04AEA0B0A85F814A0B9F1000FC8BF8F
:102BC800C4444E4500F39F80B3EB070918BF4FF08C
:102BD8000109614502D1B9F1000F20D007F00705BE
:102BE8004FF0010B4FEAD70A0BFA05FB4FEACA1A56
:102BF8005FFA8BFB0CEB0A05BCF17F0F054405D887
:102C08003F2F03D82E7D4BEA06062E75BEF1000F26
:102C180000D0C4446145EDD1B9F1000FEAD1DDF827
:102C28000890A2EB030EBEF1000FB8BFCEF1000E64
:102C38009A4271D9039DCEF1000C002D40F03D82DF
:102C4800B9F1000F40F039820125D60802F00707D4
:102C58004FF0010801EBC61608FA07F80644377D5D
:102C6800002C00F0F28047EA08079A4237753FF4D3
:102C780020AE67460E46DC087F2E4FEA470806EB73
:102C8800C4140ED83F2B04440BD803F0070A4FF0A6
:102C9800010909FA0AF994F814A049EA0A0984F81A
:102CA8001490BCEB470F02DA013EA7EB0E07B8F110
:102CB800000FB8BF5B198C1B18BF01249A4202D1C0
:102CC800002C3FF4F6ADE045D5DCD9087F2E06EBA5
:102CD800C1110ED83F2B01440BD803F0070E4FF05B
:102CE800010C0CFA0EFC91F814E04CEA0E0C81F879
:102CF80014C0002FB8BF5B199A42E6D1002CE4D16A
:102D080007B0BDE8F08F013FB644BB427FF43EAF49
:102D180061457FF43BAF82E7039DCEF1000C002DA7
:102D280040F0C281B9F1000F40F0BE814FF0FF358D
:102D38008BE77F2994BF4FF000094FF00109B9F1E3
:102D4800000F40F09681BBF1000F40F092814FF0E8
:102D5800FF3805E73F2BC6F1000794BF4FF0000B83
:102D68004FF0010BBBF1000F40F07A81049D002D5C
:102D780040F076814FF0FF386FE6DDE904B1D7E621
:102D880027EA0E0761452F7500F0AA81A14637464C
:102D98001D46CDE901284FEAD50A3F2D4FEA470ED7
:102DA8000CEBCA1A10D8BCF17F0F00EB0A080BD83D
:102DB8004FF0010A05F0070B0AFA0BFB98F814A06C
:102DC8002AEA0B0A88F814A0BEF1000F01DD029A66
:102DD8009444764531DCB3EB050E18BF4FF0010E75
:102DE8006145DDE9012803D1BEF1000F3FF419AFB9
:102DF80005F007064FF0010B4FEAD50A10930BFABE
:102E080006FB4FEACA1A6FEA0B0B5FFA8BFB0AEB59
:102E18000C06BCF17F0F0644334605D83F2D03D876
:102E2800367D0BEA06061E7507B1C4446145EED12E
:102E3800BEF1000FEBD1109BF3E6013D3744AB42E6
:102E4800A9D16145A7D1019AEBE627EA08079A427A
:102E580037753FF42EAD67460E46DC083F2B4FEA28
:102E6800470806EBC4140ED87F2E04440BD803F091
:102E780007094FF0010A0AFA09FA94F8149029EAA6
:102E88000A0984F81490BCEB470F02DA013EA7EB5D
:102E98000E07B8F1000FB8BF5B198C1B18BF0124CF
:102EA8009A4202D1002C3FF404ADE045D5DCD908A4
:102EB8003F2B06EBC1110ED87F2E01440BD803F02F
:102EC800070C4FF0010E0EFA0CFE91F814C02CEA14
:102ED8000E0C81F814C0002FB8BF5B199A42E6D1D6
:102EE800002CE4D107B0BDE8F08F26EA070661455B
:102EF8002E7500F0E780CDE90344F04617460D46ED
:102F0800FE087F2D4FEA480905EBC6160ED83F2F5D
:102F180006440BD807F0070A4FF0010B0BFA0AFB1F
:102F280096F814A02AEA0B0A86F814A0B9F1000F43
:102F380001DD019E3544CE452FDCB2EB070918BFF1
:102F48004FF00109AC4503D1B9F1000F3FF469AD69
:102F580007F0070E01264FEAD70A06FA0EFB4FEADA
:102F6800CA1A6FEA0B0B5FFA8BFB05EB0A067F2D7B
:102F7800064407D83F2F05D896F814E00BEA0E0E42
:102F880086F814E0B8F1000F01D0019E3544AC4535
:102F9800EBD1B9F1000FE8D143E5013FF044BA4263
:102FA800AED1AC453FF43DADAAE726EA0E069A42FB
:102FB8002E7500F09880A3463E4696466546CDE9B4
:102FC80004B14FEADE017F2D4FEA460905EBC11136
:102FD8000FD8BEF13F0F01440BD84FF0010A0EF095
:102FE800070B0AFA0BFB91F814A02AEA0B0A81F8DE
:102FF80014A0B7EB460F02DA0199013D761AB9F130
:10300800000FB8BFC644BCEB050118BF01217345CA
:1030180002D100293FF4B1AE4F45D2DB8A46DDF834
:1030280010B0059901924FEADE077F2D05EBC7170F
:103038000DD8C719BEF13F0F3A4608D801270EF040
:10304800070907FA09F9177D27EA09071775002EF6
:10305800B8BFC6447345E6D1BAF1000FE3D166E5BF
:103068009A423FF465AD4FF0FF38002C7FF40BAD6A
:10307800A2E761453FF4D5AD4FF0FF38002C3FF48F
:1030880086AECDF808907FE501250195002C3FF428
:1030980034AF5FE461453FF4C4AC4FF0FF350195B0
:1030A800002C3FF42AAF55E49A423FF402AC4FF0AB
:1030B800FF35002C7FF4DDADCDE60125002C7FF433
:1030C800D8ADC8E69D1A9A4285EAE576A6EBE5767C
:1030D800354601960AD20025CDE90355019DAAE49B
:1030E8004FF000099DE54FF0000B21E56F420025E8
:1030F8004FF0FF380395B0E4B54B0020D3E9002129
:103108002DE9F04F0C78497802EB04141D7C02EB92
:1031180001115E7C94F8462591F84615A2F1FF024C
:10312800A1F1FF01B2FA82F2B1FA81F1520949091B
:1031380062F3070082EA050461F30F2064F3174085
:1031480086EA010464F31F602DED028B18618BB0D1
:103158005869441C00F0D681AA4240F08B808E4208
:1031680040F09380DFF8A0B29BF81835002B00F0F0
:103178009C80DBF838250C329649F2EE080A964B0B
:10318800B0EE000A08689FED957A0244A3FB02039B
:10319800DB0803EB4303A2EB830303F118020B6084
:1031A80007EE902AF8EEE77A77EEC77AC7EEA00A1C
:1031B80011F086FADFED8A7A8A4A9BF8203560EEAC
:1031C800277AC2ED007A33B19BF82635A3F17F0345
:1031D800B3FA83F35B09844A9BF85015107843408F
:1031E800137089B19BF85635804A7F2B11780CBF34
:1031F8000123002383EA0103137005D14FF4806291
:1032080000217B4811F018FF7A4DB7EE008A7A4802
:10321800D5ED007A9FED665BB7EEE70A78EE677A40
:1032280020EE050BB7EEE77A9FED636BA7EE060B72
:10323800B7EEC00B11F08EF9D5ED086A6F4BB7EEFB
:10324800E67A6F4A38EE666AD5F8A0109FED5C4BB7
:103258009FED5D5BB7EEC66A116027EE047BA6EEB4
:10326800057BB7EEC77B83ED007A0BB0BDEC028B14
:10327800BDE8F08FDA68125C0AB98E4209D04FF0C7
:10328800FF32DFF884B15A616EE7DA68125C012A0E
:10329800F5D1072800F1010209D0DFF86CB15A61B5
:1032A8009BF81835002B7FF464AF0C2264E7DFF835
:1032B80058B14FF0FF344FF4806200214C485C61F4
:1032C80011F0BAFE584600F0ADFF4E4BDFF83CC196
:1032D800442193F800A05D780AEB4A095A686B0804
:1032E800A846C9F14009C3F120031FFA89F99BB226
:1032F800B9F17F0F28BF4FF07F093F2B28BF3F232D
:10330800ABF844905E191F461546ABF84630324676
:1033180066462039CBB25E2B00F2B68009EB0A0074
:10332800802800F3B180402A00F2AE80B8F1000F87
:1033380000F09C8008FB01F1BAF1000F00F09680C4
:1033480009F154036FF00049AC1EBE46894441445C
:10335800069704EB4104019305EB49090790009493
:10336800CDE90286CDE904520EF007024FF0010CB8
:103378004FEADE05BEF13F0F0CFA02FCBDF804204F
:1033880039F8027F98BF00266FEA0C0802EBC512D5
:103398004FEAC51588BF01265FFA88F85A445FFAD4
:1033A8008CFC00214346A8463BE000BFAFF30080F9
:1033B800CDCCCCCCCCCCEC3F9A9999999999D93F62
:1033C8009A9999999999C93F7B14AE47E17A843FB4
:1033D8001C040024C85B0024ABAAAAAA00008A42E5
:1033E8000000DC43C45B0024EC5C002414000024CF
:1033F8005C5D002468610024B85B00241800002488
:103408005404002498030024085D00249055010802
:103418001DB910784CEA00001070013101328A455C
:1034280019D06FF0530007FA01F4A0EB0B00A0EBE2
:10343800080010447F2894BF354646F00105200453
:10344800E6D4002DE9D110780131013218408A45BF
:1034580002F8010CE5D1009B0EF1010E4B4583D11A
:10346800DDE90286DDE90452DDE9067083B216F86B
:10347800011FABF846707F2B28BF7F239946ABF816
:10348800443000297FF445AF244EB02400250021A4
:1034980023488DF8274003F0E9F8642301220DF151
:1034A8002701204804F0E0FF1D4829468DF82750E1
:1034B80003F0DCF8012264230DF1270119480134D7
:1034C80004F0D2FF1023294615488DF8273003F061
:1034D800CDF8642301220DF12701124804F0C4FF3E
:1034E80001210F48E4B203F0C1F831466423802279
:1034F8000C48803604F0B8FFB82CC7D1284606F02F
:1035080035F931E69868047894427FF42BAE407818
:1035180088427FF427AE002058611DE65C5D0024D8
:10352800585D0024505D0024F8B5214B214C93F8D8
:1035380040252678002A39D093F846257F2A14BFDB
:10354800334686F001031C4F1C4D39781848237008
:1035580000F0FCFA2978164800F006FB2378B342FD
:103568000ED007EE903A164901231648F8EE677A0E
:10357800154A2B700360C1ED007A00211160F8BD77
:103588002A78002AFBD00F490F480A68013A0A60D6
:10359800002A016801F1FF31016001DA00222A7076
:1035A8000029ECDA83F001033B70F8BD3346CAE723
:1035B800085D002465100024050000246410002420
:1035C800601000245C100024581000240000000043
:1035D8002DE9F047784B002478484FF0FF31DFF8A9
:1035E80000A282B04FF44062B0255646C3E90011EC
:1035F800C3E90211C3E90411C0E900442146C0E946
:103608000244C0E904446E4811F016FD01216D48DA
:1036180000F082FB4FF480622146504611F00CFD09
:103628000024002168488DF8075003F01FF8642330
:1036380001220DF10701654804F016FF6248214692
:103648008DF8074003F012F8012264230DF10701F9
:103658005E48013504F008FF102321465A488DF8CA
:10366800073003F003F8642301220DF107015748DE
:1036780004F0FAFE01215448EDB202F0F7FF31469A
:10368800642380225148803604F0EEFEB82DC7D15D
:1036980020214C4800F01AFA4D4B4A48197800F09E
:1036A80063FA4C4B4748197800F050FA454800F047
:1036B8002DFA0421434800F0E9F94749414800F050
:1036C800E3F9464F06F02CFA07EE100A3B78B8EEFD
:1036D800477BDFF810919FED365B87EE056BFCEEBC
:1036E800C67B17EE908A002B4ED0630745D156460D
:1036F800B0240025002134488DF8074002F0B6FFB9
:10370800642301220DF10701304804F0ADFE2E4874
:1037180029468DF8075002F0A9FF012264230DF114
:1037280007012A48013404F09FFE10232946264841
:103738008DF8073002F09AFF642301220DF107018A
:10374800224804F091FE01211F48E4B202F08EFFE6
:103758003146642380221D48803604F085FEB82C4B
:10376800C7D199F80010E9B1164800F017FA404699
:1037780005F0F6FF3B7873B101244046013405F0AB
:10378800EFFF3B78002BB0D1FFF7CEFEFFF7B4FC7C
:1037980001233B70A9E7FFF7C7FEFFF7ADFC012344
:1037A8003B70E9E74FF480620D4811F045FCDBE718
:1037B800000000000080864068100024801000246B
:1037C80058040024085D0024585D0024505D00243E
:1037D80064100024050000248D0800082CF400243F
:1037E8005C5D0024140000242DE9F0477B4D002483
:1037F8007B4B42F2845A05F294502C606C6140F67F
:1038080061192C62AC64774F774EDFF87482C5E992
:103818000F4302F0B1F905F510434FF60B727349E7
:10382800C3F8F8462846A3F8F426A3F80C273A4626
:10383800C3F8FC46C3F80047C3F81047C3F8144759
:10384800C3F818470723C5F84D1685F8513605F211
:1038580064636749C5F8543640F20113C5F8A445B6
:10386800C5F85C46C5F86046C5F8583610F0D2FE73
:10387800604B3046604A61491A60614A5A60614A41
:103888009A60614ADA60614A1A61614A5A61FCF7D2
:103898007FFF06F118005F49FCF77AFF06F1300058
:1038A8005D49FCF775FF06F148005C49FCF770FFBD
:1038B80006F160005A49FCF76BFF06F17800594998
:1038C800FCF766FF06F190005749FCF761FF06F127
:1038D800A8005649FCF75CFF06F1C0005449FCF704
:1038E80057FF06F1D8005349FCF752FF06F1F000E4
:1038F8005149FCF74DFF06F584705049FCF748FF25
:103908003A464F49204610F085FE4E4B4E4A4F49E5
:103918001A603A464E4810F07DFE4E4E4E482146FB
:103928005246C6F80490306011F086FB3A4630469D
:103938004146B46010F06EFE484E49482146524652
:10394800C6E9000911F078FB3A4641463046B460B2
:1039580010F060FE434AA446434B2746127821469E
:103968001B78264662F3070C404863F3070763F3A6
:10397800070163F30F2C62F3070663F30F2762F363
:103988000F2162F3174C448262F31747384C62F3F5
:103998001F6CDFF8F0E063F31F6763F3174162F30E
:1039A8000F26C46063F31F618EF8013063F3174676
:1039B8008EF80020C4E900C72E4C62F31F666371BD
:1039C8002D4B22714FF0FF3283602C4B21604261F6
:1039D800C0E9005EC3E90016BDE8F087085D002471
:1039E800DC55010800000024CC5B002480707F0FA8
:1039F8002D070008F05C002455D0A4419855010813
:103A08000000DC4118D5124269FF434212F17642A8
:103A180053D0A4429C550108A0550108A45501089B
:103A2800A8550108AC550108B0550108B45501085E
:103A3800B8550108BC550108C0550108C45501080E
:103A48006D070008C45B002412D002432907000850
:103A5800B85B0024A41000243436002498100024F5
:103A6800B010002452040024040000241C04002484
:103A780048040024380400243404002440040024AA
:103A88004D0700085004002400F0C8BB70B5054677
:103A980000F0CCFB05F2544405F21456284600F019
:103AA800FDFB2046203401F075FFB442F6D12846CC
:103AB80000F0F4FB05F26C53284605F5B16583ED7B
:103AC800000A00F0EBFB85ED000A70BD70B50546F5
:103AD80000F0C8FB05F2544405F21456284600F0DD
:103AE800DDFB2046203401F055FFB442F6D12846CC
:103AF80000F0D4FB05F26C53284605F5B16583ED5B
:103B0800000A00F0CBFB85ED000A70BD183002F00A
:103B18009FBA00BF38B500F2544400F2145520464D
:103B2800203401F013FFAC42F9D138BD10B504467A
:103B380000F23C5002F052F804F24C5002F04EF8F9
:103B480004F21450BDE8104001F080BF02460B4655
:103B580049F2F46081F0010102F5104C10448CF830
:103B6800083702F08DBC00BF034649F20C7003F51C
:103B78001042184482F8201702F082BC012904D9A7
:103B880040F25C51084401F0C1BF494201F01C01F8
:103B980001F25C51084401F0B9BF00BF10B50446FA
:103BA80000F25C5001F0C4FF04F5AF60BDE81040BE
:103BB80001F0BEBF2DE9F041A2B007460F20002456
:103BC80000F016FBADF804000222019907A807F1DE
:103BD800180802F033F8102000F00AFBADF80800CE
:103BE800022202990DF12E0007F2544602F026F83F
:103BF800112000F0FDFAADF80C000222039910A87C
:103C080002F01CF8122000F0F3FAADF810000222BE
:103C180004990DF1520002F011F8132000F0E8FAAF
:103C2800ADF814000222059919A802F007F814202B
:103C380000F0DEFAADF81800022206990DF17600C0
:103C480001F0FCFF0423062207A9404602F00AF807
:103C5800E1B2404602F010FA05463846013400F059
:103C68001DFB00233046DFED060A29461A4601F0FF
:103C78003BFE062C06F12006EAD122B0BDE8F08111
:103C88006F12033B70B594B00446022601AD284676
:103C980001F072FF1E2000F0ABFA03461D20ADF8BC
:103CA800083000F0A5FA0DF1140E04F2945CADF89A
:103CB8000A00119695E80F0009AD8CE80F0085E819
:103CC8000F008EE80F00012347F612220546002157
:103CD8000F931293BDF82830D4F89C051392ADF8D1
:103CE8003630D4F8A025BDF82A3010910E95C4F8C6
:103CF800A805C4F8AC25ADF834300AB111F09CF928
:103D08000DA904F2A45005F0A5FA04F5B76001F076
:103D180047FF14B070BD00BF2DE9F04F0446ADB0A9
:103D280000F07AFB204604F21457FFF743FF032004
:103D380000F05EFA0346022004F25445ADF8203044
:103D480000F056FA034604202E46ADF8243000F061
:103D58004FFAADF828003846099A9FEDF60A0899F7
:103D68000A9B01F043FE062000F042FA03469FED4D
:103D7800F10A04F23C50ADF81830069901F016FF2C
:103D8800052000F035FA03469FEDEA0A04F24C508C
:103D9800ADF81C30079901F009FF162000F028FA49
:103DA800ADF810009FEDE40A0022049904F25C507B
:103DB80001F088FE172000F01BFAADF814009FED03
:103DC800DE0A0022059904F5AF6001F07BFE20466B
:103DD800FFF758FF0321204600F028FA204600F09C
:103DE8005DFA3046203601F0D5FDB742F6D104F22F
:103DF8006C58204604F5B16600F050FA204688ED6C
:103E0800000A00F04BFA1021204686ED000A00F067
:103E180029FA204600F042FA2846203501F0BAFD7A
:103E2800AF42F6D120464FF0020900F037FA88ED8C
:103E3800000A49F2F468204600F030FA0025A04450
:103E48004FF00B0A69F3070186ED000A2B4640463E
:103E58006AF30F21012200954FF0090B02F0F6F9E1
:103E6800012249F20C772B4662F3070100953819B5
:103E780016466BF30F2102F0E9F9404604F51048A5
:103E8800294688F8086702F0FBFA3819294688F8A5
:103E9800205702F0F5FA584600F0AAF9ADF8540098
:103EA800504604F1500800F0A3F9A44AA44B0DF1C0
:103EB800580C0F960DF1840EADF85600E24604F149
:103EC8004807CDE91399CDE90B230DF12C090823F7
:103ED800CDE911551093CDE90D55B9E80F00ACE8BF
:103EE8000F00B9E80F00ACE80F0099E807008CE86C
:103EF8000700BAE80F00AEE80F00BAE80F00AEE816
:103F08000F009CE807008EE80700BDF8AC3040467B
:103F180084F85260A4F8503002F0BCFABDF8AE3014
:103F280084F84E6024F84C3F204602F0B3FA21A9E9
:103F3800384604F007FA2946204602F097FB0A2083
:103F480005F00CFC3146204602F090FB0A2005F0F3
:103F580005FCAE23294640468DF80F3002F086FB5B
:103F680032460DF10F016423384604F07DFAD5235B
:103F7800294640468DF80F3002F078FB32460DF1A5
:103F88000F016423384604F06FFA8023294640461F
:103F98008DF80F3002F06AFB32460DF10F016423F1
:103FA800384604F061FAA823294640468DF80F30B8
:103FB80002F05CFB32460DF10F016423384604F031
:103FC80053FA3F23294640468DF80F3002F04EFB46
:103FD80032460DF10F016423384604F045FADA231E
:103FE800294640468DF80F3002F040FB32460DF16D
:103FF8000F016423384604F037FA12232946404655
:104008008DF80F3002F032FB32460DF10F016423B8
:10401800384604F029FAD323294640468DF80F3054
:1040280002F024FB324664230DF10F01384604F0F8
:104038001BFA294640468DF80F5002F017FB32460E
:104048000DF10F016423384604F00EFA4023294687
:1040580040468DF80F3002F009FB32460DF10F0192
:104068006423384604F000FAA623294640468DF812
:104078000F3002F0FBFA32460DF10F016423384687
:1040880004F0F2F9A423294640468DF80F3002F0D7
:10409800EDFA32460DF10F016423384604F0E4F9D5
:1040A8008D23294640468DF80F3002F0DFFA32465C
:1040B8000DF10F016423384604F0D6F9142329467C
:1040C80040468DF80F3002F0D1FA32460DF10F015B
:1040D8006423384604F0C8F9A123294640468DF8E0
:1040E8000F3002F0C3FA32460DF10F01642338464F
:1040F80004F0BAF9C823294640468DF80F3002F07B
:10410800B5FA32460DF10F016423384604F0ACF9D4
:104118008123294640468DF80F3002F0A7FA32462F
:104128000DF10F016423384604F09EF98F232946C8
:1041380008E000BF0000000000007A44060B0B00F6
:104148000105060A40468DF80F3002F08FFA324614
:104158000DF10F016423384604F086F9D923294666
:1041680040468DF80F3002F081FA32460DF10F010A
:104178006423384604F078F92523294640468DF80B
:104188000F3002F073FA32460DF10F0164233846FE
:1041980004F06AF9DB23294640468DF80F3002F017
:1041A80065FA32460DF10F016423384604F05CF9D4
:1041B8003423294640468DF80F3002F057FA32462C
:1041C8000DF10F016423384604F04EF9AF23294658
:1041D80040468DF80F3002F049FA642332460DF15B
:1041E8000F01384604F040F92DB0BDE8F08F00BF4C
:1041F800202882B009D8084B03EB400213F810308E
:10420800507843EA002002B0704701230C2043EAAB
:10421800002002B0704700BF10560108143001F0AA
:104228002DBB00BF143001F03FBB00BF38B500F113
:10423800140504462DED028B284601F0DDFA2846C8
:1042480001F0D6FA2846B0EE408A01F0BFFAD0ED68
:10425800007AF8EE677A88EE277ABDEC028B84ED57
:104268000E7A38BD38B500F1140504462DED028BE1
:10427800284601F0AFFA284601F0BAFA2846B0EE0F
:10428800408A01F0A3FAD0ED007AF8EE677A88EE5A
:10429800277ABDEC028B84ED0E7A38BD90ED0E0ABC
:1042A800704700BF10B540F203318EB000244FF6BE
:1042B8000B7340F20342ADF80810029909A8ADF853
:1042C8001030ADF824300123ADF80C2022460094BC
:1042D80007940C94CDE90544CDE90A4401F0B6FFF2
:1042E80004A8012322460399009401F0AFFF09A80E
:1042F80002F0BAF810B901200EB010BD04A802F0FF
:10430800B3F880F00100C0B240000EB010BD00BF8D
:104318002DE9F04103239AB001270024149306469F
:104328003A4B1094119340F204531597ADF8483066
:10433800CDE91647FFF7B6FFB842054643D0022835
:1043480032D1334B40F601320DF12C080094CDF8F0
:104358004A304FF60B73ADF81820404606993A4696
:10436800ADF82C3023460E94CDE91847CDE90C441E
:1043780001F06CFF2146404602F082F810A906F1D0
:104388003C0003F0E1F8302003224FF07E53414611
:104398000D930E93CDE90B02F26B06F1140001F0B8
:1043A800DDF91AB0BDE8F08140F60132184B0DF185
:1043B8002C08ADF82C200B98CDF84A30CDE91847D9
:1043C80000F0A4F8DAE71023114A06A906908DF840
:1043D80028300DF12C080F4BCDF84A20099402948F
:1043E800CDE90730CDE9180402A802F0B9FA08238C
:1043F800029A03A94046ADF80C508DF80E4004957A
:1044080005930B9400F0C0F8B8E700BF0402040459
:10441800040604030704010B2DE9F041394B044657
:10442800394D40F20112012704F104082DED028BE9
:10443800456082B0A36003F58133ADF8042040F2F3
:10444800027203F580730020A4F82520E36040F68B
:1044580006632782A4F8293084F8277084F82B7023
:1044680000918DF8060005F061FB054605F0C4F9DA
:104478006946064610BB0DB304F130008DF806708E
:1044880005F0D6FA072D2ED104F114052046FFF7C2
:104498003FFF284601F0ACF92846B0EE408A01F00B
:1044A80095F9D0ED007AF8EE677A88EE277A84EDF0
:1044B8000E7A02B0BDEC028BBDE8F08104F1300049
:1044C80005F0B6FA072D13D1002EDDD004F1250032
:1044D80001F0E0FF04F1290001F0DCFF04F1120013
:1044E80000F072F9D0E74146204602F065FCCBE7C0
:1044F8004146204602F060FC002EE7D1002DE5D0B1
:10450800C2E700BF050705060508050910B584B010
:104518000346012403A8ADF80C30ADF80E4001F0B5
:10452800B9FF214603A802F0A1F8204605F016F9C4
:10453800002103A802F09AF8204605F00FF9214659
:1045480003A802F093F804B010BD00BF10B5C2F381
:10455800002384B00C46017C8DF80D2043EA440208
:10456800FA2402238DF80C2003AA009402F088FA9A
:1045780018B10124204604B010BD04460A2005F0F5
:10458800EDF8204604B010BD034670B543F8042B7F
:10459800044684B0FA2507C983E80700A1791E23D9
:1045A800009503AA1A31ADF80C3020460223C9B28F
:1045B800217402F065FA10B1012004B070BD0A2020
:1045C80005F0CCF84FF4B85200950223ADF80C2052
:1045D800204603AA217C02F053FA0028ECD10A20D5
:1045E80005F0BCF841F2027200950223ADF80C20E8
:1045F800204603AA217C02F043FA0028DCD10A20D5
:1046080005F0ACF8042200950223ADF80C202046F2
:1046180003AA217C02F034FA0028CDD10A2005F043
:104628009DF8062200950223ADF80C20204603AA27
:10463800217C02F025FA0028BED10A2005F08EF868
:1046480041F2082200950223ADF80C20204603AA67
:10465800217C02F015FA0028AED10A200A2605F0BE
:104668007DF80095022303AA217C2046ADF80C6052
:1046780002F006FA00289FD1304605F06FF823793A
:104688000C220095002B217C8DF80C20204614BFAD
:10469800622342236A448DF80D30022302F0F0F9B8
:1046A800002889D1304605F059F8A36800952046BE
:1046B800E268217C13432279DBB282F0010243EAEB
:1046C80082136279524202F0200213430E228DF8BF
:1046D8000D3002238DF80C2003AA02F0D1F900282E
:1046E8007FF46AAF304605F039F8102200950223AE
:1046F800ADF80C20204603AA217C02F0C1F900285D
:104708007FF45AAF304605F029F8122100950223AC
:10471800ADF80C1003AA217C204602F0B1F900285C
:104728007FF44AAF304605F019F8012209212046E6
:10473800FFF70CFF003818BF01203EE7F0B5214D08
:1047480087B000240126102702A94FF4805228467A
:104758000194CDE90267CDE904640CF08BF964207B
:1047680005F078FC022302A94FF4805228460293F0
:104778000594CDE903760CF07DF9042302A94FF4E2
:10478800805228460397CDE90434032302930CF0A2
:1047980071F940F23223042202A92846019310231A
:1047A8000496CDE90223019B4FF4805205930CF047
:1047B80061F940F6060128460CF07CF9204607B05E
:1047C800F0BD00BF3CF4002470B51F4B88B0082230
:1047D8001E4E00214FF400641A614FF0020C039240
:1047E8000A225E6020260692402205469960032030
:1047F800196210215C620124C3E905624FF4C0729A
:10480800DC60DA6107229FED0E7BCDE900C204224D
:10481800CDE904016946181D029283ED0A7B0CF06C
:10482800FFF838B92846FFF789FF003818BF01207C
:1048380008B070BD204608B070BD00BFAFF300805F
:10484800001000000000000038F40024404100522D
:104858005E4A0023F0B514688FB00A93002C40F02C
:10486800B2805B4B012103260C2511600227D3F887
:10487800D420584842F48052C3F8D420D3F8D42026
:1048880002F480520092009AD3F8E02042F010021D
:10489800C3F8E020D3F8E02002F010020192019A58
:1048A800D3F8E02042F04002C3F8E020D3F8E0203B
:1048B80002F040020292029AD3F8E02042F0080285
:1048C800C3F8E020D3F8E02002F008020392039A2C
:1048D800D3F8E02042F48072C3F8E020D3F8E02057
:1048E80002F480720492049AD3F8E02042F0800225
:1048F800C3F8E020D3F8E02002F080020592059A80
:10490800D3F8E02042F02002C3F8E020D3F8E020FA
:1049180002F020020692069AD3F8E02042F0040240
:10492800C3F8E0204FF68372D3F8E0300B9603F01B
:1049380004030C9507930223079908A9CDE90823D6
:1049480007F0B6F948F2371308A9234808930C95DD
:104958000997CDE90A4607F0ABF94CF2037308A9A9
:104968001E480893CDE90974CDE90B6507F0A0F955
:1049780040F2FF6308A91A480893CDE90974CDE904
:104988000B6507F095F94FF60C7308A915480893BD
:10499800CDE90974CDE90B6507F08AF94FF63F03B5
:1049A80008A911480893CDE90974CDE90B6507F00A
:1049B8007FF9202308A90B4809970C950893CDE99E
:1049C8000A4607F075F90FB0F0BD00BF30F40024B7
:1049D800004402580010025800180258000C0258EF
:1049E80000200258001C0258001402582DE9F04F0C
:1049F8008BB0DFF818830646BE4800AF14467962CC
:104A080002F0A4FED8F818204369002A00F09B8021
:104A1800D8F81C20D8F804A0002A15BF4FF01009B8
:104A28004FF008094FF0040B4FF0020BBAF1000FDA
:104A380000F09780A200E946012B02F1070222F05C
:104A48000702ADEB020D6846ADEB020DEB4600F038
:104A5800D581022B00F05282002B6CD1002C6AD039
:104A68001A46D8ED0C6A9FEDA47A0146331D36F933
:104A78002250083107EE905A33F922500232F8EEEC
:104A8800E77A944267EE877A67EEA67A41ED027A72
:104A980007EE905AF8EEE77A67EE877A67EEA67A1D
:104AA80041ED017AE3D859462246D0477D6A002174
:104AB800D8ED0D6A9FED977A2B1D90489FED906A6F
:104AC800DFED905A2CE0F4EEC67AF1EE10FA80F29F
:104AD800108267EEA57AFDEEE77A17EE902A12B2F9
:104AE800DBED017A45F8212066EEA77AF4EEC77A65
:104AF800F1EE10FA40F2F481F4EEC67AF1EE10FA13
:104B080080F2F48167EEA57AFDEEE77A17EE902A37
:104B180012B243F8212002310BF1080B8C420DD957
:104B2800DBED007A66EEA77AF4EEC77AF1EE10FABA
:104B3800C9D80246D4E722465946D047CD462C3735
:104B4800BD46BDE8F08FD8F81C20002AF7D0D8F869
:104B580004A04FF008094FF0020BBAF1000F7FF4E0
:104B680069AF3B62D8F80030FB61002BE7D066489C
:104B7800C7F818D002F060FEBBF1020F3B6A38613B
:104B880000F03C826A4660084946A2EBC40278619C
:104B98009546C4F35D026846A0EBC405AD46EE46F3
:104BA800ADEB090D00EB8209EA46ADEB010D09EB0F
:104BB80082010EEB820C6D46CAF8081001EB8201E7
:104BC8003D62CAF80C100CEB820101EB8202CAE9C3
:104BD8000009C5E900ECC5E90212012B00F0388391
:104BE800022B00F02E82002B40F0F781002C00F001
:104BF8003F84BBF1020FD8F8242000F06E84396995
:104C0800DAF80C5002EB810E1A46DAF808100EF1A9
:104C18000403C7F808A0C7F804B08A46FB60331D30
:104C2800DFED355AD7F80CB036F92210D8ED0C7AEA
:104C380006EE101A33F9221006EE901A3EF92210E9
:104C4800B8EEC66A07EE101AF8EEE66A3BF92210CB
:104C5800B8EEC77A26EE256A66EEA56A27EE257AAB
:104C680026EE276A66EEA76A27EE277A07EE901ADD
:104C780051080232F8EEE77A00EB810C94428CED91
:104C8800006A09EB810C67EEA57ACCED006A0AEBA5
:104C9800810C05EB81018CED007A98ED0C7A67EEBA
:104CA800877AC1ED007ABFD8D7E901BA7A69504648
:104CB800D7E9073198473A6ABBF1020F98ED0D7AA8
:104CC800D8F82C30D2E900CE00F09E843A69002151
:104CD800786A03EB82093B6ADFED0E6A9FED086A8A
:104CE80009F10408DFED075A044ED3E902AB031DAE
:104CF80075E000BF88F40024000000380280FFFF40
:104D080004FF7F3F00FEFF468CF4002470F400246B
:104D18000000003404FF7FBFF4EEC67AF1EE10FA0B
:104D280080F28C8167EEA57AFDEEE77A17EE905A4D
:104D38002DB240F821500EEB0205D5ED007A67EE52
:104D4800277AF4EEE67AF1EE10FA40F25381F4EEA7
:104D5800C67AF1EE10FA80F26E8167EEA57AFDEE62
:104D6800E77A17EE905A2DB243F821500AEB020564
:104D7800D5ED007A67EE277AF4EEE67AF1EE10FACE
:104D880040F23681F4EEC67AF1EE10FA80F26A83C8
:104D980067EEA57AFDEEE77A17EE905A2DB25A44DF
:104DA80049F82150D2ED007A67EE277AF4EEE67AD8
:104DB800F1EE10FA40F22081F4EEC67AF1EE10FA24
:104DC80080F2538367EEA57AFDEEE77A17EE902A14
:104DD80012B248F8212002318C4240F203814A087D
:104DE8000CEB82059200D5ED007A67EE277AF4EE97
:104DF800E67AF1EE10FA8FD835469AE7002C3FF4A0
:104E08009AAED8ED0C6A84461FED3F7A0021331D17
:104E180056F821200CF1080C82F40002A2F50002D9
:104E280007EE902A53F821200231F8EEE77A82F44F
:104E380000028C42A2F5000267EE877A67EEA67A36
:104E48004CED027A07EE902AF8EEE77A67EE877A59
:104E580067EEA67A4CED017ADAD859462246D04751
:104E68007D6A0021D8ED0D6A1FED567A2B1DB648D4
:104E78009FEDBC6AB54E28E0F4EEC67AF1EE10FA62
:104E880032DAF0EE675AFEEEE45A15EE902ADBEDC0
:104E9800017A45F8212066EEA77AF4EEC77AF1EE9A
:104EA80010FA1FD9F4EEC67AF1EE10FA24DAF0EE11
:104EB800675AFEEEE45A15EE902A43F82120023193
:104EC8000BF1080B8C427FF639AEDBED007A66EE0B
:104ED800A77AF4EEC77AF1EE10FACDD80246D6E7F3
:104EE800024616E60246E8E73246D0E747F6FE7283
:104EF8000FE647F6FE72F3E53246DEE7002C3FF494
:104F08001AAED8ED0C6A01469FED917A0022331D46
:104F180056F82250083107EE905A53F822500232C0
:104F2800F8EEE77A944267EE877A67EEA67A41ED63
:104F3800027A07EE905AF8EEE77A67EE877A67EE1C
:104F4800A67A41ED017AE3D859462246D0477D6AD0
:104F58000021D8ED0D6A9FED827A2B1D7D489FEDCB
:104F6800816A7D4E28E0F4EEC67AF1EE10FA32DA64
:104F7800F0EE675AFEEEE05A15EE902ADBED017A64
:104F880045F8212066EEA77AF4EEC77AF1EE10FA1A
:104F98001DD9F4EEC67AF1EE10FA1ADAF0EE675A75
:104FA800FEEEE05A15EE902A43F8212002310BF16B
:104FB800080B8C427FF6C2ADDBED007A66EEA77A6D
:104FC800F4EEC77AF1EE10FACDD80246D6E70246DB
:104FD800EAE73246E8E73246D0E77A695046396A66
:104FE800FB699847D7F818D02C37BD46BDE8F08F35
:104FF8003546D4E63546B7E63246EAE6A2004946E3
:10500800650807327D6122F00702ADEB020D6846A4
:10501800ADEB020D6A46ADEB090D00EB8509EA46DA
:10502800ADEB010D69460A6002EB850239624A6000
:10503800CAE90009D1E547F6FE7595E647F6FE751B
:1050480077E6002C00F01482BBF1020FD8F8243068
:1050580000F06B823A69C7F808A003EB820EC7F824
:1050680004B0DFED3B5A00220EF10405DAE9021321
:10507800FB608A46331DD7F80CB056F82210D8EDDD
:105088000C7A07EE101A53F82210B8EEC76A07EE2A
:10509800101A5EF82210F8EEC76A07EE101A26EE0C
:1050A800256A55F82210B8EEC77A66EEA56A26EE8C
:1050B800276A27EE257A66EEA76A27EE277A07EE93
:1050C800901A51080232F8EEE77A00EB810C94420C
:1050D8008CED006A09EB810C67EEA57ACCED006ACD
:1050E8000AEB810C0BEB81018CED007A98ED0C7AC0
:1050F80067EE877AC1ED007ABFD8D7E901BA7A6935
:105108005046D7E9073198473A6ABBF1020FD8ED04
:105118000D7AD8F82C30D2E900CE00F0D3823A6963
:1051280000217D6A03EB82093B6ADFED0D6A9FED82
:105138000D6A09F10408074EDFF81CB0D3E902A391
:105148003B622B1D6BE000BF7E0080FF82FF7F006B
:1051580000000030007E00800082FF7F00000034E5
:1051680004FF7FBF04FF7F3FB4EEC67AF1EE10FA6A
:105178006ADAF0EE475AFEEEE05A15EE900A45F864
:1051880021000EEB020090ED007A27EE877AB4EE4C
:10519800E67AF1EE10FA53D9B4EEC67AF1EE10FAC7
:1051A80054DAF0EE475AFEEEE05A15EE900A43F84C
:1051B80021000AEB020090ED007A27EE877AB4EE20
:1051C800E67AF1EE10FA39D9B4EEC67AF1EE10FAB1
:1051D80080F24681F0EE475AFEEEE05A15EE900A4C
:1051E80049F82100386A024492ED007A27EE877A5E
:1051F800B4EEE67AF1EE10FA24D9B4EEC67AF1EEFE
:1052080010FA80F22B81F0EE475AFEEEE05A15EEC6
:10521800902A48F8212002318C427FF6E3AE4A08F2
:105228000CEB8200920090ED007A27EE877AB4EEBC
:10523800E67AF1EE10FA97D83046A0E73046CFE785
:105248003046B4E73246E4E7584698E75846AEE7B2
:10525800002C00F00D81BBF1020FD8F8243000F0CB
:105268000D813A690021C7F80CA003EB820C5FEDB1
:10527800455AC7F808B00CF1040EDAE902231D46B6
:105288009246331D56F82120D8ED0C7A82F400029C
:10529800A2F5000207EE102A53F8212082F400023A
:1052A800B8EEC76AA2F5000226EE256A07EE102AB4
:1052B8005CF8212082F40002F8EEC76A26EE276A1D
:1052C800A2F5000266EEA56A07EE102A5EF8212014
:1052D800B8EEC77A82F4000266EEA76AA2F5000269
:1052E80027EE257A27EE277A07EE902A4A08023118
:1052F800F8EEE77A00EB820B8C428BED006A09EB43
:10530800820B67EEA57ACBED006A0AEB820B05EB00
:1053180082028BED007A98ED0C7A67EE877AC2EDFF
:10532800007AAFD8D7E902BA7A695046D7E9073187
:1053380098473A6ABBF1020FD8ED0D7AD8F82C30AD
:10534800D2E900CE00F018813A6900217D6A03EBAA
:1053580082093B6A5FED7E6A1FED7E6A09F10408E7
:10536800CF4EDFF84CB3D3E902A33B622B1D58E0C4
:10537800B4EEC67AF1EE10FA6ADAF0EE475AFEEEAB
:10538800E45A15EE900A45F821000EEB020090ED64
:10539800007A27EE877AB4EEE67AF1EE10FA51D960
:1053A800B4EEC67AF1EE10FA50DAF0EE475AFEEE95
:1053B800E45A15EE900A43F821000AEB020090ED3A
:1053C800007A27EE877AB4EEE67AF1EE10FA37D94A
:1053D800B4EEC67AF1EE10FA3CDAF0EE475AFEEE79
:1053E800E45A15EE900A49F82100386A024492ED11
:1053F800007A27EE877AB4EEE67AF1EE10FA23D92E
:10540800B4EEC67AF1EE10FA26DAF0EE475AFEEE5E
:10541800E45A15EE902A48F8212002318C427FF692
:10542800E1AD4A080CEB8200920090ED007A27EE7D
:10543800877AB4EEE67AF1EE10FA99D83046A2E708
:105448003046D0E73046B6E73246E4E75846B2E79A
:10545800584698E75846C6E75A46DCE75A46D8E61B
:105468005846BDE647F6FE7599E447F6FE72B0E485
:105478002246396A5046FB699847B3E598ED0C6AAD
:105488000021DFED886A331D56F8212082F40002DE
:10549800A2F5000207EE902A53F8212082F40002B8
:1054A800B8EEE77AA2F5000227EE267A07EE902AF0
:1054B8004A080231F8EEE77A00EB820527EE067A11
:1054C80009EB82028C4267EEA67A85ED007A67EED8
:1054D800867AC2ED007AD7D826E71A4698ED0C6A84
:1054E800DFED716A331D36F9221007EE101A33F911
:1054F800221007EE901AB8EEC77A51080232F8EE79
:10550800E77A27EE267A00EB8105944209EB8101C0
:1055180067EEA67A27EE067A67EE867A85ED007A38
:10552800C1ED007ADFD8FFF7C1BB98ED0C6A002205
:10553800DFED5E6A331D56F8221007EE901A53F815
:105548002210B8EEE77A07EE901A51080232F8EE08
:10555800E77A27EE267A00EB8105944209EB810170
:1055680067EEA67A27EE067A67EE867A85ED007AE8
:10557800C1ED007ADFD8C2E57A6A0021DFED4F6A13
:105588009FED4F6A131D46489046494E27E0B4EEFA
:10559800C67AF1EE10FA35DAF0EE475AFEEEE45A22
:1055A80015EE905A724448F8215092ED007A27EE91
:1055B800877AB4EEE67AF1EE10FA1FD9B4EEC67A1D
:1055C800F1EE10FA1CDAF0EE475AFEEEE45A15EE48
:1055D800902A43F8212002318C427FF603AD4A0815
:1055E8000CEB8205920095ED007A27EE877AB4EEEF
:1055F800E67AF1EE10FACAD80546D3E70246E8E79C
:105608003246E6E73546CDE77D6A0020DFED2B6AB6
:105618009FED2B6A2B1DDFED275A274E29E0F4EE6C
:10562800C67AF1EE10FA35DA67EEA57AFDEEE77A7A
:1056380017EE901A09B2724445F82010D2ED007A9C
:1056480067EE277AF4EEE67AF1EE10FA20D9F4EE56
:10565800C67AF1EE10FA20DA67EEA57AFDEEE77A5F
:1056680017EE902A12B243F82020023084427FF6C7
:10567800B9AC42080CEB82019200D1ED007A67EEDA
:10568800277AF4EEE67AF1EE10FAC8D83146D2E776
:105698003246E8E747F6FE71CDE747F6FE72E2E7E5
:1056A8007E0080FF00000034000000380000003059
:1056B80082FF7F0000FEFF460280FFFF04FF7FBFDE
:1056C80004FF7F3F7A6A00215FED046A1FED046AD8
:1056D800131D20489046204E27E0B4EEC67AF1EE1E
:1056E80010FA35DAF0EE475AFEEEE05A15EE905A07
:1056F800724448F8215092ED007A27EE877AB4EE8A
:10570800E67AF1EE10FA1FD9B4EEC67AF1EE10FA85
:105718001CDAF0EE475AFEEEE05A15EE902A43F8EE
:10572800212002318C427FF65DAC4A080CEB8205E1
:10573800920095ED007A27EE877AB4EEE67AF1EEDC
:1057480010FACAD80546D3E70246E8E73246E6E744
:105758003546CDE7007E00800082FF7F30B5184CCB
:10576800154685B0046004F1080EEC460FC98EE8B2
:105778000F00D4ED047AF5EEC07A8CE80F00F1EE54
:1057880010FA1ADDB7EE006A94ED057A27EE277A4B
:10579800C6EE276A84ED0D7AC4ED0C6A6DB1204619
:1057A80040F8185F01F0D2FF064903690020064A55
:1057B8002162A262E36005B030BD012005B030BDB2
:1057C80070F4002400200030000000300068083029
:1057D800704700BFB1F5807F03680A4628BF4FF4C1
:1057E8008072B1F5807F9A6094BF002001207047D5
:1057F8000068183002F00EB870B504688AB0A36962
:10580800E160CBB104F11805284601F09FFF8446FA
:10581800EE46E668BCE80F00AEE80F00BCE80F00F3
:10582800AEE80F009CE803008EE8030069462846AE
:10583800049601F089FEF0B9E369CBB104F11C05C7
:10584800284601F083FF8446EE46E468BCE80F0072
:10585800AEE80F00BCE80F00AEE80F009CE80300BC
:105868008EE8030069462846049401F06DFE10B9DD
:1058780000200AB070BD01200AB070BD30B50468C0
:1058880083B008480D46A368A26A216A9B0000906D
:1058980004F1180001F05CFF0020C4E9000503B022
:1058A80030BD00BFF549000810B50468A3691BB1F5
:1058B80004F1180001F0A2FFE3691BB104F11C0018
:1058C80001F09CFF002010BD064B302003214FF053
:1058D8007E52C3E90201002000211A615A61C3E91E
:1058E8000601704770F40024F6EE007A9FED166A00
:1058F80020EE207A0160F7EE006A80ED036A80ED01
:10590800020A27EE277AC6EE877AF4EEE67AF1EEF7
:1059180010FA11DDF0EE667A4FF07E514FF0000C70
:1059280002760022C0ED017AC0F814C00161437606
:105938008276C0ED070A7047F4EEC67AF1EE10FAE7
:10594800EAD5F0EE467AE7E7000000000268037E39
:10595800128807EE902AFBEEC87A1BB1B7EE007AE0
:1059680077EE677AD0ED056A90ED047A77EEE67AFD
:10597800437E67EE877A0BB1F1EE677A90ED030A02
:1059880090ED017A77EEC07AA7EE270A80ED030A38
:10599800704700BF837E80ED020AABB9D0ED077A6D
:1059A80027EE800AF6EE007AB7EE007A20EE270A94
:1059B800C7EE007AF4EEC77AF1EE10FA07DDF0EEE2
:1059C800477AC0ED017A7047DFED067AE8E7F5EE31
:1059D800C07AF1EE10FAF4D5DFED037AC0ED017A62
:1059E800704700BF6F12033B0000000030B585B060
:1059F80004460025ADF80C10ADF80820ADF80430C9
:105A080003F0AAFEBDF80C204FF48073206004F167
:105A180018002283BDF808206383E383A2832571DD
:105A280000F038FD04F11C0000F034FD9FED060A7B
:105A3800019904F1080000F0B9F84FF6FF736562A8
:105A4800238405B030BD00BF00000000F8B504464F
:105A580003F082FE002523682571834205D104F1F5
:105A68000800BDE8F84000F0B9B8012694F82070A5
:105A7800206004F11800267100F0EAFD40EA4703AF
:105A880004F11C0094F8217084F8203000F0E0FD47
:105A980094F8203040EA4700656203F00303C0B27F
:105AA800022B84F8210009D000F003000228D6D187
:105AB800002BD4D14FF0FF336362D0E78307CED1F8
:105AC8006662CCE770B52DED028B82B004460126E4
