:020000040800F2
:10000000000002208D07000889070008D9D80008E1
:100010008907000889070008890700080000000018
:100020000000000000000000000000008907000838
:100030008907000800000000890700085DD8000853
:100040008907000889070008890700088907000850
:100050008907000889070008890700088907000840
:1000600089070008890700088907000891B6000879
:100070009DB60008D9990008A9B60008B5B60008D1
:1000800019D30008C5A100088907000889070008DE
:100090008907000889070008890700088907000800
:1000A00089070008890700088907000889070008F0
:1000B000D1800108DD800108E9800108F5A1000870
:1000C0008907000801A2000889070008FDC100088F
:1000D00009C2000829D1000859D1000891D10008AF
:1000E0008907000889070008000000008907000848
:1000F00089070008890700088907000889070008A0
:100100008907000889070008F580010815C2000862
:10011000C9D1000801D20008890700088907000832
:10012000890700088907000839C200086DC2000865
:100130004DD30008890700088907000889070008CF
:1001400000000000000000000000000000000000AF
:1001500089070008890700088907000839D20008C4
:100160000DA20008890700086DD8000891D8000882
:1001700089070008B5D80008890700088907000822
:10018000890700088907000871D20008A9D2000871
:1001900021C200082DC2000889070008890700084D
:1001A00089070008890700088907000889070008EF
:1001B00009B30008890700088907000889070008B3
:1001C00089070008890700088907000889070008CF
:1001D00089070008890700088907000889070008BF
:1001E00089070008890700088907000889070008AF
:1001F000890700088907000889070008890700089F
:10020000890700088907000889070008890700088E
:10021000890700088907000889070008890700087E
:100220008907000889070008890700080000000006
:1002300089070008890700080000000089070008F6
:10024000890700088907000889070008890700084E
:10025000890700088907000889070008890700083E
:10026000890700088907000889070008890700082E
:100270008907000889070008E1D200080000000093
:1002800089070008890700088907000800000000A6
:080290000000000089070008CE
:1002A00001F0FF01102A2BDB10F0070F08D010F827
:1002B000013B013A8B422DD010F0070F42B3F6D12B
:1002C000F0B441EA012141EA014122F007047FF044
:1002D00000070023F0E80256083C85EA010586EA9B
:1002E000010685FA47F5A3FA87F586FA47F6A5FAD7
:1002F00087F68EB9EED1F0BC01F0FF0102F00702E3
:1003000032B110F8013B013A83EA010313B1F8D18D
:100310000020704701387047002D06BF354603386E
:10032000073815F0010F07D1013015F4807F02BFA7
:10033000013015F4C03F0130F0BC0138704700BFF8
:10034000034613F8012B002AFBD1181A0138704715
:1003500081F0004102E000BF83F0004330B54FEA76
:1003600041044FEA430594EA050F08BF90EA020FE3
:100370001FBF54EA000C55EA020C7FEA645C7FEA76
:10038000655C00F0E2804FEA5454D4EB5555B8BF99
:100390006D420CDD2C4480EA020281EA030382EA0A
:1003A000000083EA010180EA020281EA0303362D9C
:1003B00088BF30BD11F0004F4FEA01314FF4801C6F
:1003C0004CEA113102D0404261EB410113F0004F81
:1003D0004FEA03334CEA133302D0524263EB430338
:1003E00094EA050F00F0A780A4F10104D5F1200ED6
:1003F0000DDB02FA0EFC22FA05F2801841F1000131
:1004000003FA0EF2801843FA05F359410EE0A5F104
:1004100020050EF1200E012A03FA0EFC28BF4CF035
:10042000020C43FA05F3C01851EBE37101F00045EB
:1004300007D54FF0000EDCF1000C7EEB00006EEBF8
:100440000101B1F5801F1BD3B1F5001F0CD3490882
:100450005FEA30004FEA3C0C04F101044FEA4452D9
:1004600012F5800F80F09A80BCF1004F08BF5FEA60
:10047000500C50F1000041EB045141EA050130BD40
:100480005FEA4C0C404141EB0101013C28BFB1F552
:10049000801FE9D291F0000F04BF01460020B1FA9D
:1004A00081F308BF2033A3F10B03B3F120020CDA70
:1004B0000C3208DD02F1140CC2F10C0201FA0CF04E
:1004C00021FA02F10CE002F11402D8BFC2F1200CB3
:1004D00001FA02F120FA0CFCDCBF41EA0C01904069
:1004E000E41AA2BF01EB0451294330BD6FEA0404B2
:1004F0001F3C1CDA0C340EDC04F11404C4F120029D
:1005000020FA04F001FA02F340EA030021FA04F3AE
:1005100045EA030130BDC4F10C04C4F1200220FA05
:1005200002F001FA04F340EA0300294630BD21FA43
:1005300004F0294630BD94F0000F83F4801306BF09
:1005400081F480110134013D4EE77FEA645C18BFFD
:100550007FEA655C29D094EA050F08BF90EA020F94
:1005600005D054EA000C04BF1946104630BD91EA8C
:10057000030F1EBF0021002030BD5FEA545C05D18F
:100580004000494128BF41F0004130BD14F58004CE
:100590003CBF01F5801130BD01F0004545F0FE4142
:1005A00041F470014FF0000030BD7FEA645C1ABF77
:1005B000194610467FEA655C1CBF0B46024650EAAE
:1005C000013406BF52EA033591EA030F41F40021DA
:1005D00030BD00BF90F0000F04BF0021704730B560
:1005E0004FF4806404F132044FF000054FF0000135
:1005F00050E700BF90F0000F04BF0021704730B5F6
:100600004FF4806404F1320410F0004548BF4042CA
:100610004FF000013EE700BF42004FEAE2014FEA1F
:1006200031014FEA02701FBF12F07F4393F07F4FFA
:1006300081F06051704732F07F4208BF704793F0FD
:100640007F4F04BF41F40021704730B54FF4607410
:1006500001F0004521F000411CE700BF50EA010213
:1006600008BF704730B54FF000050AE050EA0102BC
:1006700008BF704730B511F0004502D5404261EB2C
:1006800041014FF4806404F132045FEA915C3FF46D
:10069000D8AE4FF003025FEADC0C18BF03325FEA0A
:1006A000DC0C18BF033202EBDC02C2F1200300FABB
:1006B00003FC20FA02F001FA03FE40EA0E0021FAE0
:1006C00002F11444BDE600BF53B94AB9002908BF7E
:1006D00000281CBF4FF0FF314FF0FF3000F00CB886
:1006E000ADF1080C6DE904CE1AF05AFFDDF804E014
:1006F000DDE9022304B07047704700BF0348044B94
:10070000834202D0034B03B1184770471C040024F6
:100710001C040024000000000548064B1B1AD90FDA
:1007200001EBA301491002D0034B03B118477047F6
:100730001C0400241C0400240000000010B5064C1A
:10074000237843B9FFF7DAFF044B13B10448AFF342
:1007500000800123237010BD20040024000000004D
:1007600080F3010808B5054B1BB105490548AFF3F7
:100770000080BDE80840FFF7CFBF00BF00000000C9
:100780002404002480F30108FEE700BF0B480C4A54
:10079000904203D0121A0B491AF05EF90A480B4A2C
:1007A000904203D0121A00211AF0BEF80DF03EFB61
:1007B0001AF01CF905F084FEFEE700BF00000024DB
:1007C0001C040024B0F3010820040024BC4D0124C3
:1007D000704700BF704700BF49424FF48062143039
:1007E000C9B21AF0A1B800BF8020704740207047FE
:1007F000012A02D022B1002070470160002070471A
:1008000002600020704700BF012A02D022B1002000
:10081000704701600020704702600020704700BFF1
:10082000012A02D022B100207047016000207047E9
:1008300002600020704700BF012A02D022B10020D0
:10084000704701600020704702600020704700BFC1
:1008500000F500539B6910B504462BB142F210011C
:100860000322014408469847204610BD10B50446AF
:1008700040F2144117F077FF204610BD38B50A4CFE
:10088000A4F1E00554F8080C0C21383C08B117F02D
:100890006AFF606B182120B117F065FFAC42F1D1FF
:1008A00038BDAC42EED138BD5C07002438B50568D0
:1008B00004469DB1E86908B117F057FF286A08B1EE
:1008C00017F053FFE86808B117F04FFF286808B128
:1008D00017F04BFF2821284617F045FF204638BD6A
:1008E00091ED007A9FED060BB7EEC77A08B527EEBB
:1008F000000B18F0EDFEB7EEC00B08BDAFF30080A3
:10090000182D4454FB21194091ED007A9FED060B00
:10091000B7EEC77A08B527EE000B18F0D9FEB7EE90
:10092000C00B08BDAFF30080182D4454FB210940D3
:1009300091ED007A9FED0A0BB7EEC77A08B527EE66
:10094000000B18F085FEB7EE007BB6EE006B37EEBD
:10095000400B20EE060BB7EEC00B08BDAFF30080D6
:10096000182D4454FB21194091ED000A08B518F0E8
:1009700093FDB7EEC00A9FED047B20EE070BB7EEA8
:10098000C00B08BDAFF3008083C8C96D305FE43F82
:100990002DE9F043B02683B000F1080500F11408FA
:1009A00000F2144905F10804002700218DF80760C2
:1009B0002046013609F0B6FA642301220DF1070141
:1009C0002846F6B20BF080FE204639468DF80670B8
:1009D00009F0A8FA012264230DF1060128460BF064
:1009E00073FE1023394620468DF8053009F09AFA37
:1009F000642301220DF1050128460BF065FE01215B
:100A0000204609F08FFA414608F1800864238022CD
:100A100028460BF059FEC845C4D103B0BDE8F083A9
:100A20002DE9F04F141A5E1A9DF824A0002CB8BFCF
:100A30006442002EB8BF7642824294BF4FF0FF3727
:100A400001278B42A4EB060C06D87F2A4DD83F2BFA
:100A50004BD84FF0FF3805E07F2A4FF001084AD805
:100A60003F2B48D84FEAD30E3E4D4FF0010902EB21
:100A7000CE1E754403F0070E09FA0EF995F854E0FE
:100A8000BAF1000F64D04EEA090E824285F854E0B4
:100A900001D18B4227D075424FEAD10E7F28DFF873
:100AA000C4A001F0070900EBCE1E4FEA4C0B0CD896
:100AB0003F29D64409D84FF0010A0AFA09F99EF8ED
:100AC00054A049EA0A098EF85490B5EB4C0F02DAAB
:100AD000ACEB060C38445C4501DD4144A444824241
:100AE000DAD18B42D8D1BDE8F08F824201D18B425E
:100AF000F9D04FF0FF387542BAF1000FCCD14FEA70
:100B0000D10E3F29DFF85CA001F0070900EBCE1EF3
:100B10004FEA4C0B0CD87F28D64409D84FF0010A75
:100B20000AFA09FA9EF8549029EA0A098EF85490B4
:100B3000B5EB4C0F02DAACEB060C38445C4501DD3A
:100B40004144A4448242DAD18B42D8D1BDE8F08F2F
:100B50002EEA090E8B4285F854E001D18242C2D0C0
:100B60007542CCE76C0700242DE9F04F8DB00CAD39
:100B70009DF8584005E90C000B78002B00F0C2806E
:100B80000A469DF829109DF828B003910B9904910D
:100B9000002C40F0BC801C4680461546A4F120097C
:100BA0005FFA89F35E2B00F27081D8F80030C44FF1
:100BB000DB68BB4240F074818020B8F804305B44AD
:100BC000834200F36781D8F800309A68BD4B9A429F
:100BD00040F071814020B8F8066003997218824293
:100BE00000F35881B8F804C000296AD001FB09F964
:100BF000BBF1000F65D06FF0004A049A0993CA4414
:100C0000894402EB4A0A023A02EB49000CF1140251
:100C1000B14602901046CDE907453C46CDE9056C4A
:100C200009F007034FEAD9024FF0010C6FF01305EA
:100C30003AF8027FB9F13F0F0CFA03FC00EBC21344
:100C400008EBC21298BF00266FEA0C0E4344A5EBD6
:100C500002055FFA8CFC5FFA8EFE88BF0126002237
:100C6000CDE9009AAA4608E01DB919780EEA0101FB
:100C70001970013201335A4516D00AEB030907FAFD
:100C800002F1B9F17F0F94BF354646F00105090422
:100C9000EAD4002DEDD11978013201334CEA01017B
:100CA0005A4503F8011CE8D1029BDDE9009A9A45F8
:100CB00009F10109B4D12746079CDDE9056CDDE99E
:100CC0000853D8F80000DC44C2681FFA8CF9BA4215
:100CD00040F02481B9F1800F28BF4FF07F0982686E
:100CE000A8F804909A4240F034813F2E00D93F2664
:100CF000A8F806602B789C4205D115F8014F002C0E
:100D00007FF44CAF002318460DB0BDE8F08F1C46B1
:100D100016468046A4F120095FFA89F25E2A00F2A5
:100D2000B480D8F80020664DD268AA4240F0BB805B
:100D30008020B8F804205A44824200F3AE80D8F8EC
:100D40000020604992688A4240F0B0804020B8F8A4
:100D50000670039BFA18824200F39F80B8F804C023
:100D6000002B6AD003FB09F9BBF1000F65D06FF0CF
:100D7000004A0991CA449944049B9A1E03EB4A0A0B
:100D80000CF1140302EB4900B94602901846CDE974
:100D900007462C46CDE9057C4FEAD90309F0070246
:100DA0004FF0010C3AF8027FDD01B9F13F0F0CFA68
:100DB00002FC00EBC313C5F1000598BF00266FEAE3
:100DC0000C0E4344A5EB08055FFA8CFC5FFA8EFE1F
:100DD00088BF0126143D0022CDE900A9AA4608E0FB
:100DE0001DB919784CEA01011970013201335A45D5
:100DF00016D00AEB030907FA02F1B9F17F0F94BF8D
:100E0000354646F001050904EAD4002DEDD11978E4
:100E1000013201330EEA01015A4503F8011CE8D101
:100E2000029BDDE900A99A4509F10109B4D12546E3
:100E3000079CDDE9057CDDE90861D8F800000BEBD3
:100E40000C09C2681FFA89F9AA423DD1B9F1800F95
:100E500028BF4FF07F098268A8F804908A424DD1DC
:100E60003F2F00D93F27A8F8067031788C4240F018
:100E7000828016F8014F002C3FF444AFA4F1200902
:100E80005FFA89F25E2A7FF64CAF234618460DB012
:100E9000BDE8F08F2B7800242DE731780024E5E7BA
:100EA0004046984789E64046904742E700914046D1
:100EB000904700994BE7009340469047009B8AE695
:100EC000E9070008ED07000800914046904781457A
:100ED0000099D8F80000BED3C268AA424DD0009154
:100EE0004046904700F1FF39D8F8000000991FFAFA
:100EF00089F98268A8F804908A42B1D040460091EE
:100F000090478742AFD3D8F80020009992688A4270
:100F1000A8D040469047421E97B2A4E700934046AF
:100F200090474845009BD8F800003FF6D8AEC2680D
:100F3000BA4225D04046904700F1FF39D8F800006A
:100F4000009B1FFA89F98268A8F804909A423FF43E
:100F5000CCAE404600939047B0423FF6C9AED8F8B9
:100F60000020009B92689A423FF4C1AE40469047F1
:100F7000431E9EB2BCE60B46C5E64FF07F096AE70A
:100F80004FF07F09ABE600BF2DE9F04F8DB01D4655
:100F90008B469DF8603005901046029310F8013B97
:100FA000169E179C01921BB1FFF7CAF9431C9BB216
:100FB0002878D6F800E010FB03F095F80190B6F918
:100FC00000204EF30F4800B2B6F902100FFA8EFA65
:100FD000B6F9047020EAE0700FFA89FCB6F9063021
:100FE000082C00F2B182DFE814F0F6000D011801C0
:100FF000290136014401580166010900002B02EB6A
:101000000704059AB8BF0133241A908001EB6303EB
:10101000A2F806C0A4B2A3EB5C0314809EB2568073
:10102000DBF80020B14BD168994240F0B682802CA9
:1010300028BF7F24AE499268ABF804408A420491ED
:1010400040F095823F2E00D93F26019AABF806600A
:101050006968177895F800A06E780691002F00F067
:10106000B6800299002940F045811946154633465D
:10107000A7F12004E2B25E2A00F2A980DBF800208A
:10108000D2688A4240F02B818020BBF80420524471
:10109000824200F32181DBF80020049892688242AA
:1010A00040F0EE814020BBF80660F218824200F367
:1010B0001381BBF804E0002B69D003FB04F4BAF100
:1010C000000F64D06FF00049069AB0460B95A1441A
:1010D0001C4402EB4909023A02EB44000EF11404ED
:1010E00003940C46CDE9073ECDE9096708F00703F4
:1010F0004FF0010C4FEAD8026FF013050CFA03FC15
:10110000039B39F8027FB8F13F0F03EBC2136FEA7C
:101110000C0E0BEBC21298BF00265FFA8CFC5B44EE
:10112000A5EB02055FFA8EFE88BF01260022CDE9FD
:101130000198A94608E01DB919780EEA0101197055
:1011400001320133524516D009EB030807FA02F1C8
:10115000B8F17F0F94BF354646F001050904EAD483
:10116000002DEDD11978013201334CEA01015245CD
:1011700003F8011CE8D1DDE90198814508F1010877
:10118000B4D10B9D2146DDE9073EDDE90967DBF8B7
:1011900000000AEB0E04C268A4B28A4240F0BD818E
:1011A000802C28BF7F2482680498ABF804408242D8
:1011B00040F09C813F2E00D93F26ABF806602A788C
:1011C000974204D115F8017F002F7FF451AF0598A5
:1011D0000DB0BDE8F08F002FB8BF0137002BB8BFAE
:1011E000013302EB670401EB6306059BA4EB60048B
:1011F000A6EB5C069880A4B2A3F806C0B6B21C8029
:101200005E800DE7059B1FFA8AF41FFA88F6C3F883
:1012100000E09880A3F806C002E73B1E1FFA88F69C
:10122000B8BF01330AEB6304059BA4EB600459804B
:10123000A3F806C0A4B298801C80F1E60AEB07046C
:10124000059B1FFA88F6241A5980A3F806C0A4B299
:1012500098801C80E4E603EB0806059B1FFA8AF4DD
:10126000A6EB09061A809880B6B2A3F806C05E8085
:10127000D6E6002F01EB0306B8BF0137A6EB09063F
:1012800002EB6707059AB6B2A7EB6003A2F806C0A7
:1012900090809CB256801480C2E6CE18D419059B6B
:1012A000A6EB0906241AA3F806C0A4B29880B6B229
:1012B0001C805E80B4E6002B05991FFA8AF4B8BF43
:1012C00001330A80888008EB6303A1F806C0A3EB12
:1012D0005C039EB24E80A3E62A78002770E7CDE932
:1012E000013158469047DDE90131CEE6E9070008B3
:1012F000ED0700083146019EA7F12004E2B25E2A04
:101300003FF665AFDBF80020D2689A4240F0AA8031
:101310008020BBF8042052449042C0F2A080DBF849
:10132000002004989268824240F0A3804020BBF8DD
:1013300006506A189042C0F29280BBF804C000299F
:101340006AD001FB04F4BAF1000F65D06FF00049D8
:10135000069AA8460B96A1440C4402EB4909023AAE
:1013600002EB44000CF1140403941C46CDE907156C
:10137000CDE9097C4FEAD80308F007024FF0010CD1
:1013800039F8027FDD01B8F13F0F0CFA02FC039A35
:10139000C5F1000598BF002602EBC3136FEA0C0EDF
:1013A000A5EB0B055FFA8CFC5B445FFA8EFEA5F1A2
:1013B000140588BF01260022CDE90198A94608E05E
:1013C0001DB919784CEA01011970013201339245B7
:1013D00016D009EB030807FA02F1B8F17F0F94BFAA
:1013E000354646F001050904EAD4002DEDD11978FF
:1013F000013201330EEA0101924503F8011CE8D1E4
:10140000DDE90198814508F10108B3D10B9E23461F
:10141000DDE90715DDE9097CDBF800000AEB0C04C7
:10142000C268A4B29A4249D1802C28BF7F24826826
:101430000498ABF80440824229D13F2D00D93F25C2
:10144000ABF80650327897427FF4C1AE16F8017FB0
:10145000002F7FF451AF05980DB0BDE8F08F3278C2
:101460000027F0E7CDE9011358469047DDE9011365
:101470004FE7CDE9011358469047DDE9011356E7E0
:10148000CDE9013158469047DDE901310BE6CDE960
:101490000113584690478542DDE90113D0D3DBF8AC
:1014A0000020049892688242C9D05846CDE90113C1
:1014B0009047421EDDE9011395B2C1E7CDE9011362
:1014C000584690478442DBF80000DDE90113AED3B3
:1014D000C2689A4276D05846CDE901139047441E1F
:1014E000DBF80000A4B2DDE90113A0E7CDE901318A
:1014F000584690478642DDE90131FFF45EAEDBF8E5
:1015000000200498926882423FF456AE58469047B5
:10151000421EDDE9013196B24FE6CDE90131584670
:1015200090478442DBF80000DDE90131FFF43BAE77
:10153000C2688A424AD058469047441EDBF80000F1
:10154000A4B2DDE901312EE6DBF800200024059B82
:10155000D1681C605C601E4B99421DD19268264682
:101560001C49ABF804408A4204913FF46EAD0393EA
:1015700058469047B042039B3FF667ADDBF800202A
:10158000049992688A423FF45FAD039358469047AE
:10159000461E039BB6B258E5264603935846884735
:1015A000A042DBF80020039B3FF644ADD16899428E
:1015B0000AD0039358468847441EDBF80020A4B2A3
:1015C000039B37E57F2432E77F2433E57F24EAE578
:1015D000E9070008ED0700087F2914D83F2A12D830
:1015E0004FEAD20C02F0070201EBCC114FF0010CD4
:1015F00008440CFA02F1027D13B10A4302757047E8
:1016000022EA0102027570472DE9F04F89B0A1F17D
:10161000200808AC9DF848A004E90C005FFA88F3A4
:101620009DF818409DF819905E2B00F2A280036887
:101630000E46934A0546DB68934240F0FC808020CA
:10164000AB882344834200F394802B688D4A9B68C7
:10165000934240F0F2804020EF8807EB0903834279
:1016600000F38780A988B9F1000F6AD009FB08F858
:10167000079B002C65D06FF0004BC144C34403EBC3
:101680004B0B023BBAF1000F77D101F1140003EBD1
:101690004903BA460393CDE9047129463546064607
:1016A0000AF007034FEADA024FF001086FF0130760
:1016B0003BF802EFBAF13F0F08FA03F806EBC2134A
:1016C00001EBC21298BF4FF0000C6FEA08090B44FF
:1016D000A7EB02075FFA88F85FFA89F988BF4FF035
:1016E000010C0022CDE901BABB4608E01FB9187809
:1016F00009EA0000187001320133A24216D00BEB48
:10170000030A0EFA02F0BAF17F0F94BF67464CF05D
:1017100001070004EAD4002FEDD11878013201331B
:1017200048EA0000A24203F8010CE8D1039BDDE97E
:1017300001BA5B450AF1010AB2D12E46049F0D465B
:1017400005992B680C444E49DA68A4B28A4240F0ED
:101750008580802C28BF7F249B684A4AAC809342B6
:101760006ED13F2F00D93F273046EF8009B0BDE84A
:10177000F08F002009B0BDE8F08F01F1140003EBF9
:10178000490CBA46CDF80CC0CDE90471294635465E
:1017900006464FEADA030AF007024FF001083BF869
:1017A00002EFDF01BAF13F0F08FA02F806EBC313AC
:1017B000C7F1000798BF4FF0000C6FEA08090B440F
:1017C000A7EB01075FFA88F85FFA89F988BF4FF045
:1017D000010C143F0022CDE901BABB4608E01FB955
:1017E000187848EA0000187001320133A24216D07E
:1017F0000BEB030A0EFA02F0BAF17F0F94BF6746B3
:101800004CF001070004EAD4002FEDD11878013222
:10181000013309EA0000A24203F8010CE8D1039B5E
:10182000DDE901BA9B450AF1010AB2D12E46049FB7
:101830000D46059985E7984702E7284698470BE744
:101840002846984787428FD32B680E4A9B6893425D
:1018500089D028469847431E9FB285E7284690477F
:1018600084422B68FFF478AFDA6805498A4205D0D4
:1018700028469047441E2B68A4B26DE77F246BE78F
:10188000E9070008ED0700082DE9F04F83B05D1A65
:101890000C9E002D9DF834E0A6EB0208B8BF6D4207
:1018A000B8F1000FB8BFC8F100088B4294BF4FF0E9
:1018B000FF394FF001099642A5EB080C07D87F2BA2
:1018C0004AD83F2E48D84FF0FF34019405E0012458
:1018D0007F2B019447D83F2E45D8F40806F0070720
:1018E0004FF0010A03EBC4140AFA07FA0444277DF7
:1018F000BEF1000F64D047EA0A078B42277501D179
:10190000964226D0C8F10007D4087F2902F0070AC2
:101910004FEA4C0E01EBC4140CD83F2A044409D8FA
:101920004FF0010B0BFA0AFA94F814B04AEA0B0ACA
:1019300084F814A0B7EB4C0F02DAACEB080C494466
:10194000754502DD019CAC4422449942DCD19642AB
:10195000DAD103B0BDE8F08F8B4201D19642F8D0C6
:101960004FF0FF340194C8F10007BEF1000FCBD156
:10197000D4083F2A02F0070A4FEA4C0E01EBC414C8
:101980000CD87F29044409D84FF0010B0BFA0AFB4D
:1019900094F814A02AEA0B0A84F814A0B7EB4C0FB1
:1019A00002DAACEB080C4944754502DD019CAC44FD
:1019B00022448B42DCD19642DAD103B0BDE8F08FED
:1019C00027EA0A079642277501D18B42C1D0C8F198
:1019D0000007CDE7000000002DE9F04F2DED068B4C
:1019E00083B01F4614468B46139E129B002E9DF813
:1019F000505006EB0302009002DA129276421A4629
:101A000007EE902AB8EEE76BDDED127A9FEDC05B32
:101A1000B8EEE77B9FEDC04B27EE057B26EE056B0E
:101A200087EE040B86EE04ABF7EEC08BB0EE680ACF
:101A300017F03EF9B7EECAAB07EE907AB0EE408AE7
:101A4000B0EE680AF8EE679A17F042F8F0EE408AB6
:101A5000B0EE4A0A17F02CF9B0EE409AB0EE4A0AFE
:101A600017F036F868EEE98A20EE690A29EE888ACE
:101A700029EE899A70EE687AF0EE006A39EE487ABB
:101A800067EEA77AE7EE077AF4EEE67AF1EE10FA5F
:101A900040F18480B42E7CDDC7F101017B42490016
:101AA000002D40F03A82AC464FEA430EA84601941E
:101AB000ABEB0300019A7F28624494BF0026012605
:101AC0003F2A94BF4FF000094FF0010986B9B9F1E0
:101AD000000F0DD1D508009C012702F0070A00EB8A
:101AE000C51507FA0AFA25442F7D27EA0A072F753C
:101AF0000EEB00057F2D94BF00270127B9F1000FE1
:101B000012D18FB94FEAD209009C02F0070A05EB07
:101B1000C9194C444FF0010909FA0AFA94F81490D3
:101B200029EA0A0984F81490A2EB08023F2A94BF1C
:101B30004FF000094FF0010987B9B9F1000F0DD13D
:101B4000D708009C02F0070A05EBC71501272544BA
:101B500007FA0AFA2F7D27EA0A072F757EB9B9F12D
:101B6000000F0CD1D508009C02F0070200EBC51055
:101B7000012520449540027D22EA050202758C452C
:101B800080F27E810A468B42C0F288811146002B8A
:101B90008EDD03B0BDEC068BBDE8F08FC7F101010F
:101BA0007B420020019549005F4207EE100A424245
:101BB00006EE903A07EE907AB8EEC77AF8EEE66A4B
:101BC000B42EB8EEE76A07EE902A68EE075AF8EEF0
:101BD000E77A28EE864A68EEA64A28EE275A75EE7E
:101BE000C43A29EE077A60EE266A69EE277A20EE7B
:101BF000066AF5EEC03A00F3DB80F1EE10FA00F170
:101C00005C8175EEE45A0022F5EEC05AF1EE10FA4E
:101C100000F1648175EE644A4FF00009F5EEC04AA8
:101C2000F1EE10FA00F16D814FF0000835EE445AE4
:101C3000B5EEC05AF1EE10FA00F1F1804FF0000E4F
:101C4000002A40F09180B9F1000F69D1B8F1000F7E
:101C50000BD1BEF1000F29D1814247DD0A468B42EC
:101C600050DB1146002B9FDD93E703EB0B0C221A90
:101C7000BCF17F0FEDD83F2AEBD84FEAD208009D88
:101C800002F007020CEBC81C4FF00108AC44019DA8
:101C900008FA02F89CF81420002D00F0E68042EAD1
:101CA00008028CF81420BEF1000FD5D0ABEB030C6A
:101CB000221ABCF17F0FCFD83F2ACDD84FEAD20EDF
:101CC000009D02F007020CEBCE1C4FF0010EAC445D
:101CD000019D0EFA02FE9CF81420002D00F0AE804B
:101CE00042EA0E0281428CF81420B7DC013001EB8D
:101CF0004002874202F10102B1D1994202DC002187
:101D00008B42AEDA013302EB4302511CAAE700BF5B
:101D10007A008BFCFA210940000000000080664038
:101D200003EB0B0200EB040C7F2A8FD8BCF13F0FB2
:101D30008CD84FEADC09009D0CF0070C02EBC912AD
:101D40004FF001092A44019D09FA0CF992F814C0D8
:101D5000002D00F081804CEA090C82F814C0B8F123
:101D6000000F3FF476AF80E7ABEB030C0219BCF138
:101D70007F0F3FF668AF3F2A3FF665AF4FEAD20AC2
:101D8000009D02F007020CEBCA1C4FF0010AAC44A4
:101D9000019D0AFA02FA9CF81420002D53D042EA61
:101DA0000A028CF81420B9F1000F3FF44FAFB7E7E7
:101DB000F1EE10FA7FD477EE463AF5EEC03AF1EE46
:101DC00010FACCBF0122002275EEE45AF5EEC05A9B
:101DD000F1EE10FA6CD437EE667AB5EEC07AF1EE19
:101DE00010FACCBF4FF001094FF0000975EE644ABC
:101DF000F5EEC04AF1EE10FA57D477EEE66AF5EE4A
:101E0000C06AF1EE10FACCBF4FF001084FF00008A5
:101E100035EE445AB5EEC05AF1EE10FA2AD477EEF8
:101E2000C67AF5EEC07AF1EE10FACCBF4FF0010E93
:101E30004FF0000E002A3FF406AF95E722EA0E02AB
:101E40008CF8142008E722EA0A0A8CF814A0B9F1E9
:101E5000000F3FF4FBAE63E72CEA090C82F814C0D4
:101E6000B8F1000F3FF4F5AEFFE622EA08028CF865
:101E70001420EEE64FF0010E002A3FF4E4AE73E7C3
:101E80000CF1010C4FEA4C081CEB030F08F10102A6
:101E90000A447FF478AE8B4280F2D48001334FEA5B
:101EA000430E0EF10101114471E64FF00108AFE756
:101EB0004FF001099AE7012286E777EE463A75EE80
:101EC000E45AF5EEC03AF1EE10FAF5EEC05ACCBF86
:101ED00001220022F1EE10FA7FF59CAE37EE667A11
:101EE00075EE644AB5EEC07AF1EE10FAF5EEC04A2E
:101EF000CCBF4FF001094FF00009F1EE10FA7FF569
:101F000093AE77EEE66AF5EEC06AF1EE10FACCBF5A
:101F10004FF001084FF0000888E64FF0000C4FEA40
:101F2000430E0194E046ABEB0300019A7F28624424
:101F300094BF002601263F2A94BF4FF000094FF0BE
:101F4000010996B9B9F1000F0FD1D508009C4FF0E7
:101F5000010A02F0070700EBC5150AFA07F7254446
:101F600095F814A047EA0A072F750EEB00057F2DA0
:101F700094BF00270127B9F1000F12D18FB94FEAA2
:101F8000D209009C4FF0010A05EBC9194C4402F03C
:101F900007090AFA09F994F814A049EA0A0984F829
:101FA0001490A2EB08023F2A94BF4FF000094FF0B3
:101FB000010997B9B9F1000F0FD1D708009C4FF074
:101FC000010A05EBC71502F0070725440AFA07F7CF
:101FD00095F814A047EA0A072F757EB9B9F1000FEA
:101FE0000CD1D508009C02F0070200EBC5100125BA
:101FF000204405FA02F2057D2A4302758C4513DB65
:102000000CF1010C4FEA4C081CEB030F08F1010224
:102010000A4413D08B420ADB1146002B83DD03B048
:10202000BDEC068BBDE8F08F8B420A46F4DA013333
:102030004FEA430E0EF101011144EEE78B42F6DB4D
:102040000021E7E700219EE52DE9F04F8BB0904697
:102050001E46149F9DF85440CDE90210084610F822
:10206000011B19B1FEF76CF9411C89B298F800B058
:1020700098F801301BFB01F1D6F800900FFA83FCB1
:10208000019309B2B6F9000049F30F4E0FFA89FA2D
:1020900021EAE171B6F90250B6F90420B6F906302A
:1020A000082F00F2FF81DFE817F0CB00D800E7002F
:1020B000FE0008011D0136014A0109001044002BF1
:1020C000A0EB010080B2C0F2C68005EB63027F285E
:1020D000039BA2EB5C029980194692B218800346DA
:1020E00028BF7F233F2A4A80A1F806C028BF3F228D
:1020F000DFF8BCE3D8F80400AEF84430029BAEF839
:1021000046201A78002A00F09780019E002C40F0AB
:102110002F81144607461A46A4F12003D9B25E293E
:1021200000F28A80BEF844C00BEB0C05802D00F352
:102130008380BEF84600811940297DDC002E68D0DE
:1021400006FB03F1BBF1000F63D06FF0004A0CF106
:102150005403A7F1020C81468A44314407EB4A0A32
:102160000CEB4101CDE904600291CDE90647CDE9D0
:10217000082509F007024FF0010C4FEAD9053AF89B
:10218000027F0CFA02FCB9F13F0F03EBC512CDF848
:1021900004A06FEA0C084FEAC51594BF002601267B
:1021A0005FFA8CFC72445FFA88F80021AA4608E0C6
:1021B0001DB9107808EA000010700131013259454C
:1021C0001AD06FF0530007FA01F4A0EB0E00A0EB59
:1021D0000A0010447F2894BF354646F001052004CC
:1021E000E6D4002DE9D11078013101324CEA00002B
:1021F000594502F8010CE4D1DDF804A009F1010908
:10220000029A9245B5D1DDE90460DDE90647DDE9D2
:102210000825ADB27F2D28BF7F25402808BF3F206D
:10222000AEF84450AEF846001378A34204D112F839
:10223000014F002C7FF470AF03980BB0BDE8F08F16
:10224000002AB8BF0132002B00EB6200A0EB610056
:1022500080B2BFF63AAF013337E7039BAAB2C3F8A7
:1022600000903F2A9980A3F806C083B228BF3F227E
:102270007F2B28BF7F233BE7131E03981FFA8EF2A4
:10228000B8BF01334580A0F806C00AEB6303A3EB97
:1022900061039BB23F2A818028BF3F227F2B0380AE
:1022A00028BF7F2324E70AEB020303981FFA8EF26C
:1022B0005B1A4580A0F806C0EBE7039A91801146AF
:1022C0001080A2F806C0019AAEEB02021A441FFA6F
:1022D0008AF392B27F2B28BF7F233F2A4A8028BFF0
:1022E0003F2205E7002A1D44B8BF013200EB62021D
:1022F0000398A2EB6103019AA0F806C09BB2AA1A48
:10230000818092B27F2B038028BF7F233F2A4280A7
:1023100028BF3F22ECE61044EA18039D431AA98027
:1023200001999BB2A5F806C0521A7F2B2B8092B25E
:1023300028BF7F233F2A6A8028BF3F22D8E6002B90
:102340001FFA8AFAB8BF01330EEB6302039BA2EBBC
:102350005C02998018801946A3F806C0534692B2D1
:102360007F2B4A8028BF7F233F2A28BF3F22BFE61A
:1023700014460746029AA4F12003D9B25E293FF61B
:102380005BAFBEF844C00BEB0C05802D3FF754AF9C
:10239000BEF84600811940293FF74EAF002E69D0A4
:1023A00006FB03F1BBF1000F64D06FF0004A0CF1A3
:1023B0005403A7F1020C81468A4431440CEB4101DD
:1023C00007EB4A0ACDE906470C46CDE90460CDE9A2
:1023D000082509F007024FF0010C4FEAD9053AF839
:1023E000027F0CFA02FCB9F13F0F03EBC5124FF06C
:1023F00000016FEA0C084FEAC51594BF00260126BC
:102400005FFA8CFC72445FFA88F8CDE901A9AA460C
:1024100008E01DB910784CEA00001070013101325B
:1024200059451BD06FF0530007FA01F9A0EB0E00DD
:10243000A0EB0A0010447F2894BF354646F0010502
:1024400019F4004FE5D1002DE8D1107801310132A7
:1024500008EA0000594502F8010CE3D1DDE901A9C1
:10246000A24509F10109B4D1DDE90460DDE90647BF
:10247000DDE90825ABB27F2B28BF7F23402808BFAA
:102480003F20AEF84430AEF846001378A3427FF404
:10249000D3AE12F8014F002C7FF46DAF03980BB050
:1024A000BDE8F08F0023039A136053601A461FE6BD
:1024B0006C0700242DE9F04F2DED088B8DB00646FA
:1024C0000F461446C94D0BF079FAC94B98602B782A
:1024D000002B41F05B80C74B1B780493002C00F06D
:1024E000E787013CBB46069663080B9300230793DE
:1024F000C14BD3F80080D8E90154C246DFEDBF6A72
:10250000B7EE006ADDED047ABD4BCBED016AB8EEA3
:10251000E77ACBED006AD3ED007ABA4B36EE676A04
:10252000B94AD3ED005A049927EEA58AA6EE078A88
:1025300082ED008A83ED008A29B9B0EE668AC2ED89
:10254000006AC3ED006A07EE905A069BF8EE675AE0
:10255000D3ED006AF0EE087A542328EE268A04FBB5
:1025600003F327EE277AE7EE087AF0EE676A07EEC4
:10257000903ADAF80030F8EE677A03EB840387EEDE
:10258000A56A83ED008AA14B1A6807EE902A002AFB
:102590001346B8EEE77AB8BF531C013A5B1027EE3A
:1025A000267A591C0591FDEEC67AB5EE006BCDED8D
:1025B000027AB7EEC77A029827EE067BBDEEC77B9C
:1025C00017EE103A8B42B8BF0B469342A8BF134692
:1025D0007F2810D83F2B0ED8D90803F0070300EB53
:1025E000C1118B480844012101FA03F390F85410FB
:1025F0000B4380F85430874B02991B68994200F0D6
:102600008E818C1C844BC81C013183FB0456E5175A
:102610004FEAE17CC5EB2615039583FB005683FB4F
:102620000135C317CCEB251C039DC3EB26175423A0
:1026300003FB154403FB1C1C03FB1707059B0394BA
:10264000A2EB03081946B8F1000FB8BFC8F10008A3
:102650009342C8F100030193C0F0E3863F2A4FF094
:10266000FF3994BF00230123BCF17F0F11D883B938
:10267000D408674802F0070500230CEBC41420447B
:10268000012404FA05F590F8544024EA050480F882
:1026900054400598904200F07087019C26460A93AA
:1026A00065466346CDE90871C10800F0070CDFF804
:1026B00060E1012705EBC1117F2D07FA0CF74FEA06
:1026C000460C714407D83F2805D891F854E02EEA0B
:1026D000070E81F854E0B4EB460F02DA013DA6EB99
:1026E0000806BCF1000F00DA4844591B18BF01214D
:1026F000824202D1002900F0A186A445D4DC0A9BC5
:102700008E460196C108424E00F007074FF0010CBB
:1027100005EBC1113F280CFA07F70E4407D87F2DAF
:1027200005D896F8541021EA070186F8541001994B
:102730000029B8BF48448242E4D1BEF1000FE1D184
:1027400003987F280646DDE9087100F27F86002B9A
:1027500040F07C860398D30801257F2F00EBC3133C
:102760002B4894BF4FF0000C4FF0010C184402F0BE
:102770000703019405FA03F390F854502B433D46A8
:1027800080F85430059B934200F0F1860A9121466F
:102790000598CDE90875C30800F00707DFF870E079
:1027A000012506EBC3137F2E05FA07F54FEA440710
:1027B000734407D83F2805D893F854E045EA0E053E
:1027C00083F85450B1EB440F02DA013EA4EB080445
:1027D000002F039BB8BF4844F31A18BF012382425D
:1027E0001CD1002B00F03B8618E000BF909E002417
:1027F000949E00247906002468070024000000004D
:10280000280000242C00002430000024640600244A
:102810006C0700243C040024310CC3308F42BADC26
:102820000A990393C308D44F00F007054FF0010E37
:1028300006EBC3133F280EFA05F51F4406D87F2E7A
:1028400004D897F854301D4387F85450002CB8BF73
:1028500048448242E6D1039B002BE3D1DDE90875B1
:10286000BCF1000F13D1D408C34802F00706059B42
:1028700007EBC414934220444FF0010404FA06F617
:1028800090F8544024EA060480F8544047D0019C54
:10289000A446CB084FF0010EB74E01F0070005EB40
:1028A000C3137F2D0EFA00F004FA0EFE334407D84E
:1028B0003F2905D893F8546026EA000083F85400B5
:1028C000BCEB440F02DA013DA4EB0804BEF1000F9B
:1028D000B8BF4944781B18BF01208A4200D1F0B12B
:1028E000E645D6DC0194CB08A34C01F0070701268E
:1028F00005EBC3133F2906FA07F6234407D87F2DBB
:1029000005D893F8544024EA060483F85440019B08
:10291000002BB8BF49448A42E5D10028E3D1974B48
:10292000029A1A60049B002B40F0CE82944BD3F89D
:1029300000C000230CF20F550CF110070CF24F529F
:10294000CBF80030CBF80430DAF808302846DAF853
:10295000045039460133B3FBF5F405FB1434CAF8CF
:10296000084010F8013F13B10B6801330B6090422F
:1029700001F10401F5D1834BF7EE003ADFED825A05
:10298000B0EE003A5A6BF5EE006A804B92ED016AA8
:10299000D2ED047A86EE257A92ED024AD2ED034A10
:1029A00092ED005A73EEE75A67EE867AE4EE257AE6
:1029B000C2ED017A35EE074A37EE247A82ED004AFD
:1029C00077EE447A82ED037AD3ED004A93ED016A03
:1029D000F0EEE77A1B7A36EE646AE7EE836A76EE0B
:1029E000E46AC6EE867A5BB9F5EEC07AF1EE10FACB
:1029F00000F14785F4EEE37AF1EE10FA80F24E85AD
:102A0000F7EE006ADFED624A624E77EEA67ABDEE1F
:102A1000E76AB8EEC66A77EEC67A67EEA47ABDEECC
:102A2000E76A16EE103A5942C3F30A03C1F30A01EA
:102A300058BF4B4206EE103A591C06EB8303B8EE22
:102A4000C66A484277EEC67ABDEEE76AB8EEC66A55
:102A500077EEC67A93ED006AC1F30A03C0F30A0168
:102A600058BF4B4276EEE76A06EB8303D3ED004A8C
:102A700067EEA47AE6EE867A65EEA75A414BF7EE4A
:102A8000004ADFED413ABDEEC76ADB6EF5EE006A43
:102A900074EEE57AB8EEC66AB0EE003A67EE847A74
:102AA00037EE466AE7EE257A82ED036AD3ED035AE4
:102AB000BDEEE77AB8EEC77A77EEC77A93ED017A82
:102AC00087EE234AD3ED023AC2ED007AB4EEE75A1C
:102AD000D3ED047A93ED005A34EEE76A67EE877A15
:102AE000F1EE10FAB0EE667AE3EE867ACCBF012101
:102AF00000211175254A75EE043A34EE254AC3EDDE
:102B0000017AC3ED003A74EE635A83ED034AD2EDC5
:102B1000007AD2ED016AF0EEE55A127A76EEE76AB3
:102B2000A5EE837A37EE677AC7EE267A5AB9F5EEC4
:102B3000C07AF1EE10FA00F19784F4EEE47AF1EE47
:102B400010FA80F2B084B7EE007ADFED115A114E20
:102B500077EE877AFDEEE76AF8EEE66A77EEE67AD8
:102B600067EEA57AFDEEE76A16EE902A5142C2F3AF
:102B70000A02C1F30A010FE06C0700243C040024A0
:102B80005C0700247C06002400803B47101F0124C2
:102B90000000004510FF002458BF4A4206EE902A6C
:102BA000511C06EB8202F8EEE66A484277EEE67ABE
:102BB000FDEEE76AF8EEE66A77EEE67AD2ED006AB5
:102BC000C1F30A02C0F30A0158BF4A4237EE677ADE
:102BD00006EB8202D2ED005A67EEA57AE6EE877A1E
:102BE00026EE276ABA4AF7EE004ADFEDBA2AFDEE72
:102BF000C46AD2F8A420B0EE003A74EEC67AF8EEB9
:102C0000E66AB5EE007A67EEA37A74EE666AE4EEE1
:102C1000067A92ED024AC3ED036AD2ED033AFDEE65
:102C2000E76AF8EEE66A77EEE67AD2ED046A34EE09
:102C3000E66AC3ED007AB4EEE75AD2ED017AD2ED3E
:102C4000005A87EEA25A67EEA67AF1EE10FAE4EE89
:102C5000067ACCBF0121002119759F4BC2ED017A84
:102C600035EE854A35EE235A82ED004A75EE446A08
:102C700082ED035AD3ED007AF0EEE66AA6EE837A8F
:102C8000D3ED016A1B7A76EEE76A37EE677AC7EE14
:102C9000267A5BB9F5EEC07AF1EE10FA00F1E9831D
:102CA000F4EEE47AF1EE10FA80F2F083B7EE007AF7
:102CB000DFED8A4A8A4E77EE877AFDEEE76AF8EE14
:102CC000E66A77EEE67A67EEA47AFDEEE76A16EE3C
:102CD000903A5942C3F30A03C1F30A0158BF4B4269
:102CE00006EE903A591C06EB8303F8EEE66A48427A
:102CF00077EEE67AFDEEE76AF8EEE66A77EEE67AD8
:102D0000D3ED006AC1F30A03C0F30A0158BF4B4276
:102D100037EE677A06EB8303D3ED004A67EEA47AB9
:102D2000E6EE877A26EE276A694BF7EE004ADFED7A
:102D3000692ABDEEC57AD3F8DC30F0EE003A74EEC5
:102D4000C67AB8EEC77AF5EE006A67EE847A93ED3C
:102D5000024A35EE477AE5EE067A82ED037A93ED84
:102D6000033ABDEEE77AB8EEC77A77EEC77AC2EDDE
:102D7000007AF4EEE75AD3ED017AD3ED045A87EEE8
:102D8000A27A93ED005A34EEE56A67EEA57AF1EE89
:102D900010FAE4EE067ACCBF0121002111754E4AEB
:102DA000C3ED017A35EE074A37EE037A83ED004A28
:102DB00077EE445A83ED037AD2ED007AF0EEE55ACD
:102DC000E5EEA36AD2ED015A127A75EEE75A76EE75
:102DD000E76AC6EEA57A5AB9F5EEC07AF1EE10FAB6
:102DE00000F14B83F4EEE47AF1EE10FA80F25283B4
:102DF000F7EE006ADFED394A394E77EEA67AFDEE3E
:102E0000E75AF8EEE55A77EEE57A67EEA47AFDEE3A
:102E1000E75A15EE902A5142C2F30A02C1F30A01A1
:102E200058BF4A4205EE902A511C06EB8202F8EE8A
:102E3000E55A484277EEE57AFDEEE75AF8EEE55AB4
:102E400077EEE57AD2ED005AC1F30A02C0F30A0127
:102E500058BF4A4276EEE76A06EB8202D2ED004A9C
:102E600067EEA47AE5EEA67A26EE276A069AF7EED2
:102E7000007A0798FDEEC76A08320BF1080B411C77
:102E800077EEC67A0692F8EEE66A67EE847A77EE17
:102E9000666AE7EE067AC3ED036ABDEEE77AB8EE3E
:102EA000C77A77EEC77AB4EEE75AC3ED007AF1EE4F
:102EB00010FACCBF012200221A750B9B984200F039
:102EC000F7820791FFF71ABB014C04F1E0050FE010
:102ED0007C06002400803B47101F012400000045B1
:102EE00010FF0024000000303834AC4200F04C8168
:102EF000636B1B7D002BF7D0266BF7EE00AA1FED4E
:102F000007AAD6ED008A17F0F5FB07EE100AD6EDFA
:102F1000007A96ED016AB8EEC77A36EE676AD4EDAC
:102F2000077A27EE0A7A77EEA76AF0EE687AE7EE7C
:102F3000067AC6ED027A77EEAA7AF4EEE67AF1EE38
:102F400010FAD1DD266BDFF8F893D6ED008A17F082
:102F5000D1FB07EE900A96ED007AD6ED013AB7EE76
:102F6000004BF8EEE77A94ED05BA73EEC73A94EDAC
:102F7000016AB0EE687A94ED049A67EE8A7ADFF817
:102F8000C4A3B6EE005BDFF8C083B7EEC66AE44FB9
:102F9000A7EEA37AB7EEC99A86ED027AB7EEC77AA2
:102FA000266B37EE047BD6ED008A27EE057B27EEF5
:102FB000067BB7EEC77B89ED007A17F09BFB07EE27
:102FC000900A96ED007AD6ED016AB0EE000BF8EEAD
:102FD000E77A76EEC76AB0EE687A67EE8A7AA7EE8D
:102FE000A67A2BEE071A86ED027AB7EEC11A15F013
:102FF00067FF29EE007B266B94ED03BAD6ED008ABD
:1030000094ED029AB7EEC77BB7EEC99A8AED007AC3
:1030100017F070FB07EE900A96ED007AD6ED016A84
:10302000B0EE000BF8EEE77A76EEC76AB0EE687A9B
:1030300067EE8A7AA7EEA67A2BEE071A86ED027A59
:10304000B7EEC11A15F03CFF29EE007B266B94ED1C
:103050000BBAD6ED008A94ED0A9AB7EEC77BB7EEAD
:10306000C99A88ED007A17F045FB07EE900A96EDB5
:10307000007AD6ED016AB0EE000BF8EEE77A76EE54
:10308000C76AB0EE687A67EE8A7AA7EEA67A2BEE68
:10309000071A86ED027AB7EEC11A15F011FF29EE74
:1030A000009B266B94ED08BAD6ED008AB7EEC99B5B
:1030B00087ED009A17F01EFB07EE900A96ED007A56
:1030C000D6ED016AF8EEE77A964B76EEC76AB0EE77
:1030D000687A93ED056A67EE8A7A934BA7EEA67A33
:1030E0007BEE077A86ED027A93ED007A8F4BB4EE91
:1030F000C67AC3ED007AF1EE10FA7FF7F5AEDAED9D
:10310000006A8B4BF5EE406A99ED007A98ED006A03
:103110001868F1EE10FA3FF4E7AE76EE6A7A00F244
:103120000F51002367EEA67AB4EE677AF1EE10FA3B
:1031300048BFB0EE677A03E00133402B3FF4D4AED2
:1031400011F8012F002AF7D1DFED7A7A00EB830125
:103150003F68383427EE277A01F5826666EEA76A63
:1031600081EDC46A0344AC4281ED447AC1ED846AC6
:1031700037604FF00107066883F8107506F1010605
:1031800006600A617FF4B4AE694B9FED6B5AD3F8C9
:1031900000C00CF20F550CF110070CF24F522C46E8
:1031A00039469146CDE901B5BB4662E0F4EEC47AFA
:1031B000F1EE10FA80F2B080B7EE006A9FED5F4A40
:1031C00077EE867AFDEEE75AF8EEE55A77EEE57A85
:1031D00067EE847AFDEEE75A15EE903A5A42C3F351
:1031E0000A03C2F30A0258BF534205EE903A5A1C32
:1031F00005EB8303F8EEE55A504277EEE57AFDEEF3
:10320000E75AF8EEE55A77EEE57AD3ED005AC2F3C5
:103210000A03C0F30A0258BF534236EE676A05EB51
:10322000830595ED004A67EE847AE5EE867AF4EE42
:10323000E36AF1EE10FA06DBDCF800300022013B15
:103240002270CCF8003006EE90AAB7EE006AF8EED5
:10325000E66A37EE667A76EE476A66EEA26AE7EECF
:10326000036A64EEA64AA4EEA75A4C4501F1040194
:103270006CD014F8013F002BF7D0B7EE004AD1ED27
:10328000C07AD1ED006A01F5806391ED407A74EE69
:10329000677AD1ED803AF8EE666AD3ED004ADCE950
:1032A0000152A6EEA77AC6EEA35A05F5005898ED8E
:1032B000016A98F80870FDEEC77AD2E9016317EE4B
:1032C00090AAD8ED007A334412680AF1010036EE74
:1032D000676A181AA3EB0A03B3FBF6FE06FB1E3E51
:1032E00075EEE75AB0FBF6F306FB130002EB8E0E09
:1032F000C5EE867A02EB8002DEED002A92ED003AFE
:10330000002F7FF459AFF5EEC07AF1EE10FA7FF599
:103310004DAFD5ED007A8AE7D8ED037A87E700BF95
:1033200044040024949E002434000024400400241B
:103330005C07002400803B470000000000000045BF
:10334000500400244C04002448040024944978EEDE
:10335000057A5F46029D01F500534A46DDF804B048
:1033600093ED007AD3ED016A77EEC77A187A76EE9C
:10337000C76A87EEA67A68B9B5EEC07AF1EE10FAA0
:1033800000F1EC80F7EE007AB4EEE77AF1EE10FA95
:1033900080F2E180F7EE006A9FED826A37EE267ACE
:1033A000FDEEC77AF8EEE77A77EE677A67EE867A0F
:1033B000BDEEE77A17EE103A5842C3F30A03C0F3A2
:1033C0000A0058BF434207EE103A581C01EB830332
:1033D000B8EEC77A444277EEC77ABDEEE77AB8EE28
:1033E000C77A77EEC77A93ED007AC0F30A03C4F385
:1033F0000A0058BF434276EEE76A01EB830191ED84
:10340000006A67EE867AE7EE267A674BCBED007AA4
:10341000D3F800A0654BCBED017A1B780493FFF73E
:1034200093BA3F2A94BF00230123BCF17F0F63D8D6
:10343000002B61D14FF00109FFF71AB903980A9BDD
:103440007F280646DDE908717FF681A97F2F94BFAA
:103450009C4643F0010C3D460194FFF797B9DDE926
:1034600008750A99FFF7FCB9514AD2ED007AFFF7C7
:10347000B7BB4F4BD3ED007A54E44D4AD2ED007AFE
:10348000F2E44B4BD3ED007AFFF7F6BA494BD3ED9C
:10349000037A47E4474AD2ED037AE5E4454BD3ED9E
:1034A000037AFFF7E9BA434AD2ED037AFFF798BBF4
:1034B000DDED047A00214048B8EE670A03F0B8FF5A
:1034C0000AF07CFA3D498A6891ED017A821A0B78FC
:1034D00007EE902AF8EE677A67EE877A9BB10023B1
:1034E000C1ED057AC1ED037AC1ED047A0B700DB020
:1034F000BDEC088BBDE8F08F019C4FF001090598E9
:103500002646FFF7CCB82D4B93ED047AF4EEC77A3C
:10351000F1EE10FAC8BFC3ED047A284B93ED037A9D
:10352000F4EEC77AB7EE007AF1EE10FA48BFC3EDB9
:10353000037A224BD3ED066A93ED056A37EE667A7D
:1035400027EE067AA7EEA67A83ED057A0DB0BDECDC
:10355000088BBDE8F08FD3ED037A56E7D1ED007A02
:1035600053E77F2F94BF9C4643F0010C3D46BCF1CE
:10357000000F3FF478A9FFF7D2B903987F280646D9
:10358000EFD8002BEDD1019CFFF7E4B80A4803F017
:103590001BFF094803F024FF00232B70FEF79BBF9D
:1035A000B09E00240000004568070024790600242E
:1035B00010FF0024101F01246C070024949E002497
:1035C0002DE9F04F87B09C469DF84840109B25465A
:1035D00002949DF84440002D3FD061451DD89A4289
:1035E0001BD804B396467F29744694BF002201225B
:1035F000E50804F0070701263F2C01EBC51534440C
:1036000006FA07F604D8054412B92F7D3E432E75FD
:10361000A342EDD201318C45E5D207B0BDE8F08F71
:1036200001318C45F9D37F29154694BF0027012726
:10363000EC0805F0070E01263F2D01EBC41406FA35
:103640000EF606D8044427B994F814E02EEA0606CC
:1036500026750135AB42EBD2E2E7ACEB010EBEF1D1
:10366000000FB8BFCEF1000E614574D3BCF17F0FDF
:1036700094BF002501253F2A049594BF002601260A
:103680000396002D40F0BA83002E40F0B7834FF030
:10369000FF350195D50802F0070601270CEBC5158B
:1036A000B74005442E7D002C00F0D3823E43614597
:1036B0002E7500F0BB830025CDE90355F046174673
:1036C0000D46FE087F2D4FEA480905EBC6160ED8B9
:1036D0003F2F06440BD807F0070B4FF0010A0AFAF8
:1036E0000BFA96F814B04AEA0B0A86F814A0B9F15E
:1036F000000F01DD019E3544CE4540DCB2EB0709E9
:1037000018BF4FF00109AC4502D1B9F1000F3CD010
:1037100007F0070E01264FEAD70A06FA0EF64FEA1F
:10372000CA1A5FFA86FB05EB0A067F2D064407D806
:103730003F2F05D896F814E04BEA0E0E86F814E0F9
:10374000B8F1000F01D0019E3544AC45EBD1B9F181
:10375000000FE8D119E03F2A94BF00250125BCF1F4
:103760007F0F039594BF002601260496002D40F09C
:103770003F83002E40F03C83012501958AE7013FFD
:10378000F044BA429DD1AC459BD19D1A9A4285EA3C
:10379000E576A6EBE5763546019680F08F813F2BE6
:1037A000C5F100074FF0010894BF4FF0000B4FF038
:1037B000010BBBF1000F40F00C83049D002D40F085
:1037C0000883DD0803F007064FF0010E0CEBC5156A
:1037D0000EFA06FE05442E7D002C00F09A8246EA81
:1037E0000E069A422E7500F032834FF0000B3E46D3
:1037F00096466546CDE904B14FEADE017F2D4FEADA
:10380000460A05EBC1110FD8BEF13F0F01440BD89A
:103810004FF0010B0EF007090BFA09F991F814B0FB
:1038200049EA0B0981F81490B7EB460F02DA0199C7
:10383000013D761ABAF1000FB8BFC644BCEB0501D2
:1038400018BF0121734502D1002900F04A81BA4511
:10385000D2DC89460192DDE904B14FEADE077F2D13
:1038600005EBC7170FD8C719BEF13F0F3A460AD864
:103870004FF0010A0EF007070AFA07F792F814A0B2
:1038800047EA0A071775002EB8BFC6447345E4D14E
:10389000B9F1000FE1D1019AA1EB0C06002EB8BFDF
:1038A0007642614540F2F9807F294FF0010894BFCC
:1038B0004FF000094FF00109B9F1000F40F092827A
:1038C000BBF1000F40F08E82DD0803F007074FF0D8
:1038D000010E01EBC5150EFA07FE05442F7D002CE5
:1038E00000F0028147EA0E0761452F7500F0AC82B7
:1038F000B6461F46FD08BCF17F0F4FEA4E090CEBA0
:10390000C5150ED83F2F05440BD807F0070B4FF015
:10391000010A0AFA0BFA95F814B04AEA0B0A85F87C
:1039200014A0B9F1000FC8BFC4444E4500F39F80F6
:10393000B3EB070918BF4FF00109614502D1B9F196
:10394000000F20D007F007054FF0010B4FEAD70A10
:103950000BFA05FB4FEACA1A5FFA8BFB0CEB0A0560
:10396000BCF17F0F054405D83F2F03D82E7D4BEACD
:1039700006062E75BEF1000F00D0C4446145EDD19E
:10398000B9F1000FEAD1DDF80890A2EB030EBEF109
:10399000000FB8BFCEF1000E9A4271D9039DCEF14F
:1039A000000C002D40F03D82B9F1000F40F039824B
:1039B0000125D60802F007074FF0010801EBC616F3
:1039C00008FA07F80644377D002C00F0F28047EA39
:1039D00008079A4237753FF420AE67460E46DC086A
:1039E0007F2E4FEA470806EBC4140ED83F2B044441
:1039F0000BD803F0070A4FF0010909FA0AF994F805
:103A000014A049EA0A0984F81490BCEB470F02DAC3
:103A1000013EA7EB0E07B8F1000FB8BF5B198C1B76
:103A200018BF01249A4202D1002C3FF4F6ADE045C4
:103A3000D5DCD9087F2E06EBC1110ED83F2B0144EF
:103A40000BD803F0070E4FF0010C0CFA0EFC91F8A6
:103A500014E04CEA0E0C81F814C0002FB8BF5B19BB
:103A60009A42E6D1002CE4D107B0BDE8F08F013FC7
:103A7000B644BB427FF43EAF61457FF43BAF82E783
:103A8000039DCEF1000C002D40F0C281B9F1000F72
:103A900040F0BE814FF0FF358BE77F2994BF4FF098
:103AA00000094FF00109B9F1000F40F09681BBF118
:103AB000000F40F092814FF0FF3805E73F2BC6F131
:103AC000000794BF4FF0000B4FF0010BBBF1000F4C
:103AD00040F07A81049D002D40F076814FF0FF3850
:103AE0006FE6DDE904B1D7E627EA0E0761452F75D9
:103AF00000F0AA81A14637461D46CDE901284FEACC
:103B0000D50A3F2D4FEA470E0CEBCA1A10D8BCF16C
:103B10007F0F00EB0A080BD84FF0010A05F0070BE6
:103B20000AFA0BFB98F814A02AEA0B0A88F814A0EA
:103B3000BEF1000F01DD029A9444764531DCB3EB0F
:103B4000050E18BF4FF0010E6145DDE9012803D1D4
:103B5000BEF1000F3FF419AF05F007064FF0010B5F
:103B60004FEAD50A10930BFA06FB4FEACA1A6FEA1E
:103B70000B0B5FFA8BFB0AEB0C06BCF17F0F0644C4
:103B8000334605D83F2D03D8367D0BEA06061E7551
:103B900007B1C4446145EED1BEF1000FEBD1109BDB
:103BA000F3E6013D3744AB42A9D16145A7D1019A63
:103BB000EBE627EA08079A4237753FF42EAD6746D1
:103BC0000E46DC083F2B4FEA470806EBC4140ED81C
:103BD0007F2E04440BD803F007094FF0010A0AFABC
:103BE00009FA94F8149029EA0A0984F81490BCEBB5
:103BF000470F02DA013EA7EB0E07B8F1000FB8BF7E
:103C00005B198C1B18BF01249A4202D1002C3FF48F
:103C100004ADE045D5DCD9083F2B06EBC1110ED829
:103C20007F2E01440BD803F0070C4FF0010E0EFA63
:103C30000CFE91F814C02CEA0E0C81F814C0002F71
:103C4000B8BF5B199A42E6D1002CE4D107B0BDE8B9
:103C5000F08F26EA070661452E7500F0E780CDE972
:103C60000344F04617460D46FE087F2D4FEA4809EB
:103C700005EBC6160ED83F2F06440BD807F0070AEF
:103C80004FF0010B0BFA0AFB96F814A02AEA0B0A74
:103C900086F814A0B9F1000F01DD019E3544CE4530
:103CA0002FDCB2EB070918BF4FF00109AC4503D177
:103CB000B9F1000F3FF469AD07F0070E01264FEA96
:103CC000D70A06FA0EFB4FEACA1A6FEA0B0B5FFA25
:103CD0008BFB05EB0A067F2D064407D83F2F05D83E
:103CE00096F814E00BEA0E0E86F814E0B8F1000F17
:103CF00001D0019E3544AC45EBD1B9F1000FE8D1BC
:103D000043E5013FF044BA42AED1AC453FF43DAD8E
:103D1000AAE726EA0E069A422E7500F09880A3467E
:103D20003E4696466546CDE904B14FEADE017F2D59
:103D30004FEA460905EBC1110FD8BEF13F0F014410
:103D40000BD84FF0010A0EF0070B0AFA0BFB91F8A3
:103D500014A02AEA0B0A81F814A0B7EB460F02DA86
:103D60000199013D761AB9F1000FB8BFC644BCEB0A
:103D7000050118BF0121734502D100293FF4B1AEFE
:103D80004F45D2DB8A46DDF810B0059901924FEA23
:103D9000DE077F2D05EBC7170DD8C719BEF13F0F02
:103DA0003A4608D801270EF0070907FA09F9177DE6
:103DB00027EA09071775002EB8BFC6447345E6D138
:103DC000BAF1000FE3D166E59A423FF465AD4FF0DA
:103DD000FF38002C7FF40BADA2E761453FF4D5AD71
:103DE0004FF0FF38002C3FF486AECDF808907FE509
:103DF00001250195002C3FF434AF5FE461453FF4A9
:103E0000C4AC4FF0FF350195002C3FF42AAF55E4C8
:103E10009A423FF402AC4FF0FF35002C7FF4DDAD49
:103E2000CDE60125002C7FF4D8ADC8E69D1A9A4254
:103E300085EAE576A6EBE576354601960AD20025B9
:103E4000CDE90355019DAAE44FF000099DE54FF02F
:103E5000000B21E56F4200254FF0FF380395B0E4D9
:103E600010B500210446702208302160616016F010
:103E70005BFD4FF00133A36710BD00BF314B324AE9
:103E800003EB40139FED316A02EB800203F58C6374
:103E9000D2ED007A93ED007A77EE677AF0EEE76A7A
:103EA000F4EEC66AF1EE10FA39DD294B01221A54FC
:103EB000F5EEC07A9FED276AB7EEC05AB6EE004B1A
:103EC000F1EE10FA54BF0123002306EE903AF8EE0B
:103ED000E66A30EE660A37EE667AB0EEC00AB0EEF9
:103EE000C77A30EE060A37EE067A20EE270AC0EED1
:103EF000076A36EEA77AB7EEC77AA7EE045BB7EE8D
:103F0000C50BB5EEC00AF1EE10FA17D4F7EE007A41
:103F1000B4EE670AF1EE10FA37FE800A70479FEDA3
:103F20000E6A0B4BF4EEC66AF1EE10FA03D41B5C7A
:103F3000002BBDD1704700221A5470479FED070A2D
:103F4000704700BF6C0700245C0400246F12833AA2
:103F500054040024ACC5273717B7D138000000003F
:103F60002DE9F04F2DED028BF5B0BB4B002419AAC3
:103F700007908DF86440214617921E7C5D7C189452
:103F8000D3E9002738787F7802EB001002EB0712A4
:103F900090F8460592F84625A0F1FF00A2F1FF0235
:103FA000B0FA80F0B2FA82F24009520960F30701D8
:103FB00086EA000762F30F2167F3174185EA0207DB
:103FC00067F31F61196159694F1C01F07F878642B1
:103FD00040F0478295420AD0DA68525C012A40F0EC
:103FE0004682072901F1010201F0BC855A619B4B11
:103FF00010939B4B11939B4B0026D3E900251C7C0F
:1040000029786D7802EB0111587C02EB051291F8CA
:10401000461592F84655A1F1FF01A5F1FF05B1FA49
:1040200081F1B5FA85F549096D0961F3070684EA5E
:10403000010265F30F2662F3174680EA050262F378
:104040001F665A69571C1E6101F04D878C4201F0B2
:104050007985D968895C11B9A84201F07B854FF058
:10406000FF325A61804B0E93804B0026D3E9002526
:104070001C7C29786D7802EB0111587C02EB05124B
:1040800091F8461592F84655A1F1FF01A5F1FF05FB
:10409000B1FA81F1B5FA85F549096D0961F30706B1
:1040A00084EA010265F30F2662F3174685EA0002EF
:1040B00062F31F665A691E61561C01F0FA868C4233
:1040C00001F01985D968895C11B9854201F01B8519
:1040D0004FF0FF325A610E9B1A78DFF8A09199F8E1
:1040E000261599F8463599F856450B402340FF2B85
:1040F00002F0ED805E4B184614930023036001200C
:104100005C4B187099F8203513B1802902F0CE80ED
:10411000079E99F818553368002A01F0BE85C3EB55
:10412000C30006EB8000D0ED087AD800002D01F026
:104130009E87D9F8385507EE105AB8EEC77A77EE51
:10414000877ABAEE087AF4EEC77AF1EE10FA02F343
:104150000180F0EE477AC01A079D05EB8000C0EDA4
:10416000087A99F8500520B17F2C02D1FF2941F03F
:10417000E487109B00241F68119B07F1FF3C1D681A
:10418000002D2E462A46B8BF6E1C76107F2C4FF0AD
:10419000000394BF002501253F2B10D87DB9D90815
:1041A00003F007004FF0010E04EBC1110EFA00FE00
:1041B000494491F8540020EA0E0081F8540001337C
:1041C0009E42E9D20134A445E0D2BCF1590FA2F1DC
:1041D00002051FD91F2D1DD95A247F2C4FF0200313
:1041E00094BF002601263F2B0ED86EB9DA0803F0E3
:1041F0000701012004EBC21288404A4492F854108F
:1042000021EA000182F8541001339D42EBD20134BF
:10421000BC42E2D1184B00225978144693F800B002
:104220005B685F46CB460F934B080492C3F10B03C8
:1042300005911393DDED047A4FF0010AB946069417
:1042400017EE903AB8EEE78A15940C339BB21293AE
:10425000C4EB04135D0013E0AC04002468060024E2
:104260006406002494040024750400247C040024C3
:104270007804002404000024B00300246C07002408
:10428000079A06981368C3EBC3031918C0B202EB70
:104290008101D1ED023AB0EE630AFFF7EFFD0E9B0C
:1042A0001B781BB1F0EE403A81ED020AF1EE007A84
:1042B0004FEADA03B1EE087A0499DB010AF105024C
:1042C00063EEA73AF0EE487A0393E3EE877AFCEECA
:1042D000E77A17EE903AA3EB010CBCF1000FB8BFE0
:1042E000CCF1000CAB4241F2CB827F2B41F2E38355
:1042F0004FF0010E6446504604997F2910D83F289C
:104300000ED8C60800F00708012701EBC61607FA09
:1043100008F75E4496F8548047EA080786F8547018
:104320006600002EC8BF7144B44500F3A380BAEB09
:10433000000718BF01278B4200D1FFB100F0070C26
:1043400001264FEAD008089206FA0CF64FEAC81880
:104350005FFA86FC3F280AD87F2908D808EB0102BB
:104360005A4492F854604CEA060682F8546004B14C
:1043700071448B42EED1002FECD1089A7F2B00F2D2
:104380008580D60803EBC611F601594491F8540014
:1043900040F0400081F8540050467F2B0CD8C108F3
:1043A00000F00707012403EBC111BC40594491F808
:1043B00054703C4381F8544001308242EDD104995D
:1043C000CF1A3144002F5944B8BF7F42AB42C1F0ED
:1043D0004D8291F8540040F0400081F854005FD0C5
:1043E0004FF0FF3C384611467F2B10D83F290ED89E
:1043F000CC0801F0070E012603EBC41406FA0EF6F2
:104400005C4494F854E046EA0E0684F85460440094
:10441000002CC8BF6344A7423BDC571A18BF0127D2
:10442000AB4201F0A18701F0070601244FEAD10851
:10443000B4404FEAC8185FFA84FE3F290AD87F2BA0
:1044400008D808EB03045C4494F854604EEA06066E
:1044500084F8546000B163449D42EED1002FECD14A
:104460001EE0D868405C10B995423FF4BAAD4FF0F9
:10447000FF32BBE58B42644400F1FF307FF43DAF77
:1044800050457FF43AAF7F2B7FF67BAFD608F6011D
:1044900082E7AB42384401F1FF31A5D18A42A3D172
:1044A000DDE903310B445B4493F8541041F0020101
:1044B00083F854103F2A00F2DC87D308049902F0F5
:1044C0000700013A01EBC313012152455B4401FA95
:1044D00000F193F8540041EA000183F85410E9D147
:1044E0003D4B069A53F82240204610F8013B002B22
:1044F00001F0FB82FBF724FF431C129A13FB09F324
:104500001BB223EAE373A2EB63039BB27F2B28BFAA
:104510007F23ABF84430139B53449BB23F2B28BFFF
:104520003F23ABF846302378002B00F099802246D9
:10453000D6462E46A3F12001C8B25E2800F28E8036
:10454000BBF8440000EB0904802C00F38780BBF823
:104550004650059F05EB070CBCF1400F7EDC002F99
:1045600069D007FB01F1B9F1000F64D06FF000488A
:1045700054300D94AC46884439440F9F0C96A7F1F3
:10458000020A07EB480803900AEB410A5446CDE9BA
:104590000832CDE90A5E0CF007034FF0010E4FEA36
:1045A000DC05BCF13F0F0EFA03FE039B38F8027FD7
:1045B00098BF00266FEA0E0A03EBC5124FEAC51535
:1045C00088BF01265FFA8AFA5A445FFA8EFE0021FC
:1045D0005046AA460BE000BF080000241DB913781E
:1045E0004EEA0303137001310132494519D06FF0CF
:1045F0005303A3EB0B03A3EB0A0313447F2B94BFDA
:10460000354646F0010507FA01F31B04E6D4002DF8
:10461000E9D11378013101320340494502F8013CE8
:10462000E5D144450CF1010CB5D1DDE90832DDE9F5
:104630000A5EDDE90C64A1B27F2928BF7F21402DED
:1046400008BF3F25ABF84410ABF8465011789942AB
:1046500004D112F8013F002B7FF46CAFF2463546CF
:10466000069B0AF1100A0333BAF1210F06937FF477
:1046700007AE159C4F46049B01341E33032C049354
:104680007FF4D8AD079AD94605941368C3EBC303EA
:1046900002EB83031FAAD3ED087A1DAB1D92FDEE3A
:1046A000E77A039303990992002217EE905A4A720F
:1046B000002DB4BF2D232B230B7201234B6005F17A
:1046C0000901122941F2D08223A9134625AA8B465B
:1046D00023920892CBF80430002309991370039BAE
:1046E000DBF8042058681B6886188B4201F0B585FA
:1046F00003998C68DBF80010A64208D9089CA142F7
:1047000001F0B685DBF80840A64241F2A8846FF0BC
:1047100040431B1A9A4201F22486039814F0AAF926
:104720002BAB06460DF1A40A04460493CAF80030E8
:1047300056F8083BB34201F08885CAF80030836818
:10474000CAF80830002D63682660B8BF6D42CAF809
:1047500004300023092D636023722C4641F3128636
:10476000632D41F30686B5F57A7FC1F2078642F2E2
:104770000F739D4241F3EF85944B9D4241F2EF85CB
:10478000934B9D4241F20A86924B9C42C1F0A38416
:10479000914B9D4241F2BD84904B9D4241F2B584C4
:1047A0004FF0090808F101012FAE31AB2D2241AFC6
:1047B00030460693336014F075F83368C92288498F
:1047C00038460A9316F048F9632D0A9B40F3478652
:1047D00008F1FF301844834AA446A2FB0412642166
:1047E000520901FB1241144637F8112020F8022922
:1047F00042F20F729445EED8BCF57A7F80F02F8696
:1048000004F13002D2B21A700499DAF80030DAF802
:10481000040072688B4200EB020701F00C85DAF8A5
:1048200008403168A74207D9069CA14201F02385C0
:10483000B468A74241F279846FF040431B1A9A4250
:1048400001F28F85504614F015F9804643AC0746B7
:10485000419458F8083B434501F0E584419383684F
:1048600043937B6842930023C7F800803B727B60D0
:10487000419B1798A342429A01F0C68419AD43990F
:10488000A84201F04A84CDE91732199B19910028FA
:1048900001F0468443934190002342930370419872
:1048A000A04203D04399013113F05DFF3068069BAD
:1048B000984203D0B168013113F055FFDAF80000D7
:1048C000049B984204D0DAF80810013113F04BFF32
:1048D000DBF80000089A904204D0DBF808100131A0
:1048E00013F041FF039B099A1868904203D099681E
:1048F000013113F038FF3C495A23179A4F78A9F831
:1049000044304FEA57084B6891F800B00493C8F15F
:1049100004039BB23F2B28BF3F23A9F846301378EE
:10492000002B00F0A6802546A3F12000C1B25E292D
:1049300000F29E80B9F844400BEB0406802E00F391
:104940009780B9F8461001EB070CBCF1400F00F35B
:104950008F80002F79D007FB00F0BBF1000F74D0DF
:104960006FF0004A00EB070E543406978244049817
:10497000A0F1020C00EB4A0A0CEB4E008E460390AD
:10498000CDE90832CDE90A81CDE90C560EF00703D6
:104990004FF0010C4FEADE05BEF13F0F0CFA03FCAD
:1049A0003AF8027F04EBC51298BF00266FEA0C08A4
:1049B0004FEAC51588BF01265FFA8CFC5FFA88F8BC
:1049C0004A4400214046A84619E000BF9F860100E6
:1049D0003F420F0080969800FFE0F505FFC99A3B23
:1049E0006CB901081F85EB51B00300241DB9137881
:1049F0004CEA03031370013101328B4519D06FF07B
:104A00005303A3EB0903A3EB080313447F2B94BFC9
:104A1000354646F0010507FA01F31B04E6D4002DE4
:104A2000E9D113780131013203408B4502F8013C92
:104A3000E5D1039B0EF1010E9A45A7D1069FDDE952
:104A40000832DDE90A81DDE90C56B0B27F2828BFC3
:104A50007F20402908BF3F21A9F84400A9F846104B
:104A60001178994204D112F8013F002B7FF45CAF1A
:104A70002C46564B9E690E9B1B78002B01F017812C
:104A8000D9F8AD314FF0FF3243F00133C9F8AD3101
:104A9000D9F8B13143F00133C9F8B131D9F8B531A2
:104AA00043F00133C9F8B531D9F8B93143F00133D6
:104AB000C9F8B931D9F8BD3143F00133C9F8BD3176
:104AC000D9F8C13143F00133C9F8C13199F8C53182
:104AD00043F0010389F8C5313D4B1A605A609A6072
:104AE000DA601A615A611A763378002B01F000807F
:104AF000701CFBF725FC431C13FB0BF31BB223EAD2
:104B0000E3735B10C3F166039BB27F2B28BF7F2347
:104B1000A9F84430C8F10C039BB23F2B28BF3F23B8
:104B2000A9F846303378002B00F096802246A3F196
:104B30002000C1B25E2900F28E80B9F8444004EB37
:104B40000B05802D00F38780B9F8461001EB070EA6
:104B5000BEF1400F7FDC002F6AD007FB00F0BBF1F5
:104B6000000F65D06FF0004A00EB070C5434884604
:104B7000824404980697A0F1020E00EB4A0A0C95B5
:104B80000EEB4C00CDE908360390CDE90A1208F08F
:104B900007034FF0010C4FEAD805B8F13F0F0CFAAC
:104BA00003FC3AF8027F04EBC51298BF00266FEAB7
:104BB0000C0E4FEAC5155FFA8CFC88BF01265FFA20
:104BC0008EFE4A4460460021AC460CE008000024FA
:104BD000990800241DB913780EEA030313700131FC
:104BE00001328B4519D06FF05303A3EB0903A3EBFC
:104BF0000C0313447F2B94BF354646F0010507FA9A
:104C000001F31B04E6D4002DE9D113780131013200
:104C100003438B4502F8013CE5D1039B08F10108F1
:104C20005345B4D1069F0C9DDDE90836DDE90A1233
:104C3000A8B27F2828BF7F20402908BF3F21A9F8BC
:104C40004400A9F846103178994204D116F8013F82
:104C5000002B7FF46CAF14460DF1EC0B99F8C631C4
:104C60000126079A43F0100389F8C631D9F8AE310E
:104C700043F01033C9F8AE31D9F8B23143F01033F4
:104C8000C9F8B231D9F8B63143F01033C9F8B631AA
:104C9000D9F8BA3143F01033C9F8BA31D9F8BE3176
:104CA00043F01033C9F8BE31D9F8C23143F01033A4
:104CB000C9F8C2311368134493F878300096002B7A
:104CC00000F0DE871221702014237222FBF7A8FE69
:104CD000162170200096FBF7A3FE079D4FF05F0A98
:104CE000DFF87C924FF05908EB1C00264F46CDF8B8
:104CF0000C90994619F8013F002B40F041862B6833
:104D0000B34200F0F6850136063708F106080AF1CD
:104D1000060A042EEED1874BDDF80C901B68D3F801
:104D200000A0BAF1090F41F2F782BAF1630F41F224
:104D3000FF82BAF57A7FC1F0FE8242F20F739A4584
:104D400041F2FB827C4B9A4541F2F9827B4B9A45BA
:104D500041F2F7827A4B9A45C1F0D581794B9A4559
:104D600041F2CF81784B9A4541F28D810923591C3C
:104D70003DAB41AF0022584606933B9313F092FDA2
:104D8000C92272493846DDE93B8515F065FEBAF166
:104D9000630F40F27183A81E40446D4BD446A3FBC1
:104DA0000A2364225B0902FB13A29A4637F81230E9
:104DB00020F8023942F20F739C45EED8BCF57A7F99
:104DC00080F05A830AF13002D2B288F80020022320
:104DD00000225846009311465E4B13F0FDFD8046BD
:104DE0004194074658F8083B434501F0058241933A
:104DF000836843937B6842930023C7F800803B722B
:104E00007B60419B1798A34201F0E68119ADA8424F
:104E1000DDE9421201F02F81CDE91731199B19927A
:104E2000002801F02B8143934190002342930370AB
:104E30004198A04203D04399013113F094FC3B9870
:104E4000069B984203D03D99013113F08CFC424AF5
:104E5000424BDDF85CC092F800A092F80180C9F8DE
:104E6000443052689CF800300892002B00F0BE805D
:104E7000B6465746614642465E462546A3F12000A7
:104E8000C4B25E2C00F2AF80B9F8448008EB070A88
:104E9000BAF1800F00F3A780B9F8464004EB020C8A
:104EA000BCF1400F00F39F80002A00F0888002FBD5
:104EB00000FC002F00F0838008F154006FF0004BDD
:104EC0000F950490E34408989444CDF848A0A0F1CD
:104ED000020800EB4B0B08EB4C006FF0530CA046A4
:104EE00003901F48ACEB000CCDE90931CDE90BE490
:104EF000CDE90D2608F007034FF0010E4FEAD80464
:104F0000B8F13F0F0EFA03FE049B3BF8026F98BF07
:104F100000256FEA0E0A03EBC4134FEAC41488BFDE
:104F200001255FFA8AFA4B445FFA8EFE0022504652
:104F3000A24620E05C0700249F8601003F420F004C
:104F400080969800FFE0F505FFC99A3B6CB901080F
:104F50001F85EB5160B90108B00300245A002800F6
:104F60006C0700241CB919784EEA0101197001324E
:104F70000133BA4215D0ACEB0A0119447F2994BF22
:104F80002C4645F0010406FA02F10904EAD4002C8B
:104F9000EDD11978013201330140BA4203F8011C06
:104FA000E9D1039B08F101085B45A3D10F9DDDF812
:104FB00048A0DDE90931DDE90BE4DDE90D261FFA42
:104FC0008AF07F2828BF7F20402C08BF3F24A9F803
:104FD0004400A9F846400878984204D111F8013FEE
:104FE000002B7FF44BAFB3462C4676469C4BB6EE77
:104FF000006BDFED9C7A93ED057A27EE277AB7EE0A
:10500000C77A37EE067BFDEEC77B17EE907A87EA0C
:10501000E77AAAEBE77AFF0FBAF1090F41F2C281F2
:10502000BAF1630F40F20386BAF57A7FC1F0D181FD
:1050300042F20F739A4540F254858B4B9A4541F2E8
:1050400083818A4B9A4541F28281894B9A45C1F00E
:105050002C80884B9A4541F23780874B9A4540F225
:105060003D8509230593591C35AE39440DF1DC0803
:105070002D223046CDF8D48013F014FC359BC92284
:105080007E493B4441AF3846039315F0E5FC059B50
:10509000581E039B18447A4A5546A2FB0A12642103
:1050A000520901FB12A1924637F8112020F802297B
:1050B00042F20F729542EED8B5F57A7F80F0CA853C
:1050C0000AF13002D2B21A70022300223046009355
:1050D00011466C4B13F080FC069B064605463B933D
:1050E00056F8083BB34201F06F803B9383683D93D1
:1050F0006B683C9300232E606B602B726FF0404313
:105100003C9A9A4201F02D81584601225E4913F0E3
:10511000B1FC06464194054656F8083BB34201F0FF
:105120004B804193836843936B68429300232E60C6
:105130002B726B60419B1798A34201F02D8019AD33
:10514000A842DDE9421200F0B787CDE91731199B7B
:105150001992002800F0B3874393419000234293B3
:1051600003704198A04203D04399013113F0FBFA38
:105170003B98069B984203D03D99013113F0F3FA16
:105180003598404503D03799013113F0ECFA3F4B85
:10519000179E3F4AC9F84430337892F800B05578EA
:1051A000D2F804C0002B00F0B7805F46E246AE465E
:1051B0003146A3F12002D0B25E2800F2AD80B9F8EA
:1051C00044003D18802D00F3A780B9F8464004EB59
:1051D0000E0CBCF1400F00F39F80BEF1000F00F0F9
:1051E00088800EFB02F2002F00F083806FF0004BEE
:1051F000AAF1020C5430A0469344724404900CEB84
:1052000042026FF0530C0AEB4B0B0C950392214AB0
:10521000ACEB020CCDE9056ACDE908E1CDE90A3431
:1052200008F007034FF0010E4FEAD804B8F13F0F22
:105230000EFA03FE049B3BF8026F98BF00256FEA4D
:105240000E0A03EBC4134FEAC41488BF01255FFAAA
:105250008AFA4B445FFA8EFE00225046A24626E0B0
:10526000949E00240000C8429F8601003F420F0028
:1052700080969800FFE0F505FFC99A3B6CB90108DC
:105280001F85EB5164B9010868B901085A00340060
:10529000B00300246C070024000070431CB9197887
:1052A0004EEA0101197001320133974215D0ACEB7F
:1052B0000A0119447F2994BF2C4645F0010406FADF
:1052C00002F10904EAD4002CEDD11978013201333E
:1052D0000140974203F8011CE9D1039B08F1010842
:1052E0005B459DD10C9DDDE9056ADDE908E1DDE95D
:1052F0000A34AAB27F2A28BF7F22402C08BF3F244D
:10530000A9F84420A9F846400A789A4204D111F835
:10531000013F002B7FF44DAF149B1B68002B00F066
:10532000008207EE903A5FED245A119BB5EE006BB8
:10533000F8EE677A109A1B68116887EEA57A07EE77
:10534000903A002B8B46B8BF0133F8EEE77A5A103B
:105350000023924655428A1A0892AAEB0102CDE92F
:10536000092627EE277AB7EEC77A27EE067BFCEEF2
:10537000C77BCDED067A089AA2EB050C6A42BCF118
:10538000000F0392B8BFCCF1000CBBF17F0F94BFAC
:10539000002201223F2B059294BF002101215B4591
:1053A0000491C0F09C824FF0FF378AB981B9DA08C6
:1053B000012003F007010BEBC21200FA01F14A448D
:1053C00092F85400014382F854100022CDE90422DF
:1053D0005B4562D0604619461A467F2A10D83F299D
:1053E0000ED8CC0801F0070E012602EBC41406FA11
:1053F0000EF64C4494F854E046EA0E0684F85460E5
:105400004400002CC8BFD219A4453FDCB3EB010C0B
:1054100018BF4FF0010C934502D1BCF1000F3CD0F6
:1054200001F0070601244FEAD108B4404FEAC8183A
:105430005FFA84FE3F290AD87F2A08D808EB0204C5
:105440004C4494F854604EEA060684F8546000B167
:105450003A449345EED1BCF1000FEBD11DE074AAA4
:1054600002EB440414F8CB2C5A7014F8CC2CFFF740
:10547000CAB9013AFFF71EB874AB03EB4A0A1AF82F
:10548000CB2C88F801201AF8CC2C9EE4934560447C
:1054900001F1FF31A1D18B429FD1039A002AB8BFFD
:1054A00052425345964680F00682BAF13F0FC2F150
:1054B000000194BF4FF000084FF00108B8F1000F51
:1054C00040F00883059A002A40F004834FF0010C55
:1054D0004FEADA0201240AF007004FF000080BEB54
:1054E000C21204FA00F04A4492F85440204382F871
:1054F0005400534546D00F461A46584603937F281A
:105500000FD83F2A0DD8D308012602F0070400EB7C
:10551000C31306FA04F44B4493F85460344383F8FD
:105520005440B7EB410F4FEA410302DAA1EB0E0101
:105530000138002B00DA6244BBEB000618BF0126DD
:10554000524502D1002E00F0D2819F42D7DB039B4F
:105550003F2A10D87F280ED8D40802F0070E012762
:1055600000EBC41407FA0EF74C4494F854E047EAF1
:105570000E0784F854700029B8BF62449245E7D101
:10558000002EE5D1099A5719002FB8BF7F425B451D
:1055900040F287817F2B4FF0010C13D8B8F1000F38
:1055A00010D14FEADA0201200AF0070103EBC21220
:1055B00000FA01F14A4492F85400014382F8541071
:1055C0005B4540D0384651465A467F2A10D83F297D
:1055D0000ED8CC0801F0070E012602EBC41406FA1F
:1055E0000EF64C4494F854E046EA0E0684F85460F3
:1055F0004400002CC8BF6244A74200F31E81B1EBF7
:105600000A0718BF0127934200D1E7B101F007064E
:1056100001244FEAD108B4404FEAC8185FFA84FE6B
:105620003F290AD87F2A08D808EB02044C4494F892
:1056300054604EEA060684F8546000B16244934216
:10564000EED1002FECD185EAE57C5345ACEBE57C4F
:1056500040F20381049ACCF10000002A40F0368227
:105660004FF0010EDA08012403F0070103EBC21228
:1056700004FA01F14A4492F85440214382F854104C
:10568000534542D00746524619467F2910D83F2A33
:105690000ED8D40802F00708012601EBC41406FA5C
:1056A00008F64C4494F8548046EA080684F854609E
:1056B000B7EB400F4FEA400402DAA0EB0C000139CF
:1056C000002C00DA72445E1A18BF01269A4200D1FB
:1056D000DEB1A742D9DB7F2910D83F2A0ED8D408E3
:1056E00002F0070C012701EBC41407FA0CF74C4435
:1056F00094F854C047EA0C0784F854700028B8BFE7
:1057000072449342E7D1002EE5D10133069A0BF1A2
:10571000FF3B0AF1FF3A9A4205F10205BFF42BAEB6
:105720000A9E079B1B79002B40F04184BA4CB7EED0
:10573000006B002394ED077AA361B7EEC77A636B21
:105740009FEDB14B9FEDB25BA7EE446B85EE067B00
:10575000B7EEC77B83ED027A079B5B79002B40F0A5
:10576000CF8394ED157AB7EE006B0023B7EEC77ABE
:105770002365E36E9FEDA44B9FEDA55BA7EE446B05
:1057800085EE067BB7EEC77B83ED027A079B9B799C
:10579000002B40F01F8394ED237AB7EE006B0023BB
:1057A000B7EEC77AC4F88830D4F8A4309FED964B92
:1057B0009FED975BA7EE446B85EE067BB7EEC77B4C
:1057C00083ED027A079BDB79002B40F0818294ED18
:1057D000317AB7EE006B0023B7EEC77AC4F8C03059
:1057E000D4F8DC309FED884B9FED895BA7EE446BCE
:1057F00085EE067BB7EEC77B83ED027A874A884B3E
:105800001146106C986051F8200B096818605960B7
:10581000116ED960D2F88010D2F8A02019615A61B7
:1058200019AB9E4204D019993046013112F09BFF0A
:1058300075B0BDEC028BBDE8F08F9342384401F1A6
:10584000FF317FF4C2AE8A457FF4BFAE85EAE57CC6
:105850005345ACEBE57C3FF6FDAE049ACCF100007D
:105860004FF0FF3E002A3FF4FDAE09E791F85400E7
:105870004FF0010C40F0400081F85400FEF7B2BD3B
:1058800003995918594491F8540040F0020081F8E6
:10589000540004998B423EF474AD4FF0FF3EFEF786
:1058A00029BD7F2B4FF0FF3C3FF68AAEB8F1000FC9
:1058B0003FF477AE84E6BAF13F0FC2F10001059ADA
:1058C0004FF0FF3C94BF4FF000084FF00108002A52
:1058D0007FF40FAEB8F1000F3FF4FAAD09E60127EF
:1058E000002A7FF477AD00293FF461AD72E5039B98
:1058F00048E60E9B1A78002A7FF405AA41AB0121E5
:1059000041941846049312F0CDFF419B06F13102F9
:105910001A70419B1798A34200F0B8840DF1640CF3
:105920006045DDE9421200F0CA84CDE91731199BC8
:105930001992002800F0C6844393419000234293BB
:1059400003704198A04203D04399013112F00BFF3C
:1059500099F80030049883F00103324A17990193B3
:105960000023009308F10103ADF8EC301923ADF8E2
:10597000EE302D4B3C935B46FCF766FBFFF7C3B95B
:10598000D04559D397F8333243F0010387F83332C7
:1059900043467F2B04D82549CA5C42F00102CA5411
:1059A000013B9A45F5D197F8B332D04543F0010356
:1059B00087F8B3324FF0FF0387F8333269D997F88D
:1059C000AD3207F2AD201A4943F0010387F8AD323A
:1059D000184BC91A07F2B323CA187F2A03D81A78BA
:1059E00042F001021A7001338342F5D197F8AD32CB
:1059F00043F0010387F8AD32FF2387F82D32FFF71C
:105A00007EB900BFAFF300802B8716D9CEF7EF3FEA
:105A100000000000000000007C060024CC0B0024E5
:105A20005C040024B00300240600080040090024A0
:105A3000ACFDFFFF6C07002497F82D3243F0010303
:105A400087F82D3297F82E3243F0010387F82E3273
:105A500097F82F3243F0010387F82F3297F830324E
:105A600043F0010387F8303297F8313243F00103F5
:105A700087F8313297F8323243F0010387F8323237
:105A800097F8B33243F0010387F8B332FF2387F866
:105A9000333297F8AD3243F0010387F8AD32534605
:105AA0007F2B04D8BC49CA5C42F00102CA54013BB6
:105AB0009845F5D19AE703995918594491F854003B
:105AC00040F0020081F85400FEF712BC07464FF088
:105AD000010ED8E50F464FF0010C0DE50926731EA7
